:020000040800F2
:10000000282700205D0300088128000883280008B5
:100010008B2800088F2800089328000800000000A3
:100020000000000000000000000000009728000809
:100030009928000800000000873C00089D2800085F
:1000400077030008770300087703000877030008A8
:1000500077030008770300086D2D0008892D00083C
:10006000A52D0008C12D0008DD2D0008770300082C
:100070007703000877030008770300087703000878
:10008000770300087703000877030008C1360008EB
:100090006D3900087703000877030008F92D000880
:1000A000770300087703000877030008B92C0008DD
:1000B00077030008312C0008770300087703000855
:1000C0007703000877030008770300087703000828
:1000D0007703000877030008770300087703000818
:1000E0002D2E0008770300087703000800F002F8BF
:1000F00000F03CF80AA090E8000C82448344AAF186
:100100000107DA4501D100F031F8AFF2090EBAE883
:100110000F0013F0010F18BFFB1A43F0010318473B
:10012000887E0000A87E0000103A24BF78C878C1FD
:10013000FAD8520724BF30C830C144BF04680C60ED
:10014000704700000023002400250026103A28BF35
:1001500078C1FBD8520728BF30C148BF0B60704739
:100160001FB507F099FE1FBD10B510BD07F061FE69
:100170001146FFF7F5FF03F025F807F07FFE03B403
:10018000FFF7F2FF03BC03F029F8000070470000FE
:1001900000210020674A126842F48032654B1A60E1
:1001A00000BF644A126802F40030491C10B9B1F56E
:1001B000A06FF6D15F4A126812F4003F01D001200F
:1001C00000E00020012842D15B4A126842F0100290
:1001D000594B1A601A46126822F003021A601A4636
:1001E000126842F002021A60524A5268514B5A6039
:1001F0001A4652685A601A46526842F480625A603F
:100200001A46526822F47C125A601A46526842F426
:10021000F8125A601A46126842F080721A6000BFE3
:10022000444A126812F0007FFAD0424A526822F023
:100230000302404B5A601A46526842F002025A606A
:1002400000BF3C4A526802F00C02082AF9D17047FC
:1002500010B5FFF79DFF10BD10B53648006840F09F
:100260000100344908600846406834490840314973
:10027000486008460068324908402E490860084630
:10028000006820F4802008600846406820F4FE00E2
:1002900048604FF41F008860FFF7DAFF4FF00060FE
:1002A0002849086010BD10B5002100200022214B14
:1002B0005B6803F00C0121B1042906D0082928D17C
:1002C00007E0214B214C236027E0214B1F4C23608A
:1002D00023E0184B5B6803F47010164B5B6803F463
:1002E0008032022303EB904022B91A4B4343174C50
:1002F00023600DE00F4B5B6813F4003F04D0124BFA
:100300004343124C236003E0114B43430F4C2360E3
:1003100003E00D4B0D4C236000BF00BF054B5B6835
:10032000C3F303130C4CE15C084B1B68CB40074C38
:10033000236010BD00100240002002400000FFF8C2
:10034000FFFFF6FE08ED00E000127A00000000203A
:100350000024F40000093D00040000200948804703
:1003600009480047FEE7FEE7FEE7FEE7FEE7FEE797
:10037000FEE7FEE7FEE7FEE704480549054A064BAF
:100380007047000059020008ED00000828210020F5
:10039000282700202823002028230020314901435A
:1003A000314A1160704770B5002100230F22C478D4
:1003B0000CB32D4C246804F4E064C4F5E064210A15
:1003C000C1F10403CA40447804FA03F1847814406C
:1003D00021430901254C0678A155047804F01F0536
:1003E0000124AC4005786D114FF0E02606EB850541
:1003F000C5F8004109E0047804F01F050124AC4071
:100400001B4D0678761145F8264070BD194A0A4002
:100410000243154B1B1F1A60704739B1124A121D57
:1004200012680243104B1B1D1A6006E00E4A121D93
:10043000126882430C4B1B1D1A607047042808D1B8
:100440004FF0E021096941F004014FF0E022116111
:1004500007E04FF0E021096921F004014FF0E022AC
:10046000116170470000FA050CED00E000E400E0C7
:1004700080E100E080FFFF1F10B50446FE48844283
:1004800009D10121480601F0DAF800214FF000708F
:1004900001F0D5F808E00121880601F0D0F800212C
:1004A0004FF0806001F0CBF810BD30B5024600205F
:1004B0000023146824F002041460146844F001045A
:1004C000146000E05B1C546804F00104012C03D0AC
:1004D000A3F57F44FF3CF5D1546804F00104012CDE
:1004E00001D000206EE08C79012C04D1146844F016
:1004F0008004146003E0146824F080041460CC7954
:10050000012C04D1146844F04004146003E0146822
:1005100024F0400414600C7A012C04D1146844F0D7
:100520002004146003E0146824F0200414604C7A62
:10053000012C04D1146844F01004146003E0146822
:1005400024F0100414608C7A012C04D1146844F057
:100550000804146003E0146824F008041460CC7AE2
:10056000012C04D1146844F00404146003E01468FE
:1005700024F0040414608C78A407CD7844EA056460
:100580000D7944EA05444D7944EA05540D886D1E01
:100590002C43D461146824F001041460002300E0AB
:1005A0005B1C546804F00104012C03D1A3F57F44C3
:1005B000FF3CF5D1546804F00104012C01D1002066
:1005C00000E0012030BD10B50021837A012202FA3B
:1005D00003F1AA4A126842F00102A84B1A60A74A26
:1005E0001C3212688A43A54B1C331A60027BCAB9BD
:1005F000A24A0C3212688A43A04B0C331A6042881C
:10060000C38842EA03439D4A4032847A42F8343038
:100610000288838842EA0343984A4032847A02EB94
:10062000C4025360027B012A19D1944A0C32126829
:100630000A43924B0C331A604288038842EA034310
:100640008E4A4032847A42F83430C288838842EA43
:1006500003438A4A4032847A02EBC4025360C27A6E
:100660003AB9864A121D12688A43844B1B1D1A60D0
:1006700006E0824A121D12680A43804B1B1D1A6055
:10068000028932B97D4A143212688A437B4B143393
:100690001A600289012A06D1784A143212680A4384
:1006A000764B14331A60427B012A06D1734A1C32FE
:1006B00012680A43714B1C331A60704A126822F0A8
:1006C00001026E4B1A6010BD00218171C17101726F
:1006D00041728172C1728170C17003210171022166
:1006E00041710121018070476449096841F00101AD
:1006F000624A11601146096843F60E7291435F4ADF
:1007000011601146096841EA00211160114609682B
:1007100021F001011160704721B1026842F480327A
:10072000026003E0026822F4803202607047E1B1A7
:10073000026842F0800202604FF4C272125842F422
:1007400080734FF4C27213504FF4CA72125842F4BD
:1007500080734FF4CA7213504FF4D272125842F49D
:1007600080734FF4D27213501BE0026822F08002B3
:1007700002604FF4C272125822F480734FF4C272B6
:1007800013504FF4CA72125822F480734FF4CA7295
:1007900013504FF4D272125822F480734FF4D27275
:1007A0001350704710B502460020936803F0806331
:1007B000B3F1806F00D110E0936803F00063B3F1F0
:1007C000006F01D1012008E0936803F08053B3F17A
:1007D000805F01D1022000E00420042879D002F5D6
:1007E000C07303EB00131B6803F0010402F5C07330
:1007F00003EB00131C600B7A7BB94B7A0C6843EA5D
:10080000445302F5C07404EB00142468234302F53A
:10081000C07404EB0014236010E00B7A4C6843EAC8
:10082000C4034C7A234302F5C07404EB001424681B
:10083000234302F5C07404EB001423608B7A03F0A9
:100840000F038B7202F5C07303EB00135B6823F098
:100850000F0402F5C07303EB00135C6002F5C07374
:1008600003EB00135B688C7A234302F5C07404EB3E
:10087000001463608B7B03E000640040006600406E
:100880001C064B7B44EA03440B7B44EA0323CC7AEB
:10089000234302F5C07404EB0014A3608B7C1C0698
:1008A0004B7C44EA03440B7C44EA0323CC7B234384
:1008B00002F5C07404EB0014E36002F5C07303EBAF
:1008C00000131B6843F0010402F5C07303EB00132F
:1008D0001C6010BD10B50246002321B1012907D0CC
:1008E00002290FD109E09068F84C00EA04030BE0FC
:1008F0009068F74C00EA040306E09068F54C00EAC3
:10090000040301E0002300BF00BFF34C181BA34207
:1009100016D007DC83B16FF0806018180ED0022863
:1009200018D111E0B0F5007F10D0EC4C001909D0BF
:10093000B0F5003F0ED10BE002230DE000230BE0E9
:10094000002309E0002307E0012305E0012303E081
:10095000012301E0002300BF00BFD8B210BD21B1C8
:10096000012907D002290FD109E0826842F08002F4
:1009700082600AE0826842F40042826005E0826898
:1009800042F40002826000E000BF00BF704710B573
:1009900000F5D87303EB01131B6803F00403137213
:1009A000137A53B900F5D87303EB01131B6840F2B7
:1009B000FF7404EA5353136009E000F5D87303EBA6
:1009C00001131B686FF0604404EAD303536000F521
:1009D000D87303EB01131B6803F00203537200F595
:1009E000D87303EB01135B6803F00F03937200F5F8
:1009F000D87303EB01135B681B0AD37400F5D8733B
:100A000003EB01139B68D37200F5D87303EB01135A
:100A10009B681C0A147300F5D87303EB01139B68E1
:100A20001C0C547300F5D87303EB01139B681B0E69
:100A3000937300F5D87303EB0113DB68D37300F5F0
:100A4000D87303EB0113DB681C0A147400F5D87328
:100A500003EB0113DB681C0C547400F5D87303EB33
:100A60000113DB681B0E937421B9C36843F02003A4
:100A7000C36003E0036943F02003036110BD21B9A3
:100A8000C26842F02002C26003E0026942F0200224
:100A9000026170470246002019B9D36803F00300D1
:100AA00006E0012903D1136903F0030000E00020F0
:100AB000704710B502460B4600204FF6FF71BBB9D8
:100AC000146824F0020444F00104146000E0491E9C
:100AD000546804F00304012C01D00029F7D15468B4
:100AE00004F00304012C01D0002032E0012030E0AA
:100AF000012B13D1146824F00304146000E0491E94
:100B0000546814F0030F01D00029F8D1546814F090
:100B1000030F01D000201CE001201AE0022B17D1A6
:100B2000146824F0010444F00204146000E0491E3B
:100B3000546804F00304022C01D00029F7D1546852
:100B400004F00304022C01D0002002E0012000E0A8
:100B5000002010BD014600200A6822F0010242F088
:100B600002020A604A6802F00302022A00D1012050
:100B7000704701464FF6FF7200200B6823F0020316
:100B80000B6000E0521E4B6803F00203022B01D100
:100B9000002AF7D14B6803F00203022B00D001209A
:100BA0007047014600208A6902F0700070470146D4
:100BB00000208A69100E7047014600208A69C2F33E
:100BC000074070471AB143690B43436102E0436930
:100BD0008B434361704710B50246002011F4700F3B
:100BE00008D09369C1F31304234201D001202DE002
:100BF00000202BE011F0807F08D05368C1F313046C
:100C0000234201D0012021E000201FE011F0006FFD
:100C100008D09368C1F31304234201D0012015E0EA
:100C2000002013E011F0007F08D0D368C1F3130453
:100C3000234201D0012009E0002007E01369C1F33D
:100C40001304234201D0012000E0002010BD002247
:100C5000234B994202D10023836111E0C1F31302B7
:100C600011F0007F01D0C2600AE011F0806F01D066
:100C7000026105E011F0006F01D0826000E0426087
:100C80007047024600200A4201D0012000E0002007
:100C9000704770B504460D4600266069284272D040
:100CA000B5F5807F69D01DDC082D42D006DC012D12
:100CB0002DD0022D31D0042D7FD134E0102D3ED027
:100CC000202D42D0402D78D145E0000003000004E3
:100CD0000003000800000310000100080001FFF7F6
:100CE0007000F030B5F5004F61D009DCB5F5007F3C
:100CF0004AD0B5F5806F4DD0B5F5006F5DD150E0AD
:100D0000B5F5803F2DD0B5F5003F56D12FE0A06856
:100D10005549FFF7B6FF064651E0E0680321FFF7AB
:100D2000B0FF06464BE0E0680821FFF7AAFF064641
:100D300045E0E0681021FFF7A4FF06463FE0206988
:100D40000321FFF79EFF064639E020690821FFF7DF
:100D500098FF064633E020691021FFF792FF064610
:100D60002DE060680821FFF78CFF064627E06068E9
:100D70001021FFF786FF064621E0A0690121FFF759
:100D800080FF06461BE01BE0A0690221FFF779FF08
:100D9000064614E0A0690421FFF773FF06460EE043
:100DA0000BE0A0697021FFF76CFF064607E0606862
:100DB0000421FFF766FF064601E0002600BF00E0C1
:100DC0000026304670BDB1F5007F3AD00FDC2029F7
:100DD00028D006DC01291CD004291DD0082940D1C7
:100DE0001DE0402921D0B1F5807F3AD126E0B1F550
:100DF000004F31D006DCB1F5806F25D0B1F5006F22
:100E00002FD124E0B1F5803F12D0B1F5003F28D1B9
:100E100011E0154A826025E00822C26022E010221B
:100E2000C2601FE0082202611CE01022026119E08A
:100E30000822426016E01022426013E00422426061
:100E400010E0042242600DE0042242600AE0002229
:100E500082610422426005E0002282610422426035
:100E600000E000BF00BF70470101010000204449BD
:100E70000860091D0860091D0860091D08604148D7
:100E80003F4914310860704700213D498279002AAA
:100E90003AD00A46126803689A430B461A600A1D44
:100EA000126803689A430B1D1A60027911440A689C
:100EB00003681A430A60324A0832126803689A4388
:100EC0002F4B08331A601A1D126803689A432C4B83
:100ED0000C331A604279102A0ED11A1F1268036867
:100EE0001A43274B08331A601A1D126803681A4305
:100EF000234B0C331A600DE02149427911440A68F2
:100F000003681A430A6005E0027911440A6803681D
:100F10009A430A6070470021016001710C21417100
:100F20000021817170471649103109680143144A44
:100F300010321160704701460020114A14321268C5
:100F40000A4201D0012000E0002070470C49143112
:100F500008607047014600200022094B1B6803EA25
:100F60000102074B14331B680B4202D00AB1012067
:100F700000E000207047024914310860704700000B
:100F800000040140FFFF0F0010B50446CA48844228
:100F900008D10121042000F045FB0021042000F0CD
:100FA00041FB46E0C548844208D10121082000F0F9
:100FB00039FB0021082000F035FB3AE0C0488442AC
:100FC00008D10121102000F02DFB0021102000F09D
:100FD00029FB2EE0BB48844208D10121202000F0EB
:100FE00021FB0021202000F01DFB22E0B6488442B6
:100FF00008D10121402000F015FB0021402000F025
:1010000011FB16E0B148844208D10121802000F094
:1010100009FB0021802000F005FB0AE0AC48844277
:1010200007D10121801500F0FDFA0021A01500F084
:10103000F9FA10BD10B50121084600F0F3FA0021BD
:10104000012000F0EFFA10BD2DE9F0410246002525
:101050000026002000230024002791F803C00CF094
:101060000F0591F803C01CF0100F03D091F802C0D7
:101070004CEA0505B1F800C01CF0FF0F31D0146830
:1010800000202BE04FF0010C0CFA00F3B1F800C087
:101090000CEA03069E4220D183004FF00F0C0CFA9D
:1010A00003F7BC4305FA03FC4CEA040491F803C0BF
:1010B000BCF1280F06D14FF0010C0CFA00FCC2F86D
:1010C00014C00AE091F803C0BCF1480F05D14FF0FD
:1010D000010C0CFA00FCC2F810C0401C0828D1D347
:1010E0001460B1F800C0BCF1FF0F34DD546800207B
:1010F0002EE000F1080C4FF0010808FA0CF3B1F8EB
:1011000000C00CEA03069E4221D183004FF00F0C71
:101110000CFA03F7BC4305FA03FC4CEA040491F80B
:1011200003C0BCF1280F05D100F1080C08FA0CF837
:10113000C2F8148091F803C0BCF1480F07D100F148
:10114000080C4FF0010808FA0CF8C2F81080401C97
:101150000828CED35460BDE8F0814FF6FF710180BE
:10116000022181700421C1707047024600209368FB
:101170000B4201D0012000E0002070470146886842
:1011800080B2704702460020D3680B4201D0012094
:1011900000E0002070470146C86880B270470161D6
:1011A0007047416170470AB1016100E041617047D9
:1011B000C16070474FF480320A438261816182616D
:1011C00082698269704702460020424B18684FF6D8
:1011D0008073184040EA021008433E4B1860704785
:1011E0003D49C8617047F0B50A460023002400213C
:1011F000002500F00046B6F1004F02D1354EF169EE
:1012000001E0344E7168C0F3034583B200F4401628
:10121000B6F5401F08D121F070612E4E766826F099
:1012200070662C4F7E6012E000F48016B6F5801FC9
:1012300006D1032606FA05F4A14341F0706106E0E9
:10124000460D360103FA06F6B14341F0706122B152
:10125000460D360103FA06F6314300F00046B6F1BA
:10126000004F02D11B4EF16101E01A4E7160F0BDDA
:1012700030B500228B071C0F0F2303FA04F2154B25
:1012800008338C1053F824309343124C08348D10DB
:1012900044F8253023468C1053F824308C07240F53
:1012A00000FA04F423430B4C08348D1044F8253025
:1012B00030BD0A490860704700080140000C014039
:1012C000001001400014014000180140001C0140C2
:1012D000002001400000014000002042DC002042CC
:1012E0000E49086070470D49486070470B49886097
:1012F00070474AF6AA200949086070474CF6CC406E
:1013000006490860704701460020044AD2680A4234
:1013100001D0012000E000207047000000300040B4
:10132000DC48006840F00100DA490860084640687F
:10133000D9490840D749486008460068D74908405D
:10134000D44908600846006820F4802008600846F8
:10135000406820F4FE0048604FF41F00886070472A
:10136000CC49096821F48031CA4A116011460968E4
:1013700021F480211160B0F5803F03D0B0F5802FBB
:101380000ED106E0C349096841F48031C14A1160B9
:1013900007E0C049096841F4A021BE4A116000E09D
:1013A00000BF00BF704710B5014600220023002097
:1013B0004A11012A02D1B74C236806E0022A02D161
:1013C000B44C236A01E0B34C636A01F01F020124AC
:1013D00094401C4201D0012000E0002010BD70B5F7
:1013E00000240025002600BF3120FFF7DCFF064661
:1013F000641CB4F5A06F01D0002EF5D03120FFF7AA
:10140000D2FF08B1012500E00025284670BD014645
:101410000020A04A106820F0F80040EAC1001060E7
:1014200070479F490860704702460020994B5868F2
:1014300020F47C1042EA01031843964B5860704731
:1014400097490866704701460020924A506820F08C
:1014500003000843506070478E48406800F00C005D
:101460007047014600208B4A506820F0F000084386
:101470005060704701460020864A506820F4E060C2
:1014800008435060704701460020824A506820F4AB
:10149000605040EAC1005060704729B17D4A527ADD
:1014A00002437C4B5A7206E07A4A527AC343DBB25B
:1014B0001A40784B5A7270477A4908607047014663
:1014C0000020744A506820F4404008435060704740
:1014D0000021754A11706F4A82F82010012802D04D
:1014E000042808D103E001216F4A117004E00521AE
:1014F0006D4A117000E000BF00BF70476B49086083
:1015000070476449096A0143624A1162704767493A
:1015100044390860704730B50021002200240023C0
:101520005C4D6D6805F00C0121B1042905D0082936
:1015300023D105E05E4D056022E05E4D05601FE0B1
:10154000544D6D6805F47012524D6D6805F4803489
:10155000022505EB92421CB9574D554305600BE03F
:101560004C4D6D6815F4003F03D0514D5543056057
:1015700002E0504D5543056002E04D4D056000BF4F
:1015800000BF444D6D6805F0F00109094B4D6B5CDF
:101590000568DD4045603F4D6D6805F4E061090A6E
:1015A000464D6B5C4568DD4085603A4D6D6805F4DD
:1015B0006051C90A414D6B5C4568DD40C560354DE1
:1015C0006D6805F44041890B3D4D6B5CC568B5FB0A
:1015D000F3F5056130BD29B12E4A526902432D4B06
:1015E0005A6104E02B4A526982432A4B5A61704780
:1015F00029B1284A92690243264B9A6104E0254AA0
:1016000092698243234B9A61704729B1214AD2697A
:101610000243204BDA6104E01E4AD26982431D4B2B
:10162000DA61704729B11B4AD2680243194BDA606C
:1016300004E0184AD2688243164BDA60704729B139
:10164000144A12690243134B1A6104E0114A1269E9
:101650008243104B1A617047144940390860704743
:101660000F49C86470470B49C87170470948406A00
:1016700040F0807007494862704701460020054AE3
:1016800092680A4201D0012000E000207047014921
:1016900088727047001002400000FFF8FFFFF6FE5E
:1016A00000004242D80042422010024080044242E0
:1016B00000127A000024F40000093D00140000200C
:1016C0002400002010B50446FE48844208D10121C0
:1016D000C014FFF7A7FF0021E014FFF7A3FFC4E049
:1016E000B4F1804F08D101210846FFF7A8FF00217F
:1016F0000120FFF7A4FFB8E0F348844208D101219C
:101700000220FFF79CFF00210220FFF798FFACE0CA
:10171000EE48844208D101210420FFF790FF002108
:101720000420FFF78CFFA0E0E948844208D10121A2
:101730000820FFF784FF00210820FFF780FF94E0D6
:10174000E448844208D101211020FFF778FF0021EE
:101750001020FFF774FF88E0DF48844208D10121A0
:101760002020FFF76CFF00212020FFF768FF7CE0BE
:10177000DA48844208D101214014FFF753FF0021C9
:101780006014FFF74FFF70E0D548844209D1012172
:10179000C804FFF747FF00214FF40020FFF742FF86
:1017A00063E0D048844209D101210805FFF73AFFE0
:1017B00000214FF48010FFF735FF56E0CA488442FD
:1017C00009D101214805FFF72DFF00214FF400103A
:1017D000FFF728FF49E0C548844208D10121402095
:1017E000FFF72DFF00214020FFF729FF3DE0C04813
:1017F000844208D101218020FFF721FF00218020B1
:10180000FFF71DFF31E0BB48844208D1012180155C
:10181000FFF715FF0021A015FFF711FF25E0B648DF
:10182000844209D101210804FFF7FCFE00214FF496
:101830008030FFF7F7FE18E0B048844209D101215B
:101840004804FFF7EFFE00214FF40030FFF7EAFEF7
:101850000BE0AB48844208D101218804FFF7E2FE87
:1018600000214FF48020FFF7DDFE10BD002202882A
:10187000944B98420ED0994B98420BD0B0F1804FC8
:1018800008D0914B984205D0904B984202D0904B93
:10189000984204D14FF68F731A404B881A438D4BF0
:1018A000984207D08C4B984204D04FF6FF431A4021
:1018B000CB881A4302808B8883850B880385814BF4
:1018C00098420BD0854B984208D08B4B984205D05C
:1018D0008A4B984202D08A4B984201D10B7A0386F8
:1018E00001238382704770B5002400220023058CF9
:1018F0004FF6FE7635400584028C8388048B4FF6C4
:101900008F752C40B51E2C400D882C43751E2A4027
:101910000D892A434D882A436A4DA8420BD06F4D4A
:10192000A84208D0744DA84205D0744DA84202D0F8
:10193000734DA84213D14FF6F7752A404D892A43BB
:101940004FF6FB752A408D882A434FF6FF652B40E2
:101950004FF6FF552B408D892B43CD892B43838038
:101960000483CD888586028470BD70B50024002272
:101970000023058C4FF6EF7635400584028C838872
:10198000048B48F6FF752C404FF6FF452C400D8820
:101990002D0644EA15444FF6DF752A400D892D05C2
:1019A00042EA15424D882D0542EA1542454DA842AE
:1019B00002D04A4DA8421BD14FF67F752A404D896F
:1019C0002D0542EA15424FF6BF752A408D882D0538
:1019D00042EA15424FF6FF352B404FF2FF752B4080
:1019E0008D89AD0443EA1543CD89AD0443EA15431F
:1019F00083800483CD880587028470BD70B5002480
:101A000000220023058C4FF6FF6635400584028CCA
:101A10008388848B4FF68F752C404FF6FC752C40D5
:101A20000D882C434FF6FF552A400D892D0642EABA
:101A300015424D882D0642EA1542224DA84202D099
:101A4000264DA8421BD14FF2FF752A404D892D0625
:101A500042EA15424FF6FF352A408D882D0642EAAC
:101A600015424EF6FF752B404DF6FF752B408D89C4
:101A70002D0543EA1543CD892D0543EA154383809F
:101A80008483CD888587028470BD70B500220023D1
:101A90000024058C4EF6FF7635400584038C84883F
:101AA000828B48F6FF752A404FF6FF452A400D8885
:101AB0002D0642EA15424DF6FF752B400D892D0784
:101AC00020E00000002C014000040040000800401D
:101AD000000C0040001000400014004000340140A1
:101AE000004C0140005001400054014000180040EB
:101AF000001C004000200040004001400044014024
:101B00000048014043EA15434D882D0743EA154339
:101B1000F84DA84202D0F84DA84206D14BF6FF7509
:101B20002C408D89AD0544EA154484808283CD889C
:101B3000A0F84050038470BD828B4FF2FF331A40EF
:101B40008283828B0B0642EA134282837047F0B590
:101B50000C461546002200210026078C4EF6FF7C1D
:101B600007EA0C070784828B018C27073E0C40F69E
:101B7000FF473A402F0642EA17421F0742EA174240
:101B8000DC4FB8420ED0DC4FB8420BD0B0F1804FE2
:101B900008D0DA4FB84205D0D94FB84202D0D94F59
:101BA000B84206D14DF6FF77394046F480573943A5
:101BB00005E047F6FF57394044F4805739438283A4
:101BC0000184F0BD828B4FF6F3731A408283828BBF
:101BD0000A4382837047F0B50C4615460022002167
:101BE0000026078C4FF6FF6C07EA0C070784828BF0
:101BF000018C27063E0C4FF60C773A401F0545EA4C
:101C000017473A43BB4FB8420ED0BB4FB8420BD038
:101C1000B0F1804F08D0B94FB84205D0B84FB842A4
:101C200002D0B84FB84206D14FF6FF57394046F4BC
:101C30008077394305E04FF2FF57394044F480770D
:101C4000394382830184F0BD028B4FF2FF331A4087
:101C50000283028B0B0642EA134202837047F0B5FF
:101C60000C461546002200210026078C4FF6EF7C1B
:101C700007EA0C070784028B018C27053E0C40F60F
:101C8000FF473A401F0742EA17422F0642EA17422F
:101C9000984FB8420ED0984FB8420BD0B0F1804F59
:101CA00008D0964FB84205D0954FB84202D0954F14
:101CB000B84206D14FF6DF77394046F01007394376
:101CC00005E04FF65F77394044F01007394302834F
:101CD0000184F0BD028B4FF6F3731A400283028B2E
:101CE0000A4302837047F0B50C46154600220021D6
:101CF000068C4FF6FE773E400684028B018C4FF631
:101D00000C7632401E0545EA16463243794EB04203
:101D10000ED0794EB0420BD0B0F1804F08D0774E44
:101D2000B04205D0764EB04202D0764EB04206D1D7
:101D30004FF6FD76314044F00106314305E04FF6A1
:101D4000F576314044F00106314302830184F0BD51
:101D500070B505460C46674885420ED066488542F8
:101D60000BD0B5F1804F08D06448854205D0644857
:101D7000854202D06348854200D100E000BF208840
:101D800050B92389A28861882846FFF7ACFFE18813
:101D90002846FFF79FFF25E0208804280AD12389E1
:101DA000A28861882846FFF75AFFE1882846FFF796
:101DB0004BFF17E0208808280AD12389A288618870
:101DC0002846FFF708FFE1882846FFF7FBFE09E0F9
:101DD0002389A28861882846FFF7B9FEE188284652
:101DE000FFF7AAFE70BD2DE9F04105460C4600261E
:101DF0000127608808B9022600E00026A088012893
:101E000001D1022700E001272088A0B92389A288F8
:101E100061882846FFF767FFE1882846FFF75AFFE9
:101E200023893A4631462846FFF719FFE1882846BC
:101E3000FFF70AFF13E02389A28861882846FFF78D
:101E40000EFFE1882846FFF7FFFE23893A46314618
:101E50002846FFF748FFE1882846FFF73BFFBDE82B
:101E6000F0810A884B881A438B881A43CB881A431F
:101E70000B891A434B891A438B891A43A0F84420D3
:101E800070474FF6FF71818000210180C180418041
:101E9000017270470021018041808180C1800181F1
:101EA00041818181C18170470021018041800121F0
:101EB00081800021C1800181704700210180418023
:101EC0008180C180018141818181704721B1028877
:101ED00042F00102028004E002884FF6FE731A40CD
:101EE0000280704781B1B0F8442042F40042A0F86B
:101EF00044200FE0002C0140003401400004004069
:101F000000080040000C0040B0F84420C2F30E026C
:101F1000A0F84420704710B51AB183890B43838120
:101F200004E08389CC43A4B22340838110BD818225
:101F3000704741EA0203A0F84830704710B51AB163
:101F400083890B43838104E08389CC43A4B223407B
:101F5000838110BD01894FF6F872114001817047ED
:101F60000A46002101894FF68F7319401143018100
:101F7000704730B504460D4629462046FFF7F0FF6E
:101F8000208940F00700208130BD2DE9F041044652
:101F90000D4616461F46602D06D13B4601223146AE
:101FA0002046FFF75CFE05E03B4601223146204615
:101FB000FFF799FE29462046FFF7D2FF208940F01F
:101FC00007002081BDE8F08130B50C460021018971
:101FD000C9B21D0642EA154525432943018130BD9A
:101FE0002DE9F04105460E46174698460024434623
:101FF0003A4631462846FFF7E7FF2C894FF6F8703E
:10200000044044F007044FF68F70044044F070041D
:102010002C81BDE8F081F0B504460D4616461F46FA
:102020003B46324629462046FFF7CEFF208940F442
:1020300080402081F0BD0185828270470A460021E0
:1020400001884FF68F731940114301807047F0B536
:102050000C4615461E460021002200230189028BF2
:10206000038C4FF6F877394021434FF6FC473A404E
:1020700040F201173A434FF6DD773B40370545EA1A
:1020800017473B43018102830384F0BD0A460021C8
:10209000018B4FF68F7319401143018370470A4635
:1020A0000021018B48F6FF731940130641EA1341E2
:1020B000018370470A460021818B4FF68F731940C8
:1020C0001143818370470A460021818B48F6FF73D4
:1020D0001940130641EA13418183704721B10288F8
:1020E00042F08002028004E002884FF67F731A40BB
:1020F0000280704721B1828842F00402828004E0AD
:1021000082884FF6FB731A408280704721B1828823
:1021100042F00802828004E082884FF6F7731A408A
:102120008280704721B1828842F00102828004E0FF
:1021300082884FF6FE731A40828070470A4600215B
:10214000018B4FF6F77319401143018370470A461C
:102150000021018B4FF2FF731940130641EA13412E
:10216000018370470A460021818B4FF6F7731940AF
:102170001143818370470A460021818B4FF2FF7320
:102180001940130641EA1341818370470A46002132
:10219000018B4FF6FB7319401143018370470A46C8
:1021A0000021018B4FF6FF331940130641EA13411A
:1021B000018370470A460021818B4FF6FB7319405B
:1021C0001143818370470A460021818B4FF6FF330C
:1021D0001940130641EA1341818370470A460021E2
:1021E000018B4FF67F7319401143018370470A46F4
:1021F0000021018BC1F30E01130641EA1341018353
:1022000070470A460021818B4FF67F7319401143B6
:10221000818370470A460021818BC1F30E011306AA
:1022200041EA1341818370470A460021018C4FF631
:10223000FD7319401143018470470A460021018C47
:102240004FF6F77319401143018470470A46002185
:10225000018C4FF6DF731940130541EA13410184E5
:1022600070470A460021018C4FF67F731940130511
:1022700041EA1341018470470A460021018C4FF660
:10228000FF531940130641EA1341018470470A467F
:102290000021018C4FF2FF731940130641EA1341EC
:1022A000018470470A460021018C4DF6FF731940E6
:1022B000130741EA13410184704730B5002301241C
:1022C0008C40A3B2048CDD43ADB22C400484048C5A
:1022D00002FA01F5ADB22C43048430BD30B50023C1
:1022E00004248C40A3B2048CDD43ADB22C400484A2
:1022F000048C02FA01F5ADB22C43048430BD70B5F4
:102300000346002000241846183001258D40ACB249
:102310001D8CE643B6B235401D8409B1082909D1A8
:1023200000EB6100056825F0700505600568154340
:1023300005600CE00D1FADB200EB6500056825F4EB
:10234000E04505600568160645EA1645056070BD5E
:1023500021B1028842F00202028004E002884FF6B6
:10236000FD731A400280704721B1028842F00402D6
:10237000028004E002884FF6FB731A400280704727
:1023800021B1828842F08002828004E082884FF688
:102390007F731A408280704702884FF6F7731A40A5
:1023A000028002880A430280704782884FF68F734A
:1023B0001A40828082880A438280704702894FF6E1
:1023C000F8731A40028102890A4302817047028928
:1023D0004FF67F731A40028102890A4302817047D7
:1023E0008184704781857047818670470187704777
:1023F00081877047A0F84010704702884FF6FF436E
:102400001A40028002880A43028070470146888E83
:1024100070470146088F70470146888F7047014614
:10242000B1F8400070470146888C70470146088D1E
:10243000704702460020138A0B4201D0012000E0C1
:1024400000207047CA430282704730B50246002020
:1024500000230024158A05EA0103958905EA010491
:1024600013B10CB1012000E0002030BDCA4302824C
:102470007047000010B50446FC48844209D1012190
:102480008803FFF7CFF800214FF48040FFF7CAF828
:1024900032E0F748844209D101214804FFF7CFF820
:1024A00000214FF40030FFF7CAF825E0F1488442DC
:1024B00009D101218804FFF7C2F800214FF48020E0
:1024C000FFF7BDF818E0EC48844209D10121C804A7
:1024D000FFF7B5F800214FF40020FFF7B0F80BE04C
:1024E000E648844208D101210805FFF7A8F8002139
:1024F0004FF48010FFF7A3F810BD2DE9F04786B028
:1025000005460E460024A24600BFA1460027B0891A
:1025100000B100BF2F462C8A4CF6FF700440F088B3
:1025200004432C82AC894EF6F3100440B088318904
:102530000843718908430443AC81AC8A4FF6FF40DD
:102540000440B0890443AC8201A8FEF7E4FFC74809
:10255000874202D1DDF810A001E0DDF80CA0A889C7
:1025600010F4004F08D00AEBCA0000EB0A103168E3
:102570004900B0FBF1F807E00AEBCA0000EB0A10D3
:1025800031688900B0FBF1F86420B8FBF0F0040179
:102590002009642101FB1089A88910F4004F08D09C
:1025A000322000EBC900B0FBF1F000F0070004435B
:1025B00008E0322000EB09106421B0FBF1F000F0DC
:1025C0000F0004432C8106B0BDE8F0874FF416518C
:1025D000016000218180C18001810C2141810021A5
:1025E0008181704710B502460020108A4FF2FF0328
:1025F00018400B884C8823438C882343CC88234382
:102600001843108210BD0021018041808180C1806B
:10261000704721B1828942F40052828104E08289AC
:102620004DF6FF731A4082817047F0B503460024CF
:10263000002600250020A1F510676A3F00D100BFE9
:102640001846C1F3421401F01F06012707FA06F5E8
:10265000012C01D10C3004E0022C01D1103000E03B
:1026600014301AB107682F43076002E00768AF43D0
:102670000760F0BD10B51AB1838A0B43838204E072
:10268000838ACC43A4B22340838210BD028A4FF6D2
:10269000F0731A400282028A0A43028270478289DA
:1026A0004FF2FF731A40828182890A438281704708
:1026B00021B1828942F00202828104E082894FF6D0
:1026C000FD731A4082817047028A4FF6DF731A4009
:1026D0000282028A0A430282704721B1028A42F4CE
:1026E0008042028204E0028A4BF6FF731A400282A3
:1026F0007047C1F308028280704701468888C0F3A2
:1027000008007047818941F0010181817047028B87
:10271000D2B20283028B42EA012202837047028B0B
:1027200002F47F420283028B0A430283704721B185
:10273000828A42F02002828204E0828A4FF6DF73AE
:102740001A408282704721B1828A42F0100282824E
:1027500004E0828A4FF6EF731A408282704721B1FB
:10276000828A42F00802828204E0828A4FF6F7737E
:102770001A408282704721B1828942F400428281EC
:1027800003E08289C2F30E028281704721B1828AFE
:1027900042F40062828204E0828A4FF2FF731A40A0
:1027A00082827047828A4FF6FB731A408282828A45
:1027B0000A438282704721B1828A42F002028282F9
:1027C00004E0828A4FF6FD731A4082827047024607
:1027D0000020B1F5007F00D100BF13880B4201D06B
:1027E000012000E00020704701F40072B2F5007F84
:1027F00000D100BFCA430280704770B50246002472
:10280000002300250020A1F510666A3E00D100BF1C
:10281000C1F3421501F01F03012606FA03F3012D4F
:1028200002D19689334006E0022D02D1168A334048
:1028300001E0968A33400C12012606FA04F4168849
:10284000344013B10CB1012000E0002070BD10B580
:1028500000220023A1F510646A3C00D100BF0A12D7
:1028600001249440A3B2DC43048010BD0038014031
:102870000044004000480040004C00400050004030
:10288000704710B5FDF782FC10BD00BFFEE700BF2A
:10289000FEE700BFFEE770477047704710B501F0D4
:1028A000CDF9044607480078401C064908702046C8
:1028B00001F0C8F900F0C3FE02F064FC02F0F3FB83
:1028C00010BD0000710000202DE9FF4107460121E5
:1028D0000846FEF78DFE01211C20FEF789FE00262A
:1028E000002407E0385DC4F10301C90088400643B5
:1028F000601CC4B2042CF5DB0024D0E0600006FAB2
:1029000000F010F0004F70D00120A04080B2ADF870
:102910000C0048208DF80F0003A9FE48FEF794FB39
:102920000120FD4901F83400600006FA00F010F0C3
:10293000804F7CD021460220FEF79AFC0120A04067
:10294000019000208DF808000C208DF8090001206E
:102950008DF80A0001A8FEF797FA00214FF00060F9
:10296000FDF754FD4FF4E060FDF718FD042C05DD84
:102970000A2C03DA17208DF8000009E00A2C03DB8B
:1029800028208DF8000003E0A01DC0B28DF80000E3
:1029900000208DF8010005208DF8020001208DF83F
:1029A00003006846FDF7FFFC0120DB4901EBC40191
:1029B00048700720D84901EBC40188700020D6492F
:1029C00001EBC401C880D44901EBC401C870D249ED
:1029D00001EBC401087104EB4400D04901EBC000D5
:1029E000CF4941F82400002512E035E004EB440013
:1029F000CA4901EBC001681C01EBC00004EB4401B3
:102A0000C64A02EBC10101EBC5014860681CC5B2B2
:102A1000022DEBDB04EB4400C04901EBC00104EBE9
:102A20004400BE4A02EBC000416136E0FFE70020EF
:102A3000B94901EBC40148700720B74901EBC40153
:102A400088700120B44901EBC401C8800020B2495C
:102A500001EBC401C87020E00120A04080B2ADF8B5
:102A60000C0004208DF80F0003A9AA48FEF7ECFA29
:102A70000020A94901F8340001EBC4014870A649BF
:102A800001EBC40188700120A34901EBC401C88097
:102A90000020A14901EBC401C870601CC4B2102C15
:102AA000FFF62CAFBDE8FF8108B501211C20FEF721
:102AB0009FFD4FF44070ADF8000003208DF8020038
:102AC00018208DF8030069469648FEF7BDFA08BD48
:102AD00000B589B00121C802FEF78AFD4FF6FF70EC
:102AE000ADF8180040F26710ADF814000020ADF802
:102AF0001A00ADF8160005A98B48FEF7B7FE1B209B
:102B00008DF8200000208DF8210002208DF8220091
:102B100001208DF8230008A8FDF745FC01A8FFF768
:102B2000B9F93020ADF804000020ADF806004FF4EC
:102B3000FA70ADF80A000020ADF80C0001A97A483F
:102B4000FEF7D1FE01A97848FEF70FFF0021764875
:102B5000FFF7F4FA00217448FFF7F9FA09B000BD55
:102B600070B504460D460120A040012808D105B1EA
:102B700000E00020024601216C48FEF714FB0BE048
:102B80000DB1012000E000200246201D01238340FA
:102B900099B26648FEF707FB70BD38B501211C20CD
:102BA000FEF726FD4FF6E170ADF8000003208DF82A
:102BB000020010208DF8030069465C48FEF744FAD5
:102BC000002405E001212046FFF7CAFF601CC4B2C3
:102BD0000C2CF7DBFFF768FFFFF77AFF38BD70B505
:102BE00005460C466800524991FBF0F0514941F806
:102BF00034004D4820300088A2000121914089B264
:102C0000084349492031088002214748FFF71AFC50
:102C10000220A04081B201224348FFF77CF9012144
:102C20004148FFF753F901213F48FFF75BF970BDB9
:102C300010B502214048FFF708FCD8B102213E48F8
:102C4000FFF714FC3C48FFF7E1FB3A4909680844E8
:102C50003849486008464068B0F5803F04D30846CC
:102C60004068A0F5803048603248406881B2324800
:102C7000FFF7BAFB04213048FFF7E7FBD8B1042186
:102C80002D48FFF7F3FB2C48FFF7C3FB2949896860
:102C900001442848C160C068B0F5803F05D325488D
:102CA000C068A0F580302349C8602248C06881B25E
:102CB0002148FFF79BFB10BD10B502211A48FFF712
:102CC000C4FBD8B102211848FFF7D0FB1648FFF724
:102CD0009DFB184909680844164948600846406841
:102CE000B0F5803F04D308464068A0F580304860C6
:102CF0001048406881B20C48FFF776FB04210A486F
:102D0000FFF7A3FB88B304210748FFF7AFFB064892
:102D100014E000000010014088020020C8000020DC
:102D20004802002000080140002C0140000C014036
:102D30006D0F0300B800002000040040FFF769FB9E
:102D4000D44989680144D348C160C068B0F5803F68
:102D500005D3D048C068A0F58030CE49C860CD48C2
:102D6000C06881B2CC48FFF741FB10BD10B501200F
:102D7000FEF7F0F838B10120FEF7E8F8C748006820
:102D8000401CC649086010BD10B50220FEF7E2F8ED
:102D900038B10220FEF7DAF8C0484068401CBF494D
:102DA000486010BD10B50420FEF7D4F838B10420F7
:102DB000FEF7CCF8B9488068401CB849886010BD5F
:102DC00010B50820FEF7C6F838B10820FEF7BEF8A7
:102DD000B248C068401CB149C86010BD10B5102091
:102DE000FEF7B8F838B11020FEF7B0F8AB4800692C
:102DF000401CAA49086110BD10B5052413E001214B
:102E000001FA04F0FEF7A6F858B1012101FA04F026
:102E1000FEF79CF8A14850F82400401C9F4941F857
:102E20002400601C84B20A2CE9DB10BD10B50A2412
:102E300013E0012101FA04F0FEF78CF858B10121EA
:102E400001FA04F0FEF782F8944850F82400401C80
:102E5000924941F82400601C84B2102CE9DB10BDBB
:102E60002DE9FF41054600270024D4E015F8340081
:102E7000012874D105EBC4004078012870D105EB1E
:102E8000C400C078401C05EBC401C87005EBC40049
:102E9000C0781428EDD100F0D1FE074605EBC40040
:102EA0000079401C05EBC401087105EBC4000079F2
:102EB00003280FDC794850F8240081B204EB440069
:102EC000774A02EBC00205EBC4000079401E22F8ED
:102ED000301014E0714850F82400724951F8241061
:102EE0000880704850F8240040686E4941F824007A
:102EF00005EBC4000079401E05EBC40108710020F9
:102F000005EBC401C88000260FE004EB44006449CF
:102F100001EBC00030F8360005EBC401C988084455
:102F200005EBC401C880701C86B205EBC4000079B3
:102F3000B042EADC05EBC400C08805EBC4010979A6
:102F400090FBF1F005EBC401C88005EBC400C0881C
:102F5000C82806DA032005EBC401887010E053E0AE
:102F600019E005EBC400C088B0F57A7F04DD0420C9
:102F700005EBC401887003E0072005EBC4018870ED
:102F80000020464941F8240005EBC401C8703846CA
:102F900000F058FE3DE00120A04081B24248FEF71B
:102FA000E4F84249087005EBC400C088097848403D
:102FB0002BD005EBC400C078401C05EBC401C870E1
:102FC00005EBC400C078052823DB05EBC400C088EE
:102FD00008B9012000E0002005EBC401C880344896
:102FE000006840F007000090E0B28DF8050005EBA6
:102FF000C400C088C1B28DF8061002208DF804000C
:103000009DE80F0000F0D9FB03E0002005EBC401B0
:10301000C870601C84B2102CFFF628AFBDE8FF8199
:1030200070B50646002412E000250CE0325D6B000E
:103030009A40012323EA9211042202FB0450FFF775
:103040008FFD681CC5B2042DF0DB601CC4B2032CDC
:10305000EADB70BD10B57D20FEF7A5F908B1FEF7DB
:1030600005FB45F25550FEF73BF90320FEF73BF90F
:103070004FF4E170FEF73AF9FEF73BF9FEF73EF93F
:1030800010BD10B5FFF7E6FF00F094F900F0FCFB6F
:1030900010BD0000B8000020002C014008030020F3
:1030A000C800002048020020001001402800002035
:1030B0003C00002086B000208DF8080037480068EA
:1030C000019001A80FC800F078FB05AA0021344840
:1030D000006801F066FA05E0322001F0C5FC3148D5
:1030E000FFF7BEFEF8E708B51BE02F48006888B977
:1030F0002E48006870B96A4641F270712C48006829
:1031000001F04FFA9DF800000A2803D12948006811
:1031100003F084FF00F0C9FC00F04DFD012001F038
:10312000A3FCE2E70EB5FFF7ACFF00F044FE002081
:1031300001F019FC1A490860002001F014FC1D4937
:103140000860002001F00FFC194908600A231A4AA0
:103150000021AFF29F0004F0CFF80B23174A0021A3
:10316000AFF27D0004F0C8F80CE069461148006831
:1031700003F083FFBDF8000008B9FEF7BAF832206B
:1031800001F072FCF1E710B50F230D4A0021AFF2F8
:103190006B0004F0B1F8044610BD00003C000020B4
:1031A0002C00002088020020480000204000002061
:1031B0003400002030000020440500204407002097
:1031C0004409002010B500F05AFD01F044FFFFF75C
:1031D000DAFF01F0A0FF002010BD0000014600BF93
:1031E000704770B504460D4600BF80213048FFF798
:1031F000EEFA0028F9D0A1B22D48FFF77AFA20465E
:1032000070BD10B5044600BF80212948FFF7DFFAE2
:103210000028F9D021462648FFF76BFA10BD10B5FB
:1032200000BF20212248FFF7D2FA0028F9D0204819
:10323000FFF763FAC0B210BD1FB50446009400202A
:10324000ADF80400ADF80600ADF80800ADF80C00CC
:103250000C20ADF80A0069461548FFF74EF9012128
:103260001348FFF7D6F91FBD08B5012144F2040049
:10327000FEF7BEF94FF40070ADF8000018208DF88D
:10328000030003208DF8020069460A48FDF7DCFEC2
:103290004FF48060ADF8000004208DF8030069460B
:1032A0000448FDF7D1FE4FF4E130FFF7C5FF08BD3C
:1032B000003801400008014010B58CB004460121DF
:1032C0004806FEF7A2F9F848FDF7D6F804A8FDF77E
:1032D000FBF900208DF8160001208DF817008DF8FD
:1032E000180000208DF819008DF81A0001208DF8C3
:1032F0001B0000208DF812008DF8130002208DF8BD
:10330000140001208DF8150007A8FEF704F94FF40A
:103310007A710998B0FBF1F0B0FBF4F19DF814005C
:10332000C01C9DF815201044B1FBF0F080B2ADF840
:10333000100004A9DC48FDF7B8F801208DF80A0058
:1033400000208DF80B0001208DF80C00D748006894
:10335000A0F500704005000CADF800000020ADF8AD
:1033600002004FF47E40ADF804000020ADF80600E6
:10337000ADF8080001208DF80D006846FDF723F92F
:103380000CB010BD4FF00041C0F880114FF4C27175
:10339000095821F00F024FF4C2710A500022091D92
:1033A0000A50091D0A50D0F8801141F00101C0F8FF
:1033B000801170471CB501210520FEF719F94FF463
:1033C0000060ADF8040048208DF8070001A9B84856
:1033D000FDF73AFE4FF48050ADF8040018208DF848
:1033E000070003208DF8060001A9B148FDF72CFE67
:1033F00014208DF8000000208DF8010002208DF8C7
:10340000020001208DF803006846FCF7CCFF132072
:103410008DF8000000208DF8010002208DF80200D8
:1034200001208DF803006846FCF7BDFFFA20FFF786
:1034300043FF9D48FFF7A6FF02219B48FDF7C3FC11
:10344000012202219848FDF7BDFB1CBD10B50246C4
:103450000020936803F08063B3F1806F00D110E027
:10346000936803F00063B3F1006F01D1012008E01D
:10347000936803F08053B3F1805F01D1022000E034
:10348000042004285ED002F5C07303EB00131B6810
:1034900003F0010402F5C07303EB00131C6002F596
:1034A000C07303EB00131B680C6843EA445402F535
:1034B000C07303EB00131C600B7903F00F030B7157
:1034C00002F5C07303EB00135B6823F00F0402F5F1
:1034D000C07303EB00135C6002F5C07303EB0013D1
:1034E0005B680C79234302F5C07404EB001463603D
:1034F0000B7A1C06CB7944EA03448B7944EA032314
:103500004C79234302F5C07404EB0014A3600B7BD9
:103510001C06CB7A44EA03448B7A44EA03234C7AB0
:10352000234302F5C07404EB0014E36002F5C0739A
:1035300003EB00131B6843F0010402F5C07303EBB7
:1035400000131C6010BD2DE9F04104460E46002713
:1035500000F074FB074657480568A6740020E06138
:103560005448006830B100E0ED69E8690028FBD1FB
:10357000EC6101E04F480460384600F063FB012035
:10358000BDE8F08170B548480830006800F0806000
:10359000B0F1806F00D070BD47480068002844D06B
:1035A000454804680068407C012808D121463E480F
:1035B000FFF74CFF00204049096848743DE03E4851
:1035C0000068406985B23C480068007C0F2806D03E
:1035D00039480068007C401E374909680874A5F521
:1035E0007F40FF3818D134480068007CA0B93248C9
:1035F0000068C0693049086001212046FFF7A3FF39
:103600002D48006808B1012000E000200246012199
:103610002548FDF7D7FA10E0681C28490860002209
:1036200001212148FDF7CEFA07E01F48FFF7AAFE67
:10363000002201211C48FDF7C5FA00BFABE710B519
:103640001D4804681D48006860B31C480068A0F568
:103650007F41FF3926D019480068401E174908608D
:1036600008460068F0B914480068007C40B9124868
:103670000068C0691049086000212046FFF763FF19
:103680000D48006818B101200B49096848740A48C0
:10369000006808B1012000E0002002460121024834
:1036A000FDF790FA10BD0000006400403C000020CF
:1036B0000008014044000020400000204C00002091
:1036C00010B501F0E2FCFFF75DFF01F0ECFC10BD6E
:1036D00070B504460026FE48056800F0AFFA0646BD
:1036E0002068C0F30300FA4909680968C1F30301BF
:1036F000884217D1F6480068C069F5490860012181
:103700002846FFF720FF4FF6FF70F2490860F048A7
:10371000006808B1012000E0002002460121EE48C7
:10372000FDF750FA304600F08DFA70BD1FB5069CCB
:103730009DE80F0084E80F0001206074009800F0FD
:103740000F00082836D2DFE800F0040D151D1E1FFB
:10375000262D0F2020744FF4FA6060614FF6FF7041
:10376000A06128E0012020744FF6FF7060611420F2
:10377000A06120E0012020744FF6FF7060613220CC
:10378000A06118E000BF00BF012020744FF6FF7059
:103790006061A0610FE0012020744FF6FF7060614E
:1037A000A06108E005202074322060614FF6FF70B0
:1037B000A06100E000BF00BF1FBD2DE9FF4383B043
:1037C000002500240027A146A04602A9C34800689E
:1037D00002F064FC060007D19DF808005D2803D1C3
:1037E000404607B0BDE8F083009603A80FC8FFF776
:1037F0009DFFB7480468354600F020FA8146B4487A
:10380000006840B301E02746E469039821688842D4
:1038100002D3E0690028F6D103982168884216D2C5
:10382000AB480068A0420FD1A94800680090A848A2
:1038300000680FC8FFF77AFFA5480560EC614FF6F6
:10384000FF70A44908600AE0FD61EC6107E0E561F2
:103850000020E86103E09E4805600020E8619D4883
:103860000068A0F57F41FF3902D09A48006820B96E
:10387000012211469848FDF7A5F94FF00108484686
:1038800000F0E0F94046ACE708B56B46202211464F
:10389000934802F0A7FB914908609DF8000050B9D9
:1038A0004FF6FF708B4908600020894908608D49F8
:1038B00008608D49086008BD70B50446002600F018
:1038C000BDF9064688480568006830B100E02D69FA
:1038D00028690028FBD12C6101E083480460304650
:1038E00000F0B0F970BD2DE9F04105460F464FF0EC
:1038F00000082C4600F0A2F9804634B12646E4695F
:103900003146384602F036FC00E00024404600F024
:1039100099F92046BDE8F0812DE9F04105460E46B3
:103920004FF000086A48046807680068D8B101E0F1
:103930002746E469A54202D0E0690028F8D1E06991
:1039400010B94FF090080EE061480068844203D13E
:103950005F49E069086001E0E069F86121463046AE
:1039600002F008FC80464046BDE8F08130B589B0E1
:1039700008A95A48006802F091FB050005D19DF89E
:1039800020005D2801D109B030BD6A4600215248AF
:10399000FCF7FDFF009828609DF80A0028710024BC
:1039A00006E00DF10B00015D681D0155601C84B23D
:1039B0009DF80A00A042F4DC002028612846FFF7A9
:1039C0007BFF05A94948006803F057FB9DF81E00DE
:1039D00050B147480078401C45490870434800688A
:1039E00003F01CFB01F05FFB00BFCCE770B50446A1
:1039F00020780C280BDB60780511A07840EA0525BB
:103A000020780C38C1B22846FFF7E9F803E0617866
:103A10002078FFF7A5F870BD70B506460820307114
:103A20003448006840F00200306000253AE000248D
:103A30002AE0042000FB05402F4901EBC00040783C
:103A4000C001042101FB05412B4A02EBC101897829
:103A500040EA0110042101FB054102EBC101C988C4
:103A600040EA2120C1B2701D00F81410042000FBB0
:103A70000540114601EBC000C088C2B26000401C86
:103A8000711D0A54601CC4B2042CD2DB19480068B2
:103A900040F002002844306096E80F00FFF78DFEEA
:103AA000681CC5B2042DC2DB70BD10B50E48046899
:103AB000006800287ED00C480068006810F00F00F5
:103AC0001CD0012844D007285FD00F2866D154E0CD
:103AD000400000204C000020006400405000002006
:103AE0004809002044000020480000203400002045
:103AF000710000203C000020880200204748006838
:103B0000FFF7E6FD142245480168454804F05BF9DB
:103B1000FFF743F841480068401DFFF781FA3F482E
:103B200000680830FEF7D0FE3E48006840F006000E
:103B30003A4909680860394800680FC8FFF73DFE38
:103B40003948006803F06AFA01203849086026E025
:103B50003648006880B131480068401DFFF746FFD5
:103B60003048006840F001002C49096808602B4883
:103B700000680FC8FFF721FE11E02C48006818B15B
:103B800026480068FFF748FF09E02848006818B198
:103B900022480068FFF79CFD01E00BE000BF00BF7A
:103BA0001E48006800691D490860214620480068D9
:103BB00002F0E0FA10BD10B5002400F03FF8044612
:103BC00024E01C480068006800F00F00082813D2A9
:103BD000DFE800F0120405060708120900BF00BF65
:103BE00000BF00BF00BF13480068807C18B91248AE
:103BF000006803F013FA00E000BF00BF0C48016842
:103C00000C480068FFF76FFE0A4908600948006821
:103C10000028D6D1204600F015F810BD480000203D
:103C2000480D00203C0000202C000020380000201F
:103C3000500000204400002030000020EFF31080EE
:103C400072B6704780F3108870471E484FF080515D
:103C5000016070471B484FF08051016070471A485F
:103C60004FF0FF010170002080F3098817480121FF
:103C7000017014484FF08051016062B6FEE772B6E1
:103C8000704762B67047EFF3098028B1203880E8AA
:103C9000F00F0F490968086000B50E4880475DF8CD
:103CA00004EB0D480D490A78027009480C490A686E
:103CB0000260106890E8F00F203080F309884EF021
:103CC000040E704704ED00E022ED00E07E000020CD
:103CD00084000020913D0008730000207400002043
:103CE0008C00002000204B490880704770477047C7
:103CF00070477047704770B5044610464FF08075A6
:103D00000560051F28462C606FF00106051F284638
:103D10002E604FF01236051F28462E604FF00336F6
:103D2000051F28462E604FF00236051F28462E60DC
:103D30007610051F28462E60051F284629604FF083
:103D40001136051F28462E604FF01036051F2846F5
:103D50002E604FF00936051F28462E604FF00836BA
:103D6000051F28462E604FF00736051F28462E6097
:103D70004FF00636051F28462E604FF00536051F0A
:103D800028462E604FF00436051F28462E6070BD71
:103D90007047704710B51F480088401C1D490880B7
:103DA00008460088642803D30020088003F0FCFF45
:103DB00010BD00BF704770B586B001A8FDF7ABFB22
:103DC0004FF47A710298B0FBF1F42146B1F1807F93
:103DD00000D31DE021F07F40401E4FF0E0225061F3
:103DE00050170F22002807DA13071E0E0A4B00F0A7
:103DF0000F052D1F5E5503E013071D0E074B1D54C5
:103E000000BF00204FF0E02290610720106100BF4A
:103E100006B070BD5400002018ED00E000E400E0A2
:103E20000146002002E0491C421CD0B20A78002A58
:103E3000F9D170472DE9F04105460E46144600279A
:103E400025B9042020700020BDE8F0811EB90C20A7
:103E500020700020F8E7FE48007818B1112020708B
:103E60000020F1E72878012808D0022807D003288D
:103E700002D0042804D100E000BF00BF00BF03E06F
:103E8000012020700020DFE700BFFFF7D7FE0746C4
:103E9000686930603068FFF7C3FF80463846FFF737
:103EA000D1FE002020704046CEE72DE9F0410546C6
:103EB0000E46144600271DB904202070BDE8F0818D
:103EC00016B90C202070F9E7E148007810B11220F3
:103ED0002070F3E72878012808D0022807D00328AB
:103EE00002D0042804D100E000BF00BF00BF02E000
:103EF00001202070E2E700BFFFF7A0FE07466E61D9
:103F00003846FFF79FFE0020207000BFD6E7F0B5CF
:103F1000024612F8384F95785678A2F138020B46CF
:103F2000186819E000F10B073F5D6FEA060C0CF012
:103F3000FF0C07EA0C0700F10B0C0CF80470674645
:103F40003F5D3FB9877A6FEA050C0CF0FF0C07EA7A
:103F50000C0787721B1D18680028E3D1F0BDBD490E
:103F6000BD4A1278885CBD49095CBA4A515C01EBD4
:103F7000C001BB4A1170704710B50024FFF75EFE08
:103F80000446B3480078F8B9B6480078E0B9FFF7BE
:103F9000E6FFB548B249097850F82100B3490860F6
:103FA000AF480078B249097888420DD0AF48006820
:103FB000C06B401CAD490968C863AE480068401C2E
:103FC000AC490860FFF741FE2046FFF73BFE10BDFD
:103FD00070B501460024A84D2D68EC61A64C2468FC
:103FE00021620B4618681BE0A34C246894F83850F3
:103FF00000F10B04645DA04D2D6895F839502C43F9
:104000009D4D2D6895F8386000F10B05AC55847A0C
:10401000994D2D6895F83A502C4384721B1D1868F1
:104020000028E1D1944C246894F838208B4CA45C8F
:10403000914D2D6895F83950ED43EDB22C40874DE8
:10404000AC542C46A45C54B98B4C246894F83A4088
:10405000E443E4B2804D2D782C407F4D2C7070BD30
:104060002DE9FF4F83B081460E461546109F002074
:104070000090B9F1000F05D104203870002007B07E
:10408000BDE8F08FD9F8000018B90420387000207E
:10409000F5E71EB9042038700020F0E71DB90420B0
:1040A00038700020EBE700203060CA46DAF80040A4
:1040B00015E02078062807D2DFE800F006040503A3
:1040C000070807E006E005E000BF00BF01203870E8
:1040D0000020D4E700BF0AF1040ADAF80040002CFF
:1040E000E7D15B48007818B1022038700020C6E79D
:1040F0005C48007818B10D2038700020BFE7FFF74A
:104100009DFD00900020029083460190CA46DAF897
:10411000004066E02078062853D2DFE800F052170E
:104120002A035354208960B12089401E208110C683
:1041300001200290002001C50BF101001FFA80FB55
:1041400003E0019840F00100019045E0606858B13B
:10415000606801C50020606010C6012002900BF16C
:1041600001001FFA80FB03E0019840F0020001907B
:1041700032E0D4F80480B8F81600E8B1D8F810108E
:10418000081DC8F81000086801C5D8F80810D8F84C
:104190001000884203D1D8F80400C8F81000B8F81D
:1041A0001600401EA8F8160010C6012002900BF160
:1041B00001001FFA80FB03E0019840F00400019029
:1041C0000AE000BF00BF0098FFF73CFD0020306010
:1041D00001203870584652E700BF0AF1040ADAF8A5
:1041E0000040002C96D10298012808D100203060B0
:1041F0000098FFF727FD0020387058463FE71E481B
:10420000006890F83400019941F0800108431A4990
:10421000096881F8340000201749096881F83500E1
:1042200015490698096808634846FFF7D1FE0098CB
:10423000FFF708FDFFF7A0FEFFF700FD00900E4816
:10424000006890F83500D8B1012832D0022815E076
:1042500071000020A67E0008750000207600002076
:1042600074000020720000209C1200208C000020AE
:1042700073000020580000208400002018D100E0C6
:1042800000BFFE480068C4693CB110C60020306021
:104290000BF101001FFA80FB09E00120F7490968D2
:1042A00081F835004946F5480068FFF730FE06E022
:1042B00000BF4946F1480068FFF729FE00BF00BF74
:1042C000EE48006890F8350020B1012828D0022877
:1042D00025D11FE0207806280DD2DFE800F00C067B
:1042E00007030D0E002001C510E000BFE348006881
:1042F000406A01C50AE000BF00BF0098FFF7A2FCBA
:1043000000203060012038705846B8E600BF002019
:1043100038700AE0002001C50E20387005E000BFAB
:10432000002001C50A20387000BF00BF0020D3491B
:10433000096881F83400D149096881F83500CF490E
:104340000968C861CD4909680862CC4909684862B2
:104350000098FFF777FC584691E62DE9F0410546B5
:104360000F4614464FF000083F2D05D9FF2D03D00E
:104370002A202070BDE8F08117B90C202070F9E7E1
:10438000BF48007810B112202070F3E7FFF756FC09
:104390008046FF2D03D1B948006890F83650B948DF
:1043A00050F825602EB94046FFF74CFC43202070A2
:1043B000E0E7012E05D14046FFF744FC4320207082
:1043C000D8E737654046FFF73DFC0020207000BF6E
:1043D000D0E710B50024AC480078012821D1FFF7C0
:1043E0002DFC0446A9480078C0B1A8480078401EBA
:1043F000A64908700846007860B9A148007828B935
:104400002046FFF71FFCFFF7B7FD0AE02046FFF745
:1044100019FC06E02046FFF715FC02E02046FFF7F6
:1044200011FC10BD70B50B46032580F82550012BFB
:1044300005D1974EC5693668354445610CE08569FC
:104440002DB9934EC56936683544456104E0904EF8
:104450008569366835444561456905F007048D4D29
:1044600005EBC4010D682DB908600025C560012564
:104470008D8006E00A680860C26010618D886D1C3E
:104480008D800025056170BD30B5456905F00704D4
:10449000804D05EBC4031D68854205D1C1681960D4
:1044A00039B100250D6104E00169C268CA6002B13A
:1044B0001161012580F825500025C56005619D88A2
:1044C0006D1E9D8030BD10B500246F480078012816
:1044D00011D1FFF7B3FB04466948007840B96B4837
:1044E0000078FF2804D269480078401C67490870AA
:1044F0002046FFF7A7FB10BD10B590F8382001F15A
:104500000B039B5C90F83940E443E4B2234001F193
:104510000B04A35423469B5C33B98B7A90F83A4042
:10452000E443E4B223408B7210BD10B5534A1268C5
:10453000D061524A126892F8383000F10B02D25C16
:104540004E4B1B6893F839301A434C4B1B6893F859
:10455000384000F10B031A55827A484B1B6893F8D8
:104560003A301A438272454A126892F838104A4A21
:10457000525C424B1B6893F83930DB43DBB21A4084
:10458000454B5A541A46525C52B93C4A126892F84A
:104590003A20D243D2B2414B1B781A403F4B1A709B
:1045A00010BD2DE9F04105460E46144600271DB901
:1045B00004202070BDE8F0812878032802D0012073
:1045C0002070F7E72E48007810B102202070F1E744
:1045D0002E48007810B10D202070EBE7FFF72EFB7E
:1045E0000746288940B12889401E28813846FFF7B0
:1045F00029FB00202070DDE72048006890F8340097
:1046000040F001001D49096881F8340000201B4971
:10461000096881F835001948006806632846FFF7E5
:1046200084FF3846FFF70EFBFFF7A6FCFFF706FBFB
:1046300007461248006890F8350020B1012809D0DB
:10464000022806D102E0002020700BE00E2020702E
:1046500008E000BF294609480068FFF74DFF0A201F
:10466000207000BF00BF00200449096881F83400B1
:104670000249096881F83500004911E084000020F2
:10468000710000209C1200207E000020720000209B
:10469000A800002084200020760000207500002063
:1046A0000968C861F649096808623846FFF7CAFA1E
:1046B00000BF7FE708B500BF00BF6A460021F14890
:1046C0000068FFF76EFFFFF7FEFEEF480068401C32
:1046D000ED4908600846006800F00708EB4800EB69
:1046E000C8073C681AE0E668E749606909688842DB
:1046F00013D12046FFF7C8FE94F82400022804D105
:1047000001212046FFF78EFE02E0022084F82500FA
:10471000656815B12046A168A8473446002CE2D14F
:10472000FFF757FEC9E72DE9F84F05460F469046BB
:104730009946DDE90AAB00200090FFF77FFA009070
:10474000D3480468002C7CD004F11C0454F8080CF5
:10475000CF4908600098FFF775FA44F81C7CA576ED
:10476000002020766076606144F818BC44F810ACF4
:1047700044F8148C0C9824F80C0C24F80A9C0020A3
:10478000E077E810207705F00700E076217F012030
:104790008840A077E17E012088406077002020607B
:1047A0006060E060A0602062A0626062E0622063FE
:1047B000B8A06063A4F11C044FF0000606E00021DD
:1047C00004F1540040F82610701CC6B2002EF6D03A
:1047D0002046FFF7DEFA2046FFF789FAFFF72EFAA8
:1047E0000090AD4840F82540AC480068606100206A
:1047F000A061AA48006810B1A84800688461A74871
:10480000046004F13804A078A549097840EA010061
:10481000A34908702078A349085C617840EA010048
:1048200014F838199F4A50549F48007800F101004D
:104830009D4908700098FFF705FA0020BDE8F88F41
:10484000FFE70098FFF7FEF94220F7E712F0010FAB
:1048500008D012F0020F05D002E0491E002308C064
:104860000029FAD170472DE9F04F85B081468A467C
:1048700093461C46DDE90F78129D002003903F2CE3
:1048800003D92A2005B0BDE8F08FFFF7D7F90390D0
:104890008648007820B10398FFF7D4F93C20F1E76F
:1048A0007D4850F8240088BB01207B4941F8240052
:1048B0000398FFF7C7F92A4641463846FFF7C6FF77
:1048C0002B465A4651464846FFF715FA0490119870
:1048D000CDE9008002953A4620460E9B0499FFF7E9
:1048E00022FF064636B97248007801280CD1FFF73E
:1048F00043FB09E0FFF7A2F903900020664941F865
:1049000024000398FFF79EF93046BBE7FFE70398C2
:10491000FFF798F92820B5E700B587B003200021FC
:104920008022644BCDE90132CDE903104FF6FD70D2
:104930003223614A00906148FFF795FF06AA60A103
:104940003220FFF70AFD07B000BD014600228A723F
:10495000002005E0002301F10B021354421CD0B2E9
:104960000828F7D3704770B5054600264F480078F1
:1049700008B1002070BDFFF761F90646544804688D
:10498000006820B1524800684068514908603046CC
:10499000FFF758F94CB1032020702581002060609A
:1049A0003CA060612046FFF7D0FF2046E2E704E02C
:1049B000002200F8012B4A1E91B20029F8D170475D
:1049C000F8B54FF420714348FFF7F1FF40212F481D
:1049D000FFF7EDFF002514E0681C86B205EB8500AB
:1049E0003C4901EBC00406EB860001EBC0076420E4
:1049F0002070002084F82500E76026A02062681C53
:104A000085B20F2DE8D305EB8500324901EBC004D8
:104A100064202070002084F82500E0601DA0206242
:104A20000020194908602C49088010202B49088073
:104A300028482B4908600120FFF795FF29490860A5
:104A40000020FFF790FF0F4908606A4626A125481D
:104A50000068FFF72AFA6A4628A10A480068FFF7AB
:104A600024FAFFF759FFF8BD70B5054600260F4838
:104A7000007800B170BD2648007800B1FAE749E03F
:104A800084000020B0000020A80000208420002026
:104A9000880000203F0000009C12002090000020B1
:104AA00075000020760000207F00002071000020AB
:104AB0007E000020841E002080200020B5460008D3
:104AC00075432F4F532D494920546D72000000004B
:104AD0005C000020041C0020A6000020A400002090
:104AE000B4000020AC00002075432F4F532D4949DE
:104AF00020546D724C6F636B0000000075432F4FA4
:104B0000532D494920546D725369676E616C0000E2
:104B1000720000203DB3FFF791F80646FE4800689A
:104B200090F83840FD48005DFB49096891F839105C
:104B3000C943C9B20840F94908550846005D50B953
:104B4000F548006890F83A00C043C0B2F4490978CB
:104B50000840F3490870F048006805633046FFF7E5
:104B600071F8FFF709FA00BF84E72DE9F047064620
:104B70000C464FF0000A3F2E04D9FF2E02D02A2007
:104B8000BDE8F0870CB90920FAE7002020606060DA
:104B9000FFF754F88246FF2E03D1DF48006890F8F3
:104BA0003660E04850F8265025B95046FFF74AF8DD
:104BB0004320E5E7012D04D15046FFF743F8432099
:104BC000DEE7288A10F0010F04D15046FFF73AF8CB
:104BD0004520D5E70027D5F80C90D5F80880504639
:104BE000FFF730F800E07F1C58F8041B0029FAD0CA
:104BF000B8002060A9EB0700800060600020BFE7DC
:104C00007CB5002514E069462846FFF7AEFF06464E
:104C100066B9C44850F8254044B1012C06D0D4E907
:104C2000020100EB8100A0640198E064681CC5B239
:104C30003F2DE8D97CBD2DE9F04105464FF0000835
:104C40003F2D02D14720BDE8F0813F2D03D3FF2D3A
:104C500001D02A20F7E7FEF7F1FF8046FF2D05D1AE
:104C6000AD48006890F83650012608E0AA48006870
:104C700090F83600A84201D1012600E00026A9489C
:104C800050F8254024B94046FEF7DCFF4820DAE71B
:104C9000012C04D14046FEF7D5FF4320D3E794F81A
:104CA00038709E48C05D94F83910C943C9B20840B5
:104CB0009A49C8550846C05D40B994F83A00C043C7
:104CC000C0B29749097808409549087094F83400B3
:104CD00040F0080084F834004046FEF7B3FF012E90
:104CE00001D1FFF749F90020ADE7002400BF02E041
:104CF000C820FFF7B9FE8C4800780028F8D08B4810
:104D000000686421B0FBF1F088490860084600683B
:104D100028B9002086490870FF20FFF78CFF00BFEC
:104D2000FEF78CFF04468348006883490860002032
:104D3000804908602046FEF785FF7F4800687B4970
:104D40000968B0FBF1F0C0F1640079490870FEF722
:104D5000D1FFFFF755FF6420FFF786FEE0E700B5BF
:104D600087B0032000218022744BCDE90132CDE9C8
:104D700003104FF6FE703E23714A0090AFF295008B
:104D8000FFF771FD06AA6FA13E20FFF7E6FA07B014
:104D900000BD002400BF00BFFEF750FF0446654879
:104DA0000068401C634908602046FEF74BFFFEF791
:104DB000A0FFF1E700B587B0032000218022654BFA
:104DC000CDE90132CDE903104FF6FF703F23624A6F
:104DD0000090AFF24100FFF746FD06AA5FA13F2019
:104DE000FFF7BBFA07B000BD70B560215F48FFF761
:104DF000DEFD00230DE0581C85B203EB43005B4948
:104E000001EBC00405EB450001EBC0062660581C11
:104E100083B2032BEFD303EB4300544901EBC004EF
:104E20000020206008465249086070BD10B5782106
:104E30005048FFF7BCFD00230FE003EB43004D4952
:104E400001EBC004581C00EB400001EBC0006060A7
:104E5000AFF2C0306061581C83B2042BEDD303EB7A
:104E60004300444901EBC00400206060AFF2DC3035
:104E7000606108464049086010BD70B550213F4848
:104E8000FFF795FD00240EE0601C85B23B4800EB67
:104E9000041300EB0516002018705E60AFF20C40A2
:104EA000D860601C84B2042CEED3344800EB0413A9
:104EB000002018705860AFF22440D8602F48304965
:104EC000086070BD70B5F0212E48FFF770FD00241A
:104ED00012E0601C85B204EB44002A4901EBC003D8
:104EE00005EB450001EBC006002018705E60AFF2D4
:104EF0005C405861601C84B2092CEAD304EB440086
:104F0000204901EBC003002018705860AFF27C40CC
:104F1000586108461C4939E08400002076000020D2
:104F2000750000209C120020700000206800002006
:104F300064000020800000206C0000209C0E0020F7
:104F40009810002075432F4F532D49492053746109
:104F5000740000009C1000209812002075432F4F11
:104F6000532D49492049646C65000000A41B0020B2
:104F70009C0000202C1B0020980000204C0E0020DC
:104F8000600000205C0D00205C000020086070BD07
:104F900070B54FF4F261FC48FFF709FD4FF48071E2
:104FA000FA48FFF704FD002414E0601CC5B204EBCE
:104FB000440000EBC400F44901EBC00305EB4500DD
:104FC00000EBC50001EBC0065E61AFF2385018651A
:104FD000601CC4B2152CE8D304EB440000EBC40001
:104FE000E94901EBC00300205861AFF25850186541
:104FF0000020E7490860E448E649086070BD0021E8
:10500000E54A1170002004E00021E44A1154411CDB
:10501000C8B20828F8D30021E14A1170E14A1170A2
:10502000E14A1160E14A116070470020E0490860E0
:10503000E0490870E0490870E0490870E0490870EC
:10504000E0490860E0490860E0490860E04908601C
:10505000E0490870704710B5FEF744FEFFF7E5FF22
:10506000FFF7CDFFFFF794FFFFF72CFFFFF705FFDA
:10507000FFF7DCFEFFF7B8FEFFF79CFEFFF76FFEC1
:10508000FFF79EFCFEF732FE10BDCD4800780128E8
:1050900008D1C8480078FF2804D2C6480078401CD0
:1050A000C4490870704710B50024C548007801282D
:1050B00030D1FEF7C3FD0446BE48007820B1BD489C
:1050C0000078401EBB490870BA480078F8B9BA4861
:1050D0000078E0B9FEF743FFAC48B249097850F8D0
:1050E0002100B1490860AF480078AD49097888428D
:1050F0000DD0AD480068C06B401CAB490968C8635F
:10510000B0480068401CAF490860FEF7A3FD204688
:10511000FEF798FD10BD10B5A948007890B9FEF7CC
:105120001EFFA04800789E49087098489D4909785C
:1051300050F821009C490860084600689B490860B7
:10514000FEF78DFD10BD10B500240220FFF78CFC8A
:10515000FEF774FD044600209B4908602046FEF7D8
:1051600071FD6420FFF780FCFEF768FD0446964859
:105170000068974908600120964908702046FEF7AC
:1051800061FD10BD70B50026FEF704FEFEF756FD6A
:10519000064687480068401C854908603046FEF78F
:1051A00051FD87480078012857D18B48007820B1FD
:1051B000012804D0022809D103E001250BE00025D5
:1051C00009E0012501208449087004E00125002040
:1051D0008149087000BF00BF05B970BD6C48046804
:1051E00037E0FEF72BFD0646206B70B3206B401EA8
:1051F0002063206B48BB94F8340010F0370F09D0BF
:1052000014F8340F00F0C800207001206070A4F181
:10521000340402E0002084F8350094F8340010F0E3
:10522000080F12D104F13804A0785B49097840EAEC
:1052300001005949087020785849085C617840EAB3
:10524000010014F83819554A505464693046FEF785
:10525000F9FC94F836003F28C3D100BFBDE740F207
:105260002310704770472DE9F04F05460F469046D2
:105270009946A87A59490E5C05F10B00805D11F83A
:1052800000B00BEBC60000F0FF0A404850F82A407F
:10529000002004F12404E0602760207C6FEA08010C
:1052A000C9B200EA0100207484F81190207CA4F1B6
:1052B000240410F0080F0DD194F83A00364909780B
:1052C0000843354908703548805D94F83910084323
:1052D0003249885529462046FFF70EF9206A20B149
:1052E0002046216AFEF713FEE5615046BDE8F08FC7
:1052F00005E011F8013B00F8013B531E9AB2002A69
:10530000F7D170472DE9F05F04460F4691461E46DF
:105310004FF0000B24B96E2030700020BDE8F09FE4
:105320002078052803D0012030700020F6E709F02E
:10533000800ABAF1000F04D029F080094FF001086B
:1053400001E04FF0000800203070FEF777FC834644
:10535000B9F1000F5DD0B9F1010F70D0B9F1020FB2
:1053600003D0B9F1030F7DD140E0208900EA0705A1
:10537000BD4235D1B8F1010F34D12089E94389B25A
:10538000084020812EE000009C1300209C12002089
:10539000900000208800002075000020760000208A
:1053A00073000020740000208C0000208400002086
:1053B000A000002071000020720000207F0000206B
:1053C0007E00002058000020800000206C0000209B
:1053D000680000207000002094000020A67E0008D5
:1053E000702030705846FEF72DFC42E0208900EA1C
:1053F000070545B1B8F1010F07D12089E94389B20A
:105400000840208101E0702030705846FEF71AFCF9
:105410002FE02089C04380B200EA0705BD4206D1D3
:10542000B8F1010F05D120892843208101E07020C7
:1054300030705846FEF706FC1BE000E012E02089C1
:10544000C04380B200EA070535B1B8F1010F05D1BC
:1054500020892843208101E0702030705846FEF7F3
:10546000F1FB06E05846FEF7EDFB00256F2030709B
:1054700000BF00BF284651E72DE9F04106460D4622
:105480000027F748007820B1102028700020BDE8E0
:10549000F081FEF7D3FB0746F24804688CB1006840
:1054A0004068F04908600520207026810020606077
:1054B000AFF62020E0603846FEF7C4FB00202870DD
:1054C00004E03846FEF7BEFB722028702046DEE777
:1054D00030B501464A6808682AB9CC68606028B1CE
:1054E0000025456002E0106000B142608B68002535
:1054F0009D6230BDF0B506460F46B468002004F149
:105500002C0460602780207A00F0DF0020724FF0CA
:1055100000006072207AA4F12C04A8B904F13804C8
:10552000A078D149097840EA0100CF490870207875
:10553000CE49085C617840EA010014F83819CB4A7A
:1055400050544FF0010500E000253046FFF7C0FF42
:105550002846F0BD2DE9F0470446894615464FF030
:10556000000A24B96E2028702046BDE8F087BC48A8
:10557000007818B10F2028702046F6E7207805281B
:1055800003D0012028702046EFE7FEF757FB824644
:10559000606808B1012700E00027B9F1000F03D0CF
:1055A000B9F1010F3ED11AE097B9AFF61830E060BB
:1055B00000202070AB480068606000202081A9486E
:1055C00004605046FEF73EFB00202870002605E0F0
:1055D0005046FEF737FB49202870264629E0D4F8CC
:1055E000048005E000214046FFF784FFD8F80080E2
:1055F000B8F1000FF6D1AFF66430E0600020207003
:1056000098480068606000202081964804605046F9
:10561000FEF718FB012F01D1FEF7AEFC0020287029
:10562000002606E05046FEF70DFB072028702646B0
:1056300000BF00BF304698E72DE9F04105460E4611
:105640001446002725B96E2020700020BDE8F081A7
:105650001EB90C2020700020F8E78148007818B1AE
:10566000112020700020F1E7FEF7E8FA07462878BD
:10567000052806D03846FEF7E5FA01202070002004
:10568000E4E7E86830603068FEF7CAFB80463846D9
:10569000FEF7D8FA002020704046D7E72DE9F04108
:1056A00005460E46144600271DB96E202070BDE841
:1056B000F08116B90C202070F9E76948007810B124
:1056C00012202070F3E7FEF7B9FA0746287805287C
:1056D00005D03846FEF7B6FA01202070E7E7EE6005
:1056E0003846FEF7AFFA0020207000BFDFE7F0B5C4
:1056F0001446059E5E4F3F6897F8347047F02007C8
:10570000DFF86CC1DCF800C08CF834700027DFF8DB
:1057100060C1DCF800C08CF83570554F3F683E63BF
:10572000534F3F68B9620C828B74514F3F688F6052
:1057300047680F6000274F60C860456805B1696021
:1057400041604B4F3F6897F83820484FBF5CDFF807
:1057500020C1DCF800C09CF839C06FEA0C0C0CF0DA
:10576000FF0C07EA0C07DFF804C10CF8027067466B
:10577000BF5C7FB93E4F3F6897F83A70FF43FFB276
:10578000DFF8E4C09CF800C007EA0C07DFF8D8C0D7
:105790008CF80070F0BD2DE9F04F89B005460F463A
:1057A00091469A46129E002002902DB96E203070CC
:1057B000002009B0BDE8F08F2948007818B1022018
:1057C00030700020F5E72B48007818B10D203070BC
:1057D0000020EEE72878052803D001203070002053
:1057E000E7E709F0800BBBF1000F04D009F07F0957
:1057F0004FF0010801E04FF00008FEF71FFA029099
:10580000B9F1000F5AD0B9F1010F7CD0B9F1020FF4
:1058100003D0B9F1030F69D12EE0288900EA07040B
:10582000BC4211D1B8F1010F04D12889E14389B2FA
:10583000084028810E48006884850298FEF702FA25
:10584000002030702046B4E74B463A4604A928466B
:10585000CDF800A0FFF74BFF0298FEF7F3F97CE0CC
:1058600071000020600000207500002076000020FC
:105870008400002072000020288900EA07048CB10F
:10588000B8F1010F04D12889E14389B20840288189
:10589000F748006884850298FEF7D4F9002030703C
:1058A000204686E74B463A4604A92846CDF800A094
:1058B000FFF71DFF0298FEF7C5F94EE02889C043A7
:1058C00080B200EA0704BC4211D1B8F1010F02D145
:1058D000288920432881E648006884850298FEF7DD
:1058E000B1F900203070204663E70CE02DE04B4614
:1058F0003A4604A92846CDF800A0FFF7F8FE029822
:10590000FEF7A0F929E02889C04380B200EA070425
:105910007CB1B8F1010F02D1288920432881D448F5
:10592000006884850298FEF78DF9002030702046CB
:105930003FE74B463A4604A92846CDF800A0FFF7BA
:10594000D6FE0298FEF77EF907E00298FEF77AF994
:1059500000246F20307020462BE700BFFEF70CFBC1
:10596000FEF76CF90290C248006890F8350020B349
:10597000BF48006890F8350003900020BC490968D2
:1059800081F8350004A8FFF7A3FD0020B849096895
:1059900081F834000298FEF755F900240398012895
:1059A00005D0022802D10E20307003E000BF0A208B
:1059B000307000BF00BF2046FBE6AD480068848D14
:1059C000B8F1010F20D1B9F1000F10D0B9F1010FDA
:1059D0000ED0B9F1020F03D0B9F1030F0CD100E0E2
:1059E00000BF2889E14389B2084028810BE000BF4D
:1059F00028892043288106E00298FEF723F96F20CA
:105A000030700020D5E600BF0298FEF71BF9002099
:105A100030702046CDE670B50025FEF70FF905463B
:105A200093480068848D2846FEF70CF9204670BD27
:105A30002DE9FC5F0446894692461E4600200090F0
:105A400024B96E2030700020BDE8FC9F2078052826
:105A500003D0012030700020F6E7FEF7EFF8009049
:105A6000BAF1000F03D0BAF1010F0CD106E0208982
:105A70006FEA090189B2084020810BE0208940EAE1
:105A80000900208106E00098FEF7DCF871203070F4
:105A90000020D9E700BF4FF0000B656859E0A87CF3
:105AA00040B301283AD0022802D0032848D111E09F
:105AB0002089298A00EA0107288AB84209D1394693
:105AC0002846FFF717FD8046B8F1010F01D14FF0CE
:105AD000010B3CE02089298A00EA01074FB13946D1
