:020000040800F2
:10000000D8B7002015040008590D00085B0D000842
:100010005D0D00085F0D0008610D00080000000084
:10002000000000000000000000000000630D000858
:10003000650D000800000000670D00086B0D00084A
:100040002F0400082F0400082F0400082F040008C4
:100050002F0400082F0400082F0400082F040008B4
:100060002F0400082F0400082F0400082F040008A4
:100070002F0400082F0400082F0400082F04000894
:100080002F0400082F0400082F0400082F04000884
:100090002F0400082F0400082F0400082F04000874
:1000A0002F0400082F0400082F0400082F04000864
:1000B0002F0400082F0400082F0400082F04000854
:1000C0002F0400082F0400082F0400082F04000844
:1000D0002F0400082F0400082F0400082F04000834
:1000E0002F0400082F0400082F040008000000005F
:1000F0000000000000000000000000000000000000
:1001000000000000000000002F0400082F04000879
:100110002F0400082F0400082F0400082F040008F3
:100120002F0400082F0400082F0400082F040008E3
:100130002F0400082F0400082F0400082F040008D3
:100140002F0400082F0400082F0400082F040008C3
:1001500000F002F800F060F80AA090E8000C824479
:100160008344AAF10107DA4501D100F055F8AFF256
:10017000090EBAE80F0013F0010F18BFFB1A43F085
:1001800001031847F8FB020018FC02000A444FF074
:10019000000C10F8013B13F0070408BF10F8014BE6
:1001A0001D1108BF10F8015B641E05D010F8016B2B
:1001B000641E01F8016BF9D113F0080F1EBF10F88F
:1001C000014BAD1C0C1B09D16D1E58BF01F801CBB2
:1001D000FAD505E014F8016B01F8016B6D1EF9D535
:1001E0009142D6D37047000000230024002500264A
:1001F000103A28BF78C1FBD8520728BF30C148BF8A
:100200000B607047002070471FB514F024FA12F0FD
:1002100048FB1FBD10B510BD12F052FD1146FFF78F
:10022000F3FF00F07DFE12F070FD03B4FFF7F2FF64
:1002300003BC00F083FE00000B49D1F800C04A68FF
:100240005CF8043B1068184442F8040B8C4528BF46
:10025000A1F1DC0C8A4228BFA1F1DC02C1F800C088
:100260004A6020F0004070476CB100205E480021D9
:10027000026842F4803202604FF4A063026801F128
:10028000010112F4003F01D19942F7D101688903BD
:100290003FD556490A6842F010020A600A6822F007
:1002A00003020A600A6842F002020A604168416083
:1002B00041684160416841F480614160C16A4C4AD3
:1002C0001140C162C16A4B4A1143C162016841F0E9
:1002D0008061016001680901FCD5416821F47C114D
:1002E0004160416841F4E8114160016841F080716A
:1002F000016001688901FCD5416821F0030141607A
:10030000416841F0020141604168C1F38101022965
:10031000FAD17047344810B5016841F0010101601D
:100320004168354A114041600168344A114001601A
:10033000016821F480210160416821F4FE014160DF
:10034000016821F0A05101604FF47F01816000211C
:10035000C162FFF78BFF2A494FF00060086010BDB3
:1003600070B521484168274B11F00C02264904D092
:10037000264C042A03D0082A03D00B6029E00C6025
:1003800027E04268436802F47012920C03F4803351
:100390000D2A01D0921C00E00622BBB1C36A13F4FF
:1003A000803FC36A03F00F0303F101030AD0C56A5B
:1003B000C66AC5F303156D1CB4FBF5F4C6F303263A
:1003C000B61C7443B4FBF3F35343D6E7104B5A43C4
:1003D0000A6040680C4AC0F30310121D105C0A68E2
:1003E000C2400A6070BD00000010024000200240C0
:1003F00000F0FEFF440601000000FFF0FFFFF6FEE4
:1004000008ED00E000127A000000002040787D0135
:1004100000093D000948804709480047FEE7FEE71C
:10042000FEE7FEE7FEE7FEE7FEE7FEE7FEE7FEE7A4
:1004300004480549054A064B7047000015030008AB
:1004400051010008D8B10020D8B70020D8B300204F
:10045000D8B30020904910B5884206D1012104206C
:1004600000F09BFA002104203BE08C49884206D131
:100470000121082000F091FA0021082031E088498C
:10048000884206D10121102000F087FA00211020B7
:1004900027E08449884206D10121202000F07DFA1E
:1004A000002120201DE08049884206D10121402002
:1004B00000F073FA0021402013E07C49884206D105
:1004C0000121802000F069FA0021802009E07849AC
:1004D00088420AD184150121204600F05EFA0021ED
:1004E0002046BDE8104000F058BA10BD10B50121FB
:1004F000084600F052FA0021BDE81040012000F04B
:100500004CBA2DE9F041CB78002503F00F02DB0651
:1005100001D58B781A430B884FF00F0813F0FF0FAB
:100520004FF0010C1BD004680E880CFA05F31E4036
:100530009E4210D1AF0008FA07F624EA060602FA36
:1005400007F43443CE78282E02D0482E02D002E0A1
:10055000436100E003616D1C082DE5D304600B8846
:10056000FF2B1DD94468002505F108060CFA06F397
:100570000E881E409E420FD1AF0008FA07F624EA0B
:10058000060602FA07F43443CE78282E00D14361E0
:10059000CE78482E00D103616D1C082DE4D3446051
:1005A000BDE8F0814FF6FF710180022181700421C6
:1005B000C17070470246002092680A4200D00120B4
:1005C0007047806880B2704702460020D2680A42B5
:1005D00000D001207047C06880B270470161704749
:1005E000416170470AB10161704741617047C16064
:1005F000704741F4803282618161826181698069E2
:1006000070472C4B10B51A684FF68074224042EAAE
:1006100000100843186010BD2749C8617047F0B545
:10062000244C002801DAE36900E06368420D1201FE
:1006300085B2C0F301579540C0F30346032F05D0A0
:10064000C2020AD50322B240934307E023F070624E
:10065000636823F07063636002E0AB4343F0706251
:1006600001B12A43002801DAE261F0BD6260F0BD09
:1006700010B58A0721F003040E49130F21440F22FD
:100680008C689A4094438C608A68984002438A60E0
:1006900010BD0A490860704700080140000C014085
:1006A000001001400014014000180140001C0140EE
:1006B000002001400000014000002042DC002042F8
:1006C000CC48016841F0010101604168CA4A11400B
:1006D00041600168C94A11400160016821F480212C
:1006E0000160416821F4FE014160016821F0A051E0
:1006F00001604FF47F0181600021C1627047BD49F4
:100700000A6822F480320A600A6822F480220A60B1
:10071000B0F5803F07D0B0F5802F03D1086840F4D2
:10072000A02008607047086840F48030F9E702466E
:1007300000205309AF49012B0AD0022B0AD0496A85
:1007400002F01F02012393400B4200D001207047AA
:100750000968F5E7096AF3E730B500244FF4A065AE
:100760003120FFF7E4FF641CAC4201D00028F7D031
:100770003120FFF7DCFF002800D0012030BD9D496B
:100780000A6822F0F80242EAC000086070479C49FB
:1007900008607047974A5368084323F4741318435A
:1007A00050607047964908667047924B10B5DA6AF8
:1007B000944C084322401043D86210BD8D4AD16A40
:1007C00021F0F0010143D16270478A4AD16A21F4D5
:1007D00070610143D1627047894988667047854AD4
:1007E000D16A21F470410143D1627047844908679E
:1007F0007047804A516821F00301014351607047FE
:100800007C48406800F00C0070477A4A516821F03B
:10081000F001014351607047764A516821F4E0616C
:1008200001435160704773494A6822F4605242EABA
:10083000C000486070476F4A0029517A01D00143D7
:1008400000E08143517270476F4908607047694A00
:10085000516821F440410143516070476B49086081
:1008600070476A49091D08607047694900220A708B
:1008700001F82029012802D0042802D1052081F89E
:10088000200070476349086070475A490A6A02436A
:100890000A6270475F4944390860704770B555492E
:1008A0004A685D4B12F00C0204D05C4D042A03D060
:1008B000082A03D0036029E0056027E04A684B68F6
:1008C00002F47012920C03F480330D2A01D0921CB2
:1008D00000E00622BBB1CB6ACC6A13F4803F04F07F
:1008E0000F0404F101040AD0CB6AC3F30316CB6AE8
:1008F000761CB5FBF6F5C3F303239B1C5D43B5FBE8
:10090000F4F35343D6E7464B5A4302604A68454BDB
:1009100002F0F00212099C5C0268E24042604C68FE
:1009200004F4E064240A1C5D22FA04F484604C6838
:1009300004F46054E40A1B5DDA40C2604968394B34
:1009400001F44041890B1B1F595CB2FBF1F10161BD
:1009500070BD284A0029516901D0014300E081435C
:1009600051617047234A0029916901D0014300E099
:100970008143916170471F4A0029D16901D0014329
:1009800000E08143D16170471A4A0029916A01D081
:10099000014300E0814391627047164A0029D16803
:1009A00001D0014300E08143D1607047114A002922
:1009B000116901D0014300E081431161704715497D
:1009C0004039086070470E49C86470470949C871CA
:1009D00070470848416A41F0807141627047054A9A
:1009E0000146002092680A4200D001207047014968
:1009F00088727047001002400000FFF0FFFFF6FE13
:100A000000004242F0FFFEFFD8004242C4054242CD
:100A1000201002408004424200127A0040787D019A
:100A200000093D0018000020C64910B588420AD1CF
:100A300001218C032046FFF7B0FF2046BDE810409F
:100A40000021FFF7AABFC049884202D101214C040E
:100A500010E0BE49884202D101218C040AE0BC4961
:100A6000884202D10121CC0404E0BA4988420AD16B
:100A700001210C052046FFF799FF2046BDE81040F4
:100A80000021FFF793BF10BD30B50446008A85B042
:100A90000D464CF6FF710840E98801432182A18987
:100AA0004EF6F3100140A8882A8910436A890A4348
:100AB0001043A081A08A4FF6FF410840A989014355
:100AC000A1826846FFF7EAFE9E48844201D103985E
:100AD00000E00298A1890904002900EBC00101EBA4
:100AE0000010296802DA4FEA410101E04FEA810172
:100AF000B0FBF1F06422B0FBF2F14FEA01114FEAD2
:100B000011136FF018056B4300EB8300A3891D04DC
:100B10004FF0320306D503EBC000B0FBF2F000F05B
:100B2000070005E003EB0010B0FBF2F000F00F004F
:100B30000843208105B030BD4FF4165101600021FB
:100B40008180C18001810C2242818181704710B572
:100B5000038A4FF2FF0213400A884C8822438C8894
:100B6000C9880C4322431A43028210BD0021018030
:100B700041808180C18070470029818902D041F481
:100B8000005101E021F400518181704710B5C1F39B
:100B9000421301F01F040121A140012B07D0022BB9
:100BA00007D01430002A026805D00A4304E00C3054
:100BB000F8E71030F6E78A43026010BD002A828A07
:100BC00001D00A4300E08A4382827047028A22F001
:100BD0000F020282028A0A4302827047828922F44B
:100BE0000062828182890A4382817047002981895B
:100BF00002D041F0020101E021F002018181704741
:100C0000028A22F020020282028A0A43028270478C
:100C10000029018A02D041F4804101E021F48041A1
:100C200001827047C1F30801818070478088C0F35A
:100C300008007047818941F0010181817047028B72
:100C4000D2B20283028B42EA012101837047028BF8
:100C500002F47F420283028B0A4302837047002919
:100C6000818A02D041F0200101E021F0200181823F
:100C700070470029818A02D041F0100101E021F083
:100C80001001818270470029818A02D041F0080159
:100C900001E021F00801818270470029818902D09A
:100CA00041F4004101E0C1F30E0181817047002948
:100CB000818A02D041F4006101E021F40061818267
:100CC0007047828A22F004028282828A0A438282E8
:100CD00070470029818A02D041F0020101E021F031
:100CE0000201818270470246002012880A4200D029
:100CF00001207047C9430180704770B501F01F069D
:100D000001220025C1F3421302FA06F4012B0FD091
:100D1000022B0FD0838A4FEA11210088234202FA66
:100D200001F200EA020001D000B10125284670BDA1
:100D30008389F0E7038AEEE70A0A01219140C9435B
:100D400001807047003801400044004000480040E6
:100D5000004C0040005000407047FEE7FEE7FEE711
:100D6000FEE77047704702F048BE10B502F020FE63
:100D7000064A1178491C117002F01EFE00F030FC8A
:100D8000BDE8104000F0A9BB70477047320000205A
:100D900008B50121A020FFF7E5FD9C20ADF800007B
:100DA00010208DF8030003208DF8020069460C48DE
:100DB000FFF7A7FB69460B48FFF7A3FB08BD704789
:100DC00010B500F0FFF84FF4E13000F0E3F8FFF762
:100DD000DFFF0EF0F4FFBDE8104005F0FABB0000A5
:100DE000001C014000140140474D4FF4FA740421E7
:100DF0002846FFF7F5FB08212846FFF7F1FB1021F5
:100E00002846FFF7EDFB80212846FFF7E9FB204647
:100E100002F0D2F904212846FFF7E0FB082128461A
:100E2000FFF7DEFB10212846FFF7DAFB802128467A
:100E3000FFF7D6FB204602F0BFF904212846FFF752
:100E4000CDFB08212846FFF7C9FB10212846FFF7F4
:100E5000C7FB80212846FFF7C3FB204602F0ACF910
:100E600004212846FFF7BAFB08212846FFF7B6FB06
:100E700010212846FFF7B2FB80212846FFF7B0FB80
:100E8000204602F099F904212846FFF7A7FB082124
:100E90002846FFF7A3FB10212846FFF79FFB802180
:100EA0002846FFF79BFB204602F086F99FE705F0F6
:100EB0009EFC00BF04F08FFC00220C23114610465C
:100EC00002F0A6F9F6E700BF0FF081F9FCE710B5D4
:100ED000012001F009FC0D490A230D4A0860002198
:100EE000AFF2FB0001F035FE08230A4A00210A4850
:100EF00001F02FFE0923094A0021AFF23500BDE8B9
:100F0000104001F026BE000000140140280000201F
:100F10000C0500200C150020AF0E00080C35002039
:100F200002F067FDFFF74CFF00F06FFA02F020FDC2
:100F3000FFF7CDFF00F028FBFEE70000704770B51B
:100F4000324D044680212846FFF7CDFE0028F9D017
:100F5000A1B22846FFF766FE204670BD70B52B4C47
:100F6000054680212046FFF7BEFE0028F9D029461D
:100F70002046BDE87040FFF755BE10B5234C202138
:100F80002046FFF7B0FE0028F9D02046FFF74EFEBE
:100F9000C0B210BD1FB51D4C00900020ADF804007C
:100FA000ADF80600ADF80800ADF80C000C20ADF867
:100FB0000A0069462046FFF767FD01212046FFF73A
:100FC000DBFD1FBD38B5012144F20400FFF7CAFC68
:100FD0004FF40070ADF8000018208DF803000320D6
:100FE0000B4C8DF8020069462046FFF78AFA20155F
:100FF000ADF8000004208DF8030069462046FFF795
:1010000080FA4FF4E130FFF7C5FF38BD00380140EA
:10101000000801400146002002E0491C401CC0B20B
:101020000A78002AF9D1704770B505000E461446BB
:1010300005D036B1FF48807828B111200DE004209A
:101040000BE00C2009E02878012809D0022807D0FD
:10105000032805D0042803D001201070002070BDA3
:1010600002F0A6FC034668693060FFF7D3FF05462F
:10107000184602F0A1FC00202070284670BD70B513
:1010800005000E46144605D036B1EA48807828B1EE
:1010900012200DE004200BE00C2009E02878012844
:1010A00008D0022806D0032804D0042802D001204A
:1010B000107070BD02F07CFC6E6102F07DFC0020BF
:1010C000207070BD70B510F8383F44788278E443E2
:1010D000D243E4B2D5B2086809E0C618F27A2240D9
:1010E000F27202D1827A2A40827251F8040F0028EB
:1010F000F3D170BD70B502F05BFCCE4C0546A07814
:1011000098B9E07888B900F0DAFBCB49607951F8FA
:101110002010A1622279904207D0C86B401CC8639E
:10112000E068401CE06002F04AFC2846BDE87040E0
:1011300002F042BC70B5BF4900230A6AC2E9073019
:101140000FE00C6A02F10B0314F8385F6478EE5C70
:101150002643EE540C6A937A94F83A4023439372F0
:10116000001D0268002AECD1086AB24C90F83820C1
:10117000343490F83950A35CED43EDB22B40A354C6
:1011800005D190F83A008A7922EA0000887170BD92
:101190002DE9FF5F0C4682460E9F010016464FF078
:1011A000040020D0DAF80010E9B1E4B1DEB14FF06C
:1011B00000095046C4F8009009E00978012905D0DB
:1011C000022903D0032901D001200CE0001D016891
:1011D0000029F2D19748817809B1022003E09548AF
:1011E000C07828B10D203870002004B0BDE8F09F11
:1011F00002F0DEFB0022834690469446504638E0DB
:101200002978012911D0022918D0032901D0584684
:101210007FE0298931B1491E298120C4012246F885
:10122000049B1EE04CF0010C22E0696819B102C673
:10123000C5F8049013E04CF0020C19E06968CB8A01
:10124000A3B10A69131D0B61126804C68B680A6991
:101250009A4201D14A680A61CA8A521ECA8220C4CF
:10126000012208F101011FFA81F801E04CF0040CA1
:10127000001D0568002DC3D1012A20D06D484CF017
:101280008002006A00F13000017941EA0201017137
:1012900080F80590039901605046FFF74BFF5846D0
:1012A00002F08AFBFFF726FF02F082FB84466148CA
:1012B000006A90F8351051B1022914D107E04D466B
:1012C0005846C4F8009002F077FB3D7042E0C569D3
:1012D00035B1E4E8015908F101001FFA80F805E092
:1012E000012180F835105146FFF7ECFE5149086A9C
:1012F00090F835202AB1022AC6F8009018D00A20AA
:1013000017E02A78012A0ED0022A0CD0032A07D02F
:10131000604602F051FB0120C4F80090387019E0DB
:10132000C6F8009001E0406A306087F8009001E064
:101330000E203870096A604601F11C0181F818908E
:1013400081F81990C1F80090C1F80490C1F8089094
:1013500002F032FB404648E77CB5374D0024694631
:10136000204601F015FE58B955F8240040B1012877
:1013700006D0D0E9021201EB820181640199C164B7
:10138000641CE4B23F2CEAD97CBD2A4C4FF48C7526
:1013900002E0284601F010FF60780028F9D06421AF
:1013A00060690025B0FBF1F0606118B92570FF207D
:1013B00001F02DFE02F0FCFAE169C4E9061502F025
:1013C000FBFAD4E90510B0FBF1F0C0F16400207025
:1013D00002F08CFAFFF7C0FF8C2001F0EDFEE9E788
:1013E000144C00BF02F0E4FAE169491CE16102F02B
:1013F000E3FA02F07AFAF5E7002203E0491E00F86A
:10140000012B89B20029F9D1704770B586B002F07E
:1014100065FA0848002404638470C4700472C471BF
:10142000C460C4618461446144708471214600F1E8
:10143000340203E030000020003A00205454491CDC
:10144000C9B20829F5D3047144718462046200F0C2
:1014500069FA00F040FA00F069FD00F05AFE01F070
:1014600010F98026FF48CDE9010603254FF6FF70ED
:101470003F23FD4A00210090AFF29B00CDE90345D8
:1014800001F0B4FB05AAF9A13F2001F00AFDFB48D9
:10149000CDE90106F34A4FF6FE703E23121F0021EC
:1014A0000090AFF21910CDE9034501F09FFB05AAAA
:1014B000F3A13E2001F0F5FC02F07CF906B0BDE896
:1014C000704002F00FBAF249C879012804D1887837
:1014D000FF2801D2401C8870704770B5EC4CE07951
:1014E000012823D102F064FA0546A07820B1401EFD
:1014F00010F0FF00A07014D1E07890B900F0DFF98F
:10150000D9486179001D50F82100A06222799142EA
:1015100007D0C16B491CC163E068401CE06002F069
:1015200053FA2846BDE8704002F046BA70BD10B5C7
:10153000D74CE07901280CD102F03AFAA17821B910
:10154000E178FF2901D2491CE170BDE8104002F0AA
:1015500033BA10BD10B5CE4CE079012813D102F09A
:1015600027FAE17831B1491E11F0FF01E17001D194
:10157000A17819B1BDE8104002F01EBA02F01CFAC1
:10158000BDE81040B6E510BD10B5C14CE0790028AB
:101590000DD100F094F9B4496079091D207151F81A
:1015A0002000A0622062BDE8104002F012BA10BD17
:1015B00010B5022001F000FE02F0FAF9B44C00214F
:1015C000E16102F0F9F98C2001F0F6FD02F0F0F98A
:1015D000E169616101216170BDE8104002F0ECB980
:1015E0002DE9F04102F0B7F902F0E2F9A84D296BBC
:1015F000491C296302F0E0F9E879012841D1687AB1
:101600000126002720B101283BD0022802D06F72AA
:10161000EC6A32E06E72FBE702F0CAF9216B49B363
:10162000491E216326D194F8341011F0370F06D0EB
:1016300001F0C80184F8341084F8356001E084F8C2
:10164000357094F83410090714D404F13804AA79D9
:10165000A178DFF83CC241EA0201A97121780CF1BE
:10166000340C63781CF80120A4F1380442EA030228
:101670000CF80120646902F09FF994F836003F28C5
:10168000CAD1BDE8F08140F223107047704710B511
:1016900090F8382090F839408B18E443DA7AE4B2B5
:1016A0002240DA7204D18A7A90F83A0082438A7230
:1016B00010BDF0B50546807A764C4FF00007205CEF
:1016C00005EB0006F67AA45D04EBC004E6B2664CB6
:1016D00004F1040454F8264004F12404E760216076
:1016E000217C21EA020121746374A4F12404090716
:1016F0000BD4674994F83A208B791A438A713431B4
:1017000094F839300A5C1A430A5429462046FFF7F8
:10171000BEFF216A19B12046FFF7D4FCE5613046CF
:10172000F0BD30B55A4900F10B020B6A43F81C0FAB
:101730001C7F5B7FA55C1D43A5540A6A837A02F176
:101740003802947843EA04038372137801F1340475
:101750005578E05C6FEA0505EDB22840A2F1380249
:10176000E05405D192F83A008A7922EA00008871A3
:1017700030BD0022827211464318491CC9B2DA7288
:101780000829F9D3704705E011F8013B521E00F813
:10179000013B92B2002AF7D170472DE9F05F07466E
:1017A000DDE90ABA0D469046994602F001F9384E35
:1017B000746A002C7FD061691C34716202F0FCF8FD
:1017C00044F81C5CA776002525766576656144F8AB
:1017D00010BC44E906A80C9824F80C0CFB0824F86B
:1017E0000A9CE57707F007020120237700FA03F14E
:1017F000E276A1779040607725606560E560A5603E
:101800002562A562656224A0E562C4E90C50A4F1DA
:101810001C04284604EB8001401C4D6510F0FF00BD
:10182000F8D0204602F096F8204602F05CF802F06C
:10183000BFF801460C48001D40F82740F06AC4E993
:10184000050500B18461F46204F13804B279A0782E
:1018500040EA0200B0710E48227800F1340064784A
:10186000835C1CE000380020FC39002075432F4FBA
:10187000532D49492049646C650000000036002062
:1018800075432F4F532D4949205374617400000054
:10189000300000209E4801083F0000000BE043EAB2
:1018A00004038354307A00F101003072084602F0DC
:1018B00083F800209AE402F07FF8422096E433494E
:1018C000314A01F134038879105C1B5CD25C02EB75
:1018D000C0004871704710B5F0212D48FFF78CFD0E
:1018E00000202B4A0146431C1C4600EB40009BB2E3
:1018F00002EBC00003EB430302EBC3030170436040
:10190000AFF26C034361A0B20928ECD300EB4000B6
:1019100002EBC00001704160AFF2840141611B48DD
:10192000026110BD10B54FF4F2611A48FFF764FD73
:101930004FF480711848FFF75FFD16490020421CE4
:1019400000EB400404EBC000D3B203EB430401EB13
:10195000C00004EBC30301EBC3034361AFF2C80350
:101960000365D0B21528EAD300EB400202EBC000B9
:1019700001EBC0000022AFF2E003036542610348BF
:10198000C262416210BD00009E4801083000002084
:1019900010350020003B0020003A00202DE9F041E6
:1019A00005000F4614461E4607D02878052806D0A5
:1019B000012018700020BDE8F0816E20F9E714F0D6
:1019C000800002D022F08004012080460020307088
:1019D00001F0EEFF0246702104B3012C25D0022C49
:1019E00008D0032C12D001F0E7FF00246F203070E4
:1019F0002046E0E7288900EA0704BC420AD01FE03D
:101A0000A0431BE0104601F0D7FFF1E7288910EA58
:101A1000070415D0B8F1010FF4D1F1E72889C343C9
:101A20009CB23C40BC4205D00AE02889C3439CB22A
:101A30003C4005D0B8F1010FE4D120432881E1E713
:101A40003170DFE770B50646F8480D46007818B1EA
:101A500010200870002070BD01F0AAFFF4490C6846
:101A600064B162680A600521217026810026F1A117
:101A70006660E16001F0A0FF2E7003E001F09CFFC2
:101A800072202870204670BDD0E9001200232AB1D0
:101A9000116001B14A60806883627047C2680029A2
:101AA0005160F8D04B60F6E710B50246806800231D
:101AB00000F12C0043600180017A11F0DF01017216
:101AC0004372A0F12C0005D000241046FFF7DCFF84
:101AD000204610BDD84900F1380083780C7843EADD
:101AE00004030B700378D5494078CC5C44EA0004C9
:101AF000CC544FF00104E8E72DE9F05F040088467C
:101B0000154605D0C948007820B10F20107021E09B
:101B10006E20FBE72078052801D00120F6E701F0D0
:101B200047FF666881460EB1012700E00027DFF815
:101B300000B34FF0000AB8F1000F06D0B8F1010F62
:101B400020D001F039FF072003E037B101F034FF66
:101B5000492028702046BDE8F09FB6A0E06084F8D8
:101B600000A0DBF800106160A4F808A056464846C3
:101B7000CBF8004001F020FF19E000213046FFF7CC
:101B800093FF3668002EF8D1AAA0E06084F800A088
:101B9000DBF800106160A4F808A056464846CBF870
:101BA000004001F009FF012F01D1FFF7A3FA2E70C9
:101BB0000020D0E72DE9F04105000E46144605D07F
:101BC00036B19A48007830B1112002E06E2000E072
:101BD0000C2010700AE001F0EBFE0746287805287B
:101BE00006D0384601F0E8FE012020700020E2E631
:101BF000E8683060FFF70EFA0546384601F0DCFE73
:101C0000002020702846D6E670B505000E46144622
:101C100006D03EB18548007830B11220107070BDFA
:101C20006E20FBE70C20F9E701F0C2FE29780529B8
:101C300003D001F0C1FE012003E0EE6001F0BCFE24
:101C40000020207070BDF0B57D4D059F2C6804F11B
:101C50002804267B46F0200626734FF000066673A4
:101C6000A76044F828190A828B748C604268C860A7
:101C7000C1E90026426802B15160416028686F4B9B
:101C800090F8382090F83940995CE443E4B2214060
:101C9000995406D1684990F83A000A7822EA00007F
:101CA0000870F0BD2DE9F04F89B00400129D0F4679
:101CB00091469A4604D05D48007818B102209AE017
:101CC0006E2098E05F48007808B10D2093E02078FE
:101CD000052801D001208EE012F0800F03D009F01A
:101CE0007F09012600E0002601F062FE02905FEA13
:101CF00009004FF0000B21D0012838D0022808D06D
:101D0000B9F1030F10D0029801F056FE00206F21A8
:101D10005EE0208900EA0708B84509D02EE048496E
:101D20000968A1F82C8019E0208910EA070825D05D
:101D3000012EF4D120EA08002081F0E72089C14378
:101D400089B239408846B94218D1012E02D140EA01
:101D50000800208108463A4909688885029801F000
:101D60002BFE85F800B0404609B0BDE8F08F208911
:101D7000C14389B239405FEA0108E6D14B463A4691
:101D800003A92046CDF800A0FFF75DFF029801F0FF
:101D900013FEFFF7AFF901F00BFEDFF8A4808446D5
:101DA000D8F8000090F83570A7B180F835B05C46DF
:101DB00003A8FFF769FED8F8000080F834406046B9
:101DC00001F0FAFD0020022F01D00A2100E00E21CF
:101DD0002970C9E7878D012E16D15FEA090010D05E
:101DE00001280ED0022809D0B9F1030F06D06046B1
:101DF00001F0E2FD6F2028700020B5E72089B8438C
:101E000001E0208938432081604601F0D5FD85F846
:101E100000B03846A8E710B501F0CAFD08490968C6
:101E20008C8D01F0C9FD204610BD0000320000205D
:101E30006C0000203F0000003600002064000020FD
:101E400050000020330000202DE9F04104000D4631
:101E500017461E4605D02078052804D001201870AA
:101E600021E06E20FBE701F0A3FD80462FB1012F9A
:101E700006D001F0A1FD712014E02089A84301E003
:101E80002089284320810027656827E0A87C80B14D
:101E9000012816D0022808D0032808D0404601F0B7
:101EA0008BFD6F203070002085E5218904E02189B9
:101EB0000AE02089C04381B2288A0140884206D0C6
:101EC0000BE02089C04381B2288A014005D0284612
:101ED000FFF7EAFD012800D101272D68002DD5D19B
:101EE000404601F069FD012F01D1FFF703F901F030
:101EF0005FFD248901F060FD0021317020465AE524
:101F000070B505000C4606D02878052805D00120BC
:101F10000870002070BD6E20FAE701F049FD2D89A0
:101F200001F04AFD00202070284670BD10B55021F8
:101F30000F48FFF761FA00200D4A0146431C1C467A
:101F400002EB00109BB202EB031301704360AFF28F
:101F50001C13C360A0B20428F0D302EB0010017080
:101F60004160AFF23011C160024802605CE70000DE
:101F7000904200206C0000202DE9F04104000E4644
:101F800090461F464FF0620001D0A10701D01870A3
:101F90001AE0022E01D25B20F9E7042A01D25C206C
:101FA000F5E701F005FD0146694805680DB16A686D
:101FB0000260084601F000FD25B1731E204621464F
:101FC000002208E05A2038700020BDE8F08141442A
:101FD00001600846521C9A42F9D3002101602E612B
:101FE000EE602C60C5E9014839702846EDE770B510
:101FF00004000D4610D001F0DBFC0146206970B1F1
:102000006668401E326862602061084601F0D4FCB8
:1020100000202870304670BD6020087004E008463B
:1020200001F0CAFC5D202870002070BD2DE9F04150
:1020300005000E46144607D046B14648007838B130
:10204000112010700020C0E76020FAE70C20F8E7AC
:1020500001F0AEFC074668693060FEF7DBFF05461D
:10206000384601F0A9FC002020702846ADE770B585
:1020700005000E46144606D03EB13648007830B111
:102080001220107070BD6020FBE70C20F9E701F012
:102090008FFC6E6101F090FC0020207070BD70B567
:1020A00004000D460AD05DB101F082FCD4E90312B0
:1020B0008A4207D301F080FC5E2070BD602070BDB5
:1020C0005F2070BD6168296065602169491C2161DC
:1020D00001F072FC002070BD70B505000C4614D0F4
:1020E000ACB101F065FC2968216069686160A9688C
:1020F000A160E968E1602969216101F05DFCD4E932
:102100000301401A6061002070BD602070BD612035
:1021100070BD10B578211048FFF76EF90E4A002007
:1021200000EB400102EBC10101F118034B60401CC0
:102130000AA380B24B610428F2D300EB400002EB0B
:10214000C0000021416005A141610148026010BD4D
:102150007000002032000020E04200203F0000001C
:1021600070B505000C4606D02878022805D001205D
:102170000870002070BD0420FAE701F019FC6A68BD
:102180000146D08A70B11369181D10611D68D38A89
:102190005B1ED3829368984201D150681061002081
:1021A000207002E01F2020700025084601F004FC8A
:1021B000284670BD2DE9F04107468846FF48007863
:1021C00010B10020BDE8F08101F0F2FBFC4E346854
:1021D0000CB16168316001F0EFFB2CB301F0E8FB5A
:1021E0000146F8480568C5B12A680260084601F052
:1021F000E3FB07EB8800C5E90170EF602F61A5F8EC
:1022000014800020E882022121702081EEA0656008
:1022100060612046FFF7ADFA06E03068606008466E
:10222000346001F0C9FB00242046CBE72DE9F047DC
:1022300004008846154605D02078022804D00120E5
:10224000107024E00420FBE7DC48007808B10F2080
:10225000F6E701F0ADFB0746A07A08B1012600E0E1
:1022600000265FEA0800DFF85C83DFF854934FF044
:10227000000A06D001282AD0384601F09DFB07202D
:1022800004E03EB1384601F097FB49202870204613
:10229000BDE8F087CCA060616168D8F800205646A0
:1022A0000A60C8F8001084F800A0D9F80010616036
:1022B000A4F808A03846C9F8004001F07DFB2E7054
:1022C00023E00023042219462046FFF7F2F9A07A02
:1022D0000028F6D1BCA060616068D8F800200260D8
:1022E000C8F8000084F800A0D9F800206260A4F8C3
:1022F00008A0D0463846C9F8004001F05DFB012E29
:1023000001D1FEF7F7FE85F800800020C0E710B588
:10231000040004D02078022803D0012010BD04203E
:1023200010BD01F045FB014660684268C260026171
:102330000022C282084601F03FFB002010BD2DE9BB
:10234000F04706008946154604D03078022803D0AD
:1023500001200AE0042008E09848007808B1022033
:1023600003E09A48007818B10D20107000208FE724
:1023700001F01EFB074670680024C18A81B1026922
:10238000111D01611668C28A521EC2828268914282
:1023900001D141680161384601F00EFB2C7035E037
:1023A000DFF82C82D8F8000010F8341F41F0040147
:1023B0000170447040F8049C3046FFF7B2F938468B
:1023C00001F0FAFAFEF796FE01F0F2FA0746D8F8A5
:1023D000000090F8351039B1022908D03146FFF7D6
:1023E00056F900260A2004E0466A2C7002E0002616
:1023F0000E202870D8F8000000F11C000476447606
:10240000046044608460384601F0D6FA30463FE705
:102410002DE9F04105000F46164605D02978012028
:10242000022903D010702AE00420FBE701F0C0FA73
:102430008046A87AF0B10024012F0FD00223042295
:1024400000212846FFF735F90124404601F0B4FA8F
:10245000FEF750FE0E2030702046B3E60223042221
:1024600000212846FFF725F9641CA87AE4B2002869
:10247000F4D1EAE7404601F09FFA002030700020D6
:10248000A0E670B504000E4604D02078022803D0E0
:10249000012070BD042070BD01F08AFA0546A07AC3
:1024A00058B10023042231462046FFF702F928469E
:1024B00001F082FAFEF71EFE19E06068C18A828A86
:1024C000914204D3284601F077FA1E2070BDC168FE
:1024D0000A1DC2600E60C18A491CC182D0E9021285
:1024E0008A4201D14168C160284601F065FA0020A6
:1024F00070BD70B504000E4604D02078022803D0C9
:10250000012070BD042070BD01F052FA0546A07A8A
:1025100058B10023042231462046FFF7CAF8284666
:1025200001F04AFAFEF7E6FD18E06068C18A828A87
:10253000914204D3284601F03FFA1E2070BD426844
:102540000169914201D181680161091F01610E6039
:10255000C18A491CC182284601F02EFA002070BDB4
:102560002DE9F04107000D46144604D038780228C2
:1025700003D0012026E6042024E601F019FA0646DD
:10258000B87AD0B1E00709D00023042229463846A2
:10259000FFF78FF8B87A0028F6D105E0002304226F
:1025A00029463846FFF785F8304601F005FA6007FE
:1025B00001D4FEF79FFD002004E60BE0320000206E
:1025C00040000020740000203F0000003300002085
:1025D000500000207B68D88A998A884204D330460C
:1025E00001F0EAF91E20EDE5A00709D55968186940
:1025F000884201D198681861001F1861056009E0E0
:10260000D868011DD9600560D3E90201814201D17A
:102610005868D860D88A401CD882304601F0CCF97E
:10262000C9E770B504000D4605D035B12078022801
:1026300005D0012070BD042070BD092070BD01F0DF
:10264000B7F90346A07A287404F10B0205F10800DB
:102650005FF00001491C12F8016BC9B200F8016B70
:102660000829F7D36068C18A09B10169096829603E
:10267000C18AA980808AE880184601F09DF900206F
:1026800070BD10B560210D48FEF7B6FE0B4A002064
:10269000411C8BB200EB400003EB430302EBC3038E
:1026A00042F8303088B20328F2D300EB400000211A
:1026B00042F830100248026010BD0000584300206C
:1026C0007400002070B5050002D02878032801D0DE
:1026D000002070BD01F06CF92C890CB1611E2981BC
:1026E00001F06AF9204670BD70B50546C048007813
:1026F00008B1002070BD01F05BF90146BD480468D7
:102700000CB162680260084601F056F94CB1032032
:102710002070258100206060B7A060612046FFF72F
:1027200028F8204670BD2DE9F0470400884615467C
:1027300005D02078032804D00120107022E0042066
:10274000FBE7AB48007808B10F20F6E701F030F95D
:102750000746A07A08B1012600E000265FEA0800DB
:10276000DFF890924FF0000806D0012824D03846B8
:1027700001F022F9072004E03EB1384601F01CF9CF
:10278000492028702046BDE8F0879BA0606184F84E
:102790000080D9F800106160A4F8088046463846E9
:1027A000C9F8004001F008F92E701CE00023012256
:1027B00019462046FEF77DFFA07A0028F6D18EA0AC
:1027C000606184F80080D9F800206260A4F8088075
:1027D0003846C9F8004001F0EFF8012E01D1FEF7AC
:1027E00089FC85F800800020CDE72DE9F047060040
:1027F0008946144604D03078032803D001200AE02B
:10280000042008E07A48007808B1022003E07B4801
:10281000007810B10D201070B5E701F0C9F8074637
:102820003089002530B1401E3081384601F0C4F8AF
:102830002570A8E7DFF8C881D8F8000010F8341F29
:1028400041F001010170457040F8049C3046FEF7EC
:1028500068FF384601F0B0F8FEF74CFC01F0A8F82C
:102860000746D8F8000090F8351031B1022906D09B
:102870003146FEF70CFF0A2002E0257001E00E2031
:102880002070D8F8000000F11C0005764576056040
:1028900045603846BDE8F04701F08EB82DE9F041BB
:1028A00005000F46164605D029780120032903D0DC
:1028B00010702BE00420FBE701F07AF88046A87A3C
:1028C000F8B10024012F10D0022301220021284654
:1028D000FEF7EFFE0124404601F06EF8FEF70AFC19
:1028E0000E2030702046BDE8F08102230122002135
:1028F0002846FEF7DEFE641CA87AE4B20028F4D174
:10290000E9E7404601F058F8002030700020EAE77F
:1029100070B5040004D02078032803D0012070BDD6
:10292000042070BD01F044F80546A07A58B1002398
:10293000012219462046FEF7BCFE284601F03CF86D
:10294000FEF7D8FB09E020894FF6FF71884206D2D6
:10295000401C2081284601F02FF8002070BD284639
:1029600001F02AF8332070BD70B505000C4605D083
:1029700034B12878032805D0012070BD042070BD33
:10298000092070BD01F014F80346A87AA072A11CBA
:1029900005F10B005FF00002521C10F8016BD2B27F
:1029A00001F8016B082AF7D328892080184601F026
:1029B00003F8002070BD70B504000E46154605D022
:1029C0002078032804D00120107070BD0420FBE79C
:1029D00000F0EEFF00212970218939B9A17A29B1CF
:1029E00049212970BDE8704000F0E6BF2681F9E773
:1029F00032000020400000203F0000003300002093
:102A0000500000202DE9F84F05460C463F2801D321
:102A1000FF2D01D13F2C02D32A20BDE8F88F00F012
:102A2000C7FF8646F84850F8241021B1704600F0E0
:102A3000C3FF2820F1E7FF2D03D1F449096891F87D
:102A4000365050F8252032B3012A29D004F0070669
:102A5000E1080123009603FA01F606F0FF0A009E42
:102A6000B34003F0FF0B002340F8253040F824204A
:102A700092F83850E64892F8399092F83A80435DDF
:102A800013EA090F1DD06FEA0906F6B23340E14F91
:102A900043550AD00DE0704600F08EFF2920BCE7B8
:102AA000704600F089FF4320B7E73B7823EA08032C
:102AB0003B703B7843EA0A033B70435C43EA0B03F9
:102AC0004354D069A0B147196FEA0906FB7AF6B200
:102AD0003340FB7203D1837A23EA08038372837A3B
:102AE00043EA0A0383720844C37A43EA0B03C372BE
:102AF000136AD3B11868C0B147196FEA090CFE7A9E
:102B00000CF0FF0C16EA0C06FE7203D1867A26EA58
:102B100008068672867A471846EA0A068672F87AA6
:102B20001B1D40EA0B00F872E4E702F8364F917083
:102B30000098507082F804A082F803B0704600F04C
:102B40003BFFB5480078012801D1FEF7D3FA0020F9
:102B500063E72DE9FE4305460F4690461C463F2B92
:102B600002D92A20BDE8FE8300F022FFAB49097894
:102B700019B100F021FF3C20F4E7A34E56F82410D1
:102B800019B100F019FF2820ECE7012146F82410C4
:102B900000F012FF002342463946284600F0A7FE07
:102BA00000250146009501952B462A4620460295B0
:102BB000FEF7F3FD070007D000F0FAFE46F82450B8
:102BC00000F0FAFE3846CDE7934800780128F9D1A5
:102BD000FEF790FAF6E7D30707D0920705D5002253
:102BE000002902D004C0491EFAE770472DE9FF4FC3
:102BF00083B08246DDE91386DDE911978B461C46DA
:102C00003F2B03D92A2007B0BDE8F08F00F0D0FE9B
:102C10008249097819B100F0CFFE3C20F3E77A4DE4
:102C200055F8241019B100F0C7FE2820EBE7012168
:102C300045F8241000F0C0FE324639464846FFF7FA
:102C4000CAFF334659465046059A00F050FE009799
:102C5000CDE9018601464A462046109BFEF79DFDC0
:102C6000060008D000F0A4FE002145F8241000F072
:102C7000A3FE3046C7E7684800780128F9D1FEF77F
:102C800039FAF6E72DE9F04706466448007810B1B6
:102C90004020BDE8F0873F2E04D005D3FF2E07D09B
:102CA0002A20F6E73E20F4E700F082FE074606E021
:102CB00000F07EFE07465548006890F83660DFF861
:102CC000489159F826406CB1012C10D094F8381076
:102CD0004F4A94F83930505CDB43DBB21840505413
:102CE0000AD010E0384600F067FE4320D1E73846AE
:102CF00000F062FE3D20CCE7464994F83A000A789D
:102D000022EA00000870E16911B12046FEF7BFFC1D
:102D1000216A11B12046FEF7D5F9A06A08B1FEF785
:102D2000B3FE4FF00008C4F830803D4D84F8348085
:102D300084F835802878FF2801D2401C2870384656
:102D400000F03AFEFEF7A2FC00F032FE07462878BB
:102D500008B1401E2870204600F0C6FD31480178B9
:102D6000491E017049F82680A169404691B1606909
:102D70004861D4E9050181612B4801686161046003
:102D80002AA02065384600F017FE23480078012865
:102D900006D007E061698861254960690860EBE752
:102DA000FEF7A8F9002074E710B504463F2804D0C8
:102DB0000FD3FF2803D02A2010BD3E2010BD00F005
:102DC000F7FD1249096891F83B4000F0F5FD2046F7
:102DD00010BD00F0EDFD01460B4850F8240048B14D
:102DE00001280CD03F2280F83B20084600F0E4FD8B
:102DF000002010BD084600F0DFFD432010BD08464E
:102E000000F0DAFD3D2010BD003A00205000002007
:102E1000640000203600002037000020320000202F
:102E20003300002038000020540000203F00000044
:102E30005C0000202DE9F04105460E4614463F286F
:102E400003D9FF2D01D02A2006E026B1D44800780E
:102E500020B1112000E00C20107020E000F0A8FD4F
:102E60000746FF2D03D1CF48006890F83650CE4872
:102E700050F82500432570B101280CD0006D30605A
:102E8000FEF7C8F80546384600F096FD0020207091
:102E90002846BDE8F081384600F08EFD2570002000
:102EA000F7E770B505460E4614463F2803D9FF2DB7
:102EB00001D02A2004E02EB1B948007820B11220B8
:102EC000107070BD0C20FBE700F072FD0146FF2D75
:102ED00003D1B448006890F83650B34850F8250044
:102EE000432540B1012806D00665084600F064FD80
:102EF0000020207070BD084600F05EFD257070BD9A
:102F000010B504463F2801D32A207CE700F050FD8D
:102F10000146A54850F8240058B101280ED090F879
:102F2000342013072FD512F0F70280F834200AD08E
:102F30000BE0084600F040FD462064E7084600F03C
:102F40003BFD43205FE7026B22B1084600F034FDF1
:102F5000002058E7954A00F138008378147843EA56
:102F6000040313700378924A4078D45C44EA000466
:102F7000D454084600F020FD8E4800780128E7D19F
:102F8000FEF7B8F8E4E7084600F016FD44203AE7FB
:102F90002DE9F04105460C463F2803D9FF2D01D00D
:102FA0002A2076E744B100202060606000F000FD38
:102FB0000146FF2D02D005E009206AE77948006844
:102FC00090F83650784850F8250058B1012809D0BB
:102FD000028AD2070BD0D0E902760025084600F01D
:102FE000EBFC0AE0084600F0E7FC432051E7084606
:102FF00000F0E2FC45204CE76D1C01CF0028FBD01F
:10300000A8002060701B80006060002041E770B560
:10301000644D04463F2804D005D3FF280CD02A2055
:1030200070BD472070BD00F0C3FC0346286890F8CF
:103030003600A04206D007E000F0BAFC034628683C
:1030400090F83640012500E00025574850F824004C
:1030500068B1012810D090F83820554C90F83960AC
:10306000A15CF643F6B23140A1540AD010E01846F4
:1030700000F0A2FC482070BD184600F09DFC4320E3
:1030800070BD4A4A90F83A10147824EA0101117090
:1030900010F8341F41F008010170184600F08CFC54
:1030A000012D01D1FEF726F8002070BD70B5044651
:1030B0000D463F2803D9FF2C01D02A2070BD2DB129
:1030C00000F076FC0646FF2C02D005E0092070BD1A
:1030D0003448006890F83640334850F8241051B115
:1030E00001290DD058222846FEF74DFB304600F04E
:1030F00063FC002070BD304600F05EFC292070BDEE
:10310000304600F059FC432070BD70B504461546AA
:103110003F2803D3FF2C01D02A2001E019B1082059
:103120001070002070BD00F043FC0146FF2C0AD057
:103130001D4850F82400446D084600F03DFC002076
:103140002870204670BD17480068F4E770B5044643
:1031500016461D463F2803D3FF2C01D02A2001E04C
:1031600011B10820187070BD00F022FC0146FF2C40
:1031700009D00D4850F824004665084600F01CFCB4
:103180000020287070BD07480068F5E7054810B5B5
:10319000006800F0ECFBBDE81040FF2072E5000085
:1031A0003200002050000020003A002036000020AD
:1031B000640000203700002070B504465D480078A8
:1031C000002824D15C480078002820D1002C1ED093
:1031D00000F0EEFB03465948594D016891F838005C
:1031E00091F839602A5CF643F6B232402A5406D18F
:1031F000544A91F83A00157825EA000010701846F4
:103200000C6300F0D9FBBDE87040FDF773BF70BDE3
:1032100070B5484C24780CB1552070BD464C2478CC
:103220000CB1322070BD00B919B13B2902D951202F
:1032300070BD1AB13B2A02D9522070BD2BB14FF498
:103240007A74A34203D3532070BD542070BD4FF451
:10325000AF656B43B3FBF4F34FF461646043C1EBC0
:10326000011100EB81001044AF21484303EBC00083
:10327000FFF7A2FF002070BD10B504463F2801D320
:103280002A2010BD00F094FB01462F4850F824007E
:1032900090B1012810D0026B9AB10023036390F81B
:1032A000342012F0370F11D022F0370280F834208A
:1032B000012280F835200BE0084600F07DFB43201A
:1032C00010BD084600F078FB502010BD80F8353066
:1032D00090F83420120714D41A4A00F13800837889
:1032E000147843EA040313700378154A4078D45CD9
:1032F00044EA0004D454084600F05EFBFDF7FAFEF1
:1033000002E0084600F058FB002010BD10B500F0A8
:103310004FFB0E490C6800F04FFB204610BD10B566
:10332000044600F045FB09490C60BDE8104000F080
:1033300043BB00003200002033000020500000207A
:103340006400002036000020003A002060000020C9
:103350002DE9F05F0646DDF828B00C9D0F4690463B
:103360009A46012A06D0022A01D0842032E017B9F9
:1033700083202FE026B1F848007818B18B2029E08F
:10338000822027E0FEF7D3F8F44800210468F4B166
:10339000E2680260E16089462161F1490888401CC9
:1033A0000880F0490888401E0880012084F8250024
:1033B000C4E9066784F82480C4E901AB0B98206255
:1033C000FEF7C8F885F800902046BDE8F09FFEF7AC
:1033D000C1F8862028700020F7E7002180F825102A
:1033E00080F82410C16141614160DFA28160026206
:1033F0000161DA490A68C2600860D9490888401E3C
:103400000880D8490888401C0880704710B5416979
:10341000D64A01F0070102EBC10200231468C1681B
:10342000844203D1116029B10B6103E00469E160BA
:1034300001B10C61012180F82510C36003619088FF
:10344000401E908010BD70B505000C4605D0287850
:10345000642804D08920087025E08A20FBE7BE4854
:10346000007808B18B20F6E7FEF761F895F82500A3
:10347000A8B1002601280AD0022808D0032803D0CA
:10348000FEF768F88D200DE02846FFF7BFFF2846BD
:10349000FFF7A3FFFEF75EF82670012070BDFEF770
:1034A00059F887202070002070BD70B505460E00C9
:1034B000144605D035B12878642806D0892002E06A
:1034C000882000E08A20107022E0A348007808B12C
:1034D0001120F8E7FEF72BF895F82500A0B1012898
:1034E00007D0022805D0032803D0FEF733F88D203B
:1034F0000DE0286A3060FDF78DFD0546FEF72AF8DD
:1035000000202070284670BDFEF724F88720207028
:10351000002070BD2DE9F04105000C4605D028784B
:10352000642804D08920087034E08A20FBE78A48A8
:10353000007808B18B20F6E7FDF7F9FF95F8250034
:1035400020B30027012811D002281BD0032803D064
:10355000FEF700F88D201CE0854968690968451A66
:10356000FDF7F8FF27702846BDE8F08195F82400A4
:10357000AE69022801D106B9EE69FDF7EBFF2770AD
:103580003046F1E7FDF7E6FF277003E0FDF7E2FFC5
:10359000872020700020E7E770B505000C4604D0B6
:1035A0002878642803D0892005E08A2003E06A484F
:1035B000007818B18B200870002070BDFDF7B7FFB0
:1035C00095F825503DB1012D05D0022D03D0032DD6
:1035D00001D08D2000E000202070FDF7BBFF2846C1
:1035E00070BD032280F82520614A0129126813D09A
:1035F000816989B1114441615C4A01F0070102EB24
:10360000C10100230A68086042B1C26010618A8863
:10361000521C8A8003617047C169EBE70122C360D5
:10362000F7E770B505000C4605D02878642804D06B
:103630008920087026E08A20FBE74748007808B117
:103640008B20F6E7FDF773FF95F82500B0B1002653
:1036500001280AD0022808D0032803D0FDF77AFFFA
:103660008D200EE02846FFF7D1FE00212846FFF707
:10367000B8FFFDF76FFF2670012070BDFDF76AFFF0
:1036800087202070002070BD2DE9F04105000F4615
:1036900016461C4605D02878642804D08920187066
:1036A0003CE08A20FBE72C48007808B18B20F6E745
:1036B000FDF73DFF95F8250060B3012825D00228CD
:1036C00023D0032803D0FDF745FF8D2025E02846B1
:1036D000FFF79CFE002020709FB18F20032F03D0A6
:1036E000042F07D084200BE06A684AB12846A968F5
:1036F000904706E06B681BB131462846984700E0CA
:103700002070FDF727FF01202EE7FDF723FF8E2015
:103710002070F8E7FDF71EFF87202070002023E7C8
:1037200014480068FFF7F4B808B5DFF84880DFF800
:103730003C900F4D6A460021D8F80000FFF755F87D
:10374000FDF7F5FE2868401C286000F007000227FE
:1037500059F8304024E000003200002088000020AA
:103760007A000020780000203F0000003848002048
:103770007C0000208400002060692968E668884297
:103780000DD12046FFF742FE94F8240002280CD009
:1037900084F82570626812B12046A16890473446CB
:1037A000002CE9D1FDF7D6FEC4E701212046FFF742
:1037B00018FFEFE770B588B04FF420712F48FDF780
:1037C0001BFE40212E48FDF717FE00202B49044622
:1037D0006422431C00EB80001D4601EBC0009BB23D
:1037E00003EB8303027001EBC30380F82540C36041
:1037F000AFF28C030362A8B20F28EAD300EB80007B
:1038000001EBC000027080F82540AFF2A402C46052
:1038100002621C481D4A04601B480480102010806E
:103820001B4801600120FEF75FFF1A4D2860002051
:10383000FEF75AFF184E05AA18A130602868FDF758
:103840001EFC05AA1AA13068FDF719FC802102911F
:103850000320CDE903401B4A4FF6FD70CDE900027D
:10386000322302F5FE7200211748FFF7BFF906AABE
:1038700016A13220FFF715FB08B070BDB843002039
:10388000384800207C0000207A00002078000020CA
:1038900088000020800000208400002075432F4F06
:1038A000532D494920546D724C6F636B000000002A
:1038B00075432F4F532D494920546D725369676EDC
:1038C000616C0000384600202937000875432F4FEF
:1038D000532D494920546D720000000032490020E8
:1038E00008807047704770477047704770474FF0C7
:1038F00080731360131F18606FF0010042F8080C0A
:10390000A2F138004FF012334FF00332C0E90A231E
:103910004FF0023242624FF00132C0E907124FF01D
:10392000113181614FF0103141614FF00931016176
:103930004FF00831C1604FF0073181604FF0063120
:1039400041604FF0053140F804194FF00431016037
:1039500070477047704714480188491C89B201803C
:103960008C2903D300210180FFF7DABE704770472E
:1039700000B585B06846FCF791FF01984FF4AF6140
:10398000B0FBF1F0B0F1807F0CD220F07F414FF01E
:10399000E020491E4161054AF0211170002181613A
:1039A0000721016105B000BD8C00002023ED00E07F
:1039B000EFF3108072B6704780F3108870471E488E
:1039C0004FF08051016070471B484FF080510160FB
:1039D00070471A484FF000010170002080F30988F9
:1039E00017480121017014484FF08051016062B600
:1039F000FEE772B6704762B67047EFF3098028B1F0
:103A0000203880E8F00F0F490968086000B50E48BB
:103A100080475DF804EB0D480D490A7802700948AB
:103A20000C490A680260106890E8F00F203080F3BB
:103A300009884EF0040E704704ED00E022ED00E02E
:103A400037000020500000205339000834000020C7
:103A5000350000205800002010B50022C0F30B00F4
:103A6000B0F5006F02DDA0F500600122B0F5806FB7
:103A700001DDC0F500608311FB4C00F03F00C0F198
:103A8000400134F813004843402906D004EB4303B7
:103A9000C1F140015B8803FB0100203081094842ED
:103AA000002A00D1084610BD00F58060D4E7EF4B36
:103AB0001A7D012A05D0521E02EBD272521002F07A
:103AC000E2BB9A6D526810472DE9F84F80460E46CA
:103AD000A2EB08049D1B91469A464FF0000B54EA56
:103AE00005002CD0204600F02BFA0746284600F0AF
:103AF00027FA87420ADA20462C4605464046B04659
:103B000006464846D14682464FF0010B201E00DC97
:103B10006042A04203D064426D42C846564604EB60
:103B2000D4704FEA6009002D01DAC9F10009DFF80D
:103B30003CA34FF000079AF81600A0B135E03146DB
:103B40004046BDE8F84FB2E705FB079090FBF4F064
:103B50003044BBF1000F0AD0DAF8582008EB070117
:103B6000526890477F1CA742EEDDBDE8F88FDAF877
:103B7000581008EB07034A6801461846F1E700BFF2
:103B800005FB079090FBF4F030440090384600F0BD
:103B90001DFA48B9BBF1000F0AD0DAF8580008EB5B
:103BA00007014268009890477F1CA742E8DDDCE7E8
:103BB000DAF8581008EB07004A680099F3E72DE996
:103BC000FF470746A94815468846027D1E46012A3A
:103BD0001CD0781BA8EB060150EA01036DD0A2F1BE
:103BE000010900F0B1F900F580608446FFF75CFF41
:103BF00000FB09F46046FFF72FFF00FB09F1002CE2
:103C00000ADAC4F500708012404208E004B02A4687
:103C10003846BDE8F04757E704F50074A0120029C4
:103C200004DAC1F500718912494202E001F5007120
:103C30008912002804DD421C02EBD272521003E00C
:103C400000EBD0725210401E00EBD07043100029E0
:103C500004DD481C00EBD070401003E001EBD17094
:103C60004010491EBC18ADF8004008EB0004ADF848
:103C70000240FC1A01EBD1714910ADF80440A8EBE9
:103C80000104EB1AADF80830711AADF80A10A91842
:103C9000ADF80C103044ADF80E000023ADF806402E
:103CA0001A460421684601F004F94146384600F0FE
:103CB000C8F93146284600F0C4F9BDE8FF872DE970
:103CC000F04104460D4616461F4602F0DFFF6749E5
:103CD000086C496C044406440D440F44002004F071
:103CE00044FB07E03B46324629462046FFF767FF84
:103CF00004F014FB0028F5D1BDE8F04102F0BEBF8E
:103D000070B55A4C05460E46B4F92810B4F9260091
:103D100033462A46FFF753FFE584268570BD534A94
:103D2000D084118570472DE9F04105460446904640
:103D3000B0F902000F461E46B4F90020811902EBCB
:103D40000800FFF7ECFF08E0B4F9060034F9042F8F
:103D5000811902EB0800FFF7D3FF7F1E002FF3DC71
:103D6000B4F90010B5F90000814205D1B4F9021090
:103D7000B5F90220914206D0B5F902104044314411
:103D8000BDE8F041BCE7BDE8F0812DE9F041064611
:103D90000F4614461D4602F079FF3448016C406C12
:103DA0000C440544002004F0E0FA07E02B462246CC
:103DB00039463046FFF7B7FF04F0B0FA0028F5D1D6
:103DC000BDE8F04102F05ABF70B504460D4602F05E
:103DD0005DFF264AD08C2044D084108D2844108565
:103DE000BDE8704002F04ABF70B504460D4602F0CF
:103DF0004DFF002004F0B9FA60B11C4EB6F928104E
:103E0000B6F926004B190219FFF7D9FE04F086FA1D
:103E10000028F3D129462046FFF7D6FFBDE87040C1
:103E200002F02CBF70B506460D4602F02FFF0F4C76
:103E3000206C0644606C0544002004F096FA09E00A
:103E400032462B46B4F92810B4F92600FFF7B7FE26
:103E500004F064FA0028F3D129463046FFF75FFFEB
:103E6000BDE8704002F00ABF9E49010880AA002008
:103E700070B505460C4602F009FF7549086C496C9F
:103E800028442144FFF74BFFBDE8704002F0F6BE26
:103E90002DE9FC4106460D461446984602F0F6FE12
:103EA0006B48037D016C406C8F190E195B1E054435
:103EB00000EB0804F81AADF80000F018ADF80400A3
:103EC000E81AADF80200E018ADF80600684604F004
:103ED0004CFA15E032462946384603F0EDF83246F2
:103EE0002146384603F0E8F8621E691C384603F0A4
:103EF0005DFA621E691C304603F058FA04F00EFAAF
:103F00000028E7D102F0BAFEBDE8FC8170B5054695
:103F10000C4602F0BBFE4E48016C406C0D4404445C
:103F2000002004F022FA05E021462846FFF7BFFDF5
:103F300004F0F4F90028F7D1BDE8704002F09EBE0D
:103F4000002800DC4042704710B50022002801DA4A
:103F500001224042002902DA42F002024942814233
:103F600004DD0B460146184642F00402890200EBCC
:103F7000D07301EB630191FBF0F080100311354C1D
:103F800000F00F00C0F1100134F91300484310296C
:103F900007D004EB4303C1F11001B3F9023003FB76
:103FA000010000F108004FEAE07100EB11704FEAE8
:103FB0002010510701D5C0F58060D10701D0C0F5B0
:103FC0000060910701D5C0F5805010BD20498A7D61
:103FD0000121012A06D0022A0FD0032A18D0042A70
:103FE00014D11EE0801DC21700EB127222F00F02E6
:103FF000821A08460C2A0ADB08E0C21700EB92720C
:1040000022F00302821A0846022A00DB00207047D1
:10401000142190FBF1F201FB12000C280FDB103889
:104020000BE0182190FBF1F201FB12000C2806DBDB
:10403000A0F11001022902D314380228E6D201208F
:104040007047034A527D002A00D130E570470000D6
:1040500080AA0020C04901082DE9F0410C4616460F
:10406000984688B301F0E3F8074608F003000128FA
:1040700025D0022817D0B4F9005000BF01F01EFE71
:10408000014608F00C0004282BD00C281DD0B4F9F0
:10409000020035807080EA19521E0844B280401E2A
:1040A000F080BDE8F081B4F90400B4F90010401AC2
:1040B000C01B401C00EBD07001EB6005DEE7B4F9DB
:1040C0000400C51B6D1CD9E710E0B4F90600B4F973
:1040D0000220801A401A401C00EBD07002EB6000F6
:1040E000D7E7B4F90600401A401CD2E720683060D8
:1040F00060687060D5E749B1002802DAA0EB610082
:1041000001E000EB610090FBF1F070470020704788
:1041100002460020002905D001EBD17002EB6000BF
:1041200090FBF1F07047000002488169087DC97D6D
:104130004843704780AA002031B50024009808B990
:1041400005E0641C684601F003FC0028F9D1204614
:1041500038BD016811F8012B12B10A2A02D002E021
:1041600001207047016000207047B0F90030B1F9BC
:104170000020934200DA0280B0F90230B1F9022047
:10418000934200DA4280B0F90430B1F9042093423E
:1041900000DD8280B0F90620B1F906108A4200DD08
:1041A000C180704770B5B1F90030B2F90040A34248
:1041B00000DC23460380B1F90240B2F90250AC4260
:1041C00000DC2C464480B1F90450B2F90460B542D9
:1041D00000DD35468580B1F90610B2F9062091421E
:1041E00000DD1146C1809D4201DBA14201DA0020C1
:1041F00070BD012070BD10B5830702D520F8021BE9
:10420000521E530810D001EB0144042B08DB04605C
:1042100044608460C46010301B1F042BF7DA01E097
:1042200010C05B1E002BFBD1D20700D0018010BD57
:1042300010B502E000F8011B521E0AB18307F9D144
:10424000930818D001EB014402F0030204EB0424AC
:1042500005E0046044608460C46010301B1F042BC0
:10426000F7DA01E010C05B1E002BFBD103E000BFBA
:1042700000F8011B521E002AFAD110BD0B8813440E
:1042800003808B889B1A83804B8813444380C988A2
:10429000891AC18070472DE9F04105460F46002676
:1042A000B0F9000000F02AF890B1384600F036F876
:1042B000401C00B201F02DFC040009D001F038FCD4
:1042C00039460EF021FB284601F081FC2C800126A6
:1042D0003046BDE8F081000000B90FA001B90EA181
:1042E00002780B789A4207D110F8012F491C002A56
:1042F000F6D10878002800D00120704710B50200E0
:104300000C464FF0000002D0104601F011FC21468F
:10431000BDE81040E0E70000000000004FF0FF3172
:1043200020B110F8012B491C002AFAD10846704729
:1043300070B50C46054600F009F8C1B22346284680
:10434000BDE87040002200F024B80000011E10B546
:104350004FF001000A4600DC4A42294B00E0401CB5
:1043600053F82040944201D80928F8DB002900DAEC
:10437000401C10BD10B5002802DA2D22404200E09A
:104380002B220B685C1C0C601A70096800220A70F2
:1043900010BDF0B5002807DA1C682D25661C1E60CC
:1043A00025704042012400E00024091BC9B20AB173
:1043B000491EC9B2124E56F82140844200D8601EF0
:1043C000DFF840C0B9B10C46491EC9B2944205D1CC
:1043D0001C689CF80070651C1D60277056F8215001
:1043E00090FBF5F4E4B204FB15001D6830346F1C3B
:1043F0001F602C70E6E7196800200870F0BD00000F
:10440000E4490108E900002070B505460C4602F0B9
:104410003DFC64B1204601F07CFB06000CD001F0AD
:1044200087FB22462DB129460EF0BDFA04E000209C
:1044300070BD0021FFF7FCFE02F020FC304670BD8D
:1044400070B5054602F022FC284601F062FB04002C
:1044500005D001F06DFB2A460021FFF7E9FE02F0CE
:104460000DFC204670BD10B5C2B2CBB2D21A02D537
:10447000C2F1000212B293B25B43C0F30722C1F350
:104480000724121B01D5524212B2000C92B2A0EBCB
:10449000114002FB023200B2002801DA404200B2B1
:1044A00080B200FB002010BDB0F90630B0F9042046
:1044B000B0F90210B0F9000002F04EB810B5044691
:1044C00002F0E4FB204602F044FF00B202F045FF98
:1044D000044602F0D3FB204610BD10B50446FFF79A
:1044E000EDFFA04201D1012010BD002010BD10B58C
:1044F0000446FFF7E3FF01462046BDE81040FFF702
:10450000B2BF00007CB5294C0546608C216C084484
:104510006084A08C616C0844A084284601F01DFCD6
:10452000618CADF800100844401EADF8040000F0A6
:1045300074FEA18CADF802100844401EADF80600D0
:10454000684603F012FF04E0284601F0D2FB03F0B6
:10455000E5FE0028F8D10A2D03D0BDF80400401C68
:104560006084608C216C401A6084A08C616C401A5D
:10457000A0847CBD10B5044602F088FB2046FFF7FE
:10458000C1FFBDE8104002F079BB70B506460D468C
:10459000144602F07BFB054930464D848C84FFF7BE
:1045A000B1FFBDE8704002F069BB000080AA0020A6
:1045B0002DE9FC47060075D002F068FB01F07EFB98
:1045C000394C8146B4F9228001F0ADFBA18C07463D
:1045D000C81BA0843DE000BF47F6FF71304601F0E4
:1045E000F2FB82460146304601F005FC0546A08DEF
:1045F00000F0030001283ED0022838D00020618C52
:104600006A46081A6084ADF80000691E0844ADF8D7
:104610000400A08CADF80200A9F101010844ADF836
:1046200006005146304601F0FDFBBDF80200A084B3
:104630005146304601F09FF9064430780A281CD0D4
:104640000D281AD0BDF8000028446084307818B1D5
:10465000761C30780028BFD1A08C3844A084A08D6F
:1046600020F00300A085BDE8FC4702F007BB05EB86
:10467000D5704010C3E72846C1E7A08D00F00300C5
:1046800001280CD002280AD0208C608430780A28B7
:10469000DCD1A18C01EB0900A084D7E702E0A4F8EB
:1046A0002280F3E7BDE8FC8780AA002070B50646AB
:1046B0000D46144602F0EAFA0448458484843046E4
:1046C000FFF776FFBDE8704002F0D8BA80AA00205C
:1046D0002DE9F04105460A480E461746B0F92C0070
:1046E00040F0020000F0D6FF04463A463146284624
:1046F000FFF7DCFF2046BDE8F04100F0CBBF000033
:1047000080AA00202DE9FF4F85B000240D46904679
:104710009A46A146DDF814B000F07FFD064625B1AB
:10472000286800906868019002E0684600F044FD47
:1047300018F00C0F02D05546012713E0BDF90240D6
:104740002DE02946059801F03EFB01466D1A0598BB
:1047500001F011F905990844059005A8FFF7F9FC47
:1047600010B97F1C002DECD108F00C00042804D0F7
:10477000082802D00C2812D105E0BDF9060007FB7D
:104780001604641C0BE0BDF90600BDF90210401AC6
:1047900007FB1600401C00EBD07001EB600455468F
:1047A000CDF814B042E02946059801F00CFB07460D
:1047B0000146ED1B059801F01EFB18F003010ED019
:1047C000012938D002290DD1BDF90410BDF900200E
:1047D000891A091A01EBD17102EB610101E0BDF9FF
:1047E000001089462A4A401E4844A2F82290ADF89B
:1047F0000C00ADF808909484A019401EADF80E008E
:10480000ADF80A4002AA3946059801F00BFB39467B
:10481000059801F0B0F805990844059001F04EFAAA
:10482000044405A8FFF795FC002801D1002DBAD15A
:1048300009B0BDE8F08FBDF90410091A491CD0E792
:104840002DE9FC4106000D46174698461BD0002472
:1048500002F01CFA65B1284604F0E8FE040007D017
:10486000024629466846FFF79DFC684604F0DEFED6
:1048700043463A4629463046FFF744FF204604F0B7
:10488000D5FE02F0FBF9BDE8FC8147F6FF73D7E7E0
:1048900080AA00202DE9F0430446C56887B0884609
:1048A0009146002000F0A6FE064620F002001DB151
:1048B000297909B146F0020000F09CFE206901252B
:1048C00058B1D4E902128DE8260003950768638881
:1048D000228849464046B84708E0E06802F085FE75
:1048E00020B9E1880020012900D11F48A288E3886F
:1048F000A1680095CDE90410CDE9023201956388E5
:1049000022884946404602F012FC07B03046BDE816
:10491000F04300F06FBE7CB506460D46144602F02B
:10492000B5F91148016C406C0D4404443188681E8F
:104930000844ADF80400ADF800507188601E0844CA
:10494000ADF80600ADF80240684603F00EFD06E043
:10495000224629463046FFF79DFF03F0DFFC002882
:10496000F6D102F08BF97CBD80AA00202DE9FF4F23
:1049700093B00020DDF888B004901090AA480C464F
:10498000B0F906100A91B0F90A000990139821991C
:10499000B0F8009040880E9021984042002900DB3A
:1049A00008460B9004DAA9EB03030B98A3F101036B
:1049B00043434FF47A7193FBF1F0201A149020983E
:1049C000404200FB0BF0FFF796FB1599BBF1000F7F
:1049D00000EB010808F101004FF0FF310C9000DB03
:1049E000012113980891C06818B1007908B101201D
:1049F000109000208DE0014620984446081A401C83
:104A000000FB0BF04FF47A71FFF775FB159900EB83
:104A100001080C9884427AD00C940A9884426CDB8A
:104A20000998844269DC00254FF0FF30CDE911057B
:104A30002E462F4655E00B980644B6F57A7F4FDB9D
:104A400021983946002802DCA9EB0701491E52468D
:104A5000139800F06BFB80B204990190884202D158
:104A60001198401C35D1019870B9109860B1129816
:104A700068B31498119942190844521E214602F055
:104A80001BFB0020129022E0129850B11198401C9C
:104A900007D01498119942190844521E214602F079
:104AA0000BFB0120CDE911501398006918B1416842
:104AB0000198884705E01398C0688168019851F80B
:104AC00020005949896C0968884702F0B5FA0198B5
:104AD00004904FF47A706D1CA6F57A768642FADA65
:104AE0007F1C4F45A7DB129838B1149811994219D1
:104AF0000844521E214602F0DFFA0898BBF1000F6D
:104B0000044402DA444588DC01E0444585DB0AF1CF
:104B100001000E9982468842FFF66DAF17B0BDE8DE
:104B2000F08F2DE9F04F87B08146DDE911670C4623
:104B300015469A46DDF8408002F0A8F800F061FBC7
:104B4000059039484FF47A7B016C406C0C44054465
:104B5000CAF100007043002E594611DBFFF7CBFA73
:104B60002044ADF80C00B9F80010A1EB0A00401E7B
:104B700070435946FFF7BFFA2044ADF8100010E02B
:104B8000FFF7B9FA2044ADF81000B9F80010A1EB16
:104B90000A00401E70435946FFF7ADFA2044ADF8B5
:104BA0000C00C8F100007843002F594611DBFFF7D5
:104BB000A2FA2844ADF80E00B9F80210A1EB0800E3
:104BC000401E78435946FFF796FA2844ADF8120084
:104BD00010E0FFF790FA2844ADF81200B9F802107F
:104BE000A1EB0800401E78435946FFF784FA284499
:104BF000ADF80E0003A803F0B8FB0BE0CDF8008081
:104C000053462A4621464846CDE90167FFF7AEFEE6
:104C100003F084FB0028F1D1059800F097FC02F026
:104C20002DF807B07BE7000080AA00201CB50A46DB
:104C300001466846FFF722FB02F028F82348BDF83A
:104C40000020016C0A44ADF80020BDF80220406C41
:104C50000244ADF80220BDF804201144ADF8041060
:104C6000BDF806100844ADF80600684603F07DFB69
:104C700027E000BFBDF900400BE000BFBDF9021006
:104C8000204602F0F9F9BDF90610204602F0F4F9C9
:104C9000A41CBDF90400A042F0DABDF902400AE00C
:104CA000BDF90000214602F0E7F9BDF904002146F4
:104CB00002F0E2F9A41CBDF90600A042F0DA03F00C
:104CC0002DFB0028D6D101F0D9FF1CBD80AA002001
:104CD0002DE9F04106460F4614461D4601F0D6FF69
:104CE0003248016C406C0C440544002003F03DFB4D
:104CF00007E02B4622463946304600F008F803F01C
:104D00000DFB0028F5D1BDE8F04101F0B7BF2DE95A
:104D1000FC5F824625480F46164600699B460025E3
:104D2000B0F90280B0F9069060B1B0F90010B1425C
:104D300000DD8D1BF119B0F90400491E814201DD2F
:104D4000871B7F1CBD422FDA3AF91510194428E061
:104D50003AF91520414502EB0B0401DA44451FDB0B
:104D6000494501DD4C451BDC601800EBD07040105C
:104D7000009005EB06000190A142A0F1010006DCC5
:104D8000009A02F013FBDDE90010224606E00A4615
:104D9000009902F00BFBDDE90020214602F006FB42
:104DA00021466D1CBD42D3DBBDE8FC9F80AA0020DC
:104DB0002DE9FC4105460E46174601F067FF104CF1
:104DC000206C616C064407440D44ADF80060ADF8FA
:104DD0000470ADF80250ADF80650684603F0C5FA0D
:104DE00007E0A06D3A46294603683046984703F02D
:104DF00095FA0028F5D101F041FFBDE8FC810000E3
:104E000080AA00207CB506460C46154601F03EFF00
:104E10000E48016C406C0E4404440544ADF800603B
:104E2000ADF80460ADF80240ADF80650684603F0F6
:104E30009CFA06E02A462146304602F0B7FA03F013
:104E40006DFA0028F6D101F019FF7CBD80AA002080
:104E50000B4810B50068002410B1804700B1012450
:104E600003F002FC00B10124204610BD10B500245F
:104E700000E00124FFF7ECFF0028FAD1204610BD26
:104E8000EC00002030B58B4C23680C2B10DA8A4ADA
:104E9000190009D002EB410535F9025C854203DBBC
:104EA00022F81150491EF5D122F811005B1C236035
:104EB00030BD2DE9FF4F40F6FF740F46664283B0C8
:104EC00081469B4600210AE009EB8100B0F902000F
:104ED000A04200DA0446B04200DD0646491CB94251
:104EE000F2DB7648006900280CD0B0F90620D11A10
:104EF000B14200DA0E46B0F90210A1EB0B00A0425D
:104F000000DD0446B1E000BF6A494FF0000A554693
:104F1000C1F800A085E0791E50468D4200DA681C79
:104F200009EB850309EB8002B3F90210B2F90280A4
:104F30008C46A14240D1A04515D139F925200599CB
:104F4000531839F92020059804EB0B0110445B4AF3
:104F50008342926DD2F800C002DA0246184600E0A1
:104F60001A46E0475CE0284622460023A7F1010CE0
:104F70000AE0411E00B9791E084609EB8001B1F92B
:104F80000210914203D15B1C6345F2DB2146A14232
:104F900046D039F92500A1EB0402A8EB0403DDF8A3
:104FA00014C05A403AD4454A604404EB0B01926D58
:104FB00013680246984733E04046A04530D001DBF5
:104FC000A14203DDA4452BDBA04529DC414509DCDA
:104FD0006046A44524DCA04522DBB3F90010B2F9F9
:104FE000002009E0A446A0421ADC8846614517DB90
:104FF000B2F90010B3F90020231A521A5A43002ABA
:10500000A8EB000302DD02EB630202E0A2EB630205
:10501000521CA8EB000092FBF0F00844FFF732FFAF
:105020006D1CBD42FFF677AF0598009004EB0B00B6
:10503000019000208046054612E01F49B8F1000F9C
:1050400031F915A008D0009901EB0A0208441B4968
:10505000896D0B680199984788F0010850466D1CCE
:10506000144909688D42E8DB641CB4427FF74CAFF9
:1050700007B0BDE8F08F2DE9F04106460F46144613
:105080001D4601F003FE0D48016C406C0C440544C4
:10509000002003F06AF907E02B46224639463046E5
:1050A000FFF707FF03F03AF90028F5D1BDE8F0411A
:1050B00001F0E4BD900000207848002080AA002084
:1050C0002DE9FC4104460D4616461F4601F0DEFD63
:1050D0001049086C496C044406440D440F44ADF873
:1050E0000040ADF80460ADF80250ADF806706846B7
:1050F00003F03BF907E03B4632462946204601F0E3
:10510000F6FF03F00BF90028F5D101F0B7FDBDE87B
:10511000FC81000080AA0020B0F90630B0F904201C
:10512000B0F90210B0F90000FFF7CABFC388042B22
:1051300028D004DC012B08D0022B04D113E0082B6B
:105140002CD0102B30D000207047838880685343C8
:1051500003EBD10201F00701805CC1F10701C840F7
:1051600000F00100704783888068534303EB91028D
:10517000805C062202EA4101C1F10601C84000F04C
:105180000300704783888068534303EB5102C907CB
:10519000825C02F00F00F4D11009704783888068A8
:1051A00002FB0311405C704783888068534303EB24
:1051B0004101084400887047002801D003F029BD50
:1051C000704710B501F062FD02F00EF9044601F0DF
:1051D00055FD204610BD10B501F058FD02F004F950
:1051E00002F0BBF8044601F049FD204610BD10B5A1
:1051F00001F04CFD02F0FBF8044601F03FFD2046B3
:1052000010BD10B501F042FD02F0F1F802F0A5F872
:10521000044601F033FD204610BD10B501F036FD07
:10522000FEF782FF044601F029FD204610BD10B5AF
:105230000446FFF773F801462046BDE8104000F031
:10524000DABD00000448332101703921817030211A
:10525000C17061210171704794000020017DC07D03
:1052600048437047417DC07D4843704710B50446B0
:1052700001F00CFD204600F023F8044601F0FEFC8E
:10528000204610BD10B5044601F000FD204600F098
:105290001BF8044601F0F2FC204610BD70B505462F
:1052A0000C4601F0F3FC284600F00EF805462046B7
:1052B00000F006F840EA050401F0E0FC204670BD6D
:1052C00003498884002070470149488400207047C2
:1052D00080AA00202DE9FC4104460D4616461F46D3
:1052E00001F0D4FC012000F085F912498046086CD9
:1052F000496C044406440D440F44ADF80040ADF839
:105300000460ADF80250ADF80670684603F02DF861
:1053100007E03B4632462946204601F0E8FE02F00F
:10532000FDFF0028F5D1404600F064F901F0A6FC2D
:10533000BDE8FC8180AA002010B5002821D009B367
:105340000AB3B1F90030B2F90040A34200DD2346B0
:105350000380B1F90230B2F90240A34200DD2346D6
:105360004380B1F90430B2F90440A34200DC234683
:105370008380B1F90610B2F90620914200DC114693
:10538000C18010BD11460A6802604968416010BDC5
:1053900000280BD003880B44038083881944818044
:1053A000418811444180C1881144C1807047000088
:1053B0002049002248684A6070471E494A68002A0E
:1053C00000D14860704700B5FFF7F2FF0028FBD11D
:1053D00000BD184A0832C2E90001164901200860E0
:1053E000704770B5002401F051FC1249086878B18B
:1053F000401E01F108040860D4E90051284603F07A
:1054000073FE6068012802D12846FFF7D6FF012409
:1054100001F034FC204670BD70B504460D4603F023
:1054200063FE002804D129462046BDE87040D0E73D
:1054300070BD00009C00002010B501F027FC124850
:10544000047D01F01BFC204610BD10B501F01EFCD0
:105450000D48447D01F012FC204610BD70B5054694
:1054600001F014FC0848047D057501F007FC204696
:1054700070BD70B5054601F009FC0348447D4575D3
:1054800001F0FCFB204670BD80AA00200C4B0ECB27
:1054900080E80E00007A002800D00120704710B587
:1054A00009490446074808600C22214604480DF0CB
:1054B00001FA002802D002480ECC0EC010BD000038
:1054C00090480020FF970008F0000020B0F902206B
:1054D000B1F906309A4213DCB1F90220B0F9063076
:1054E0009A420DDCB0F90020B1F904309A4207DC91
:1054F000B1F90010B0F90400814201DC01207047CD
:1055000000207047602204490DF0D4BA01466022A1
:1055100001480DF0CFBA000080AA002010B501F0BC
:10552000B5FB01F081FF01F09FFF03F0F3F8BDE848
:10553000104001F0A3BB10B5044601F0A7FB2046C4
:1055400001F00FFFBDE8104001F098BB10B5044614
:1055500001F09CFB204601F010FFBDE8104001F077
:105560008DBB000010B5044601F090FB0C496FF0B4
:1055700070404863204601F068FDBDE8104001F02E
:105580007DBB10B5044601F081FB05496FF070400A
:105590000863204601F050FDBDE8104001F06EBBED
:1055A00080AA002010B50020FFF7C5FF6FF07F40F4
:1055B000FFF7CCFF0120FFF751FF002000F06AF851
:1055C000002000F075F8002000F014F8084800F002
:1055D0001DF8BDE81040002000F026B810B501F01D
:1055E00055FBFFF7DFFFBDE8104001F047BB0000AF
:1055F0009456010810B5044601F048FB204601F01E
:105600002DFD044601F03AFB204610BD70B5054D56
:105610000446AE6901F03AFB04B1AC6101F02EFB27
:10562000304670BD80AA002070B5054601F02EFB03
:105630000348847D857501F021FB204670BD000084
:1056400080AA002070B504460D4601F01FFB2946D4
:10565000204609F0D0FCBDE8704001F00FBB00000F
:105660000B4B30B4B3F9044084420FDCB3F908406B
:1056700084420BDBB3F906408C4207DCB3F90A40E5
:105680008C4203DB9B6C5B6A30BC184730BC7047B4
:1056900080AA002070B5044601F0F8FA0348B0F97A
:1056A0002C50848501F0EAFA284670BD80AA0020BB
:1056B00070B5044601F0EAFA0348B0F92A5044856F
:1056C00001F0DCFA284670BD80AA00200D4910B513
:1056D00091E81C001CC0087A002800D0012010BDF1
:1056E00010B504460C2207490DF0E4F8002808D054
:1056F000044894E80E000EC02046BDE81040FFF7B5
:10570000CEBE10BD9C48002030B403465F4A0C4614
:10571000401C07D0601C05D05068411C02D0916825
:105720004D1C02D14FF0FF300146C2E9013430BCBC
:1057300000F0C0B85548C0687047544800697047C9
:10574000524872212430016040F2A27141607B21F5
:10575000816040F2AC71C16070472DE9F84F0400E0
:105760000E460A9D174699464FF0000040F2DF11A1
:1057700001D040F20F118846591B00D54942142927
:1057800004DBF11B00D54942142902DA0120BDE8EF
:10579000F88F4B463146009500F06DF8DFF8ECA02D
:1057A0004B460AF1240A3A464AF83400314640464C
:1057B000009500F060F80AEBC40148600020E6E7BD
:1057C000324B10B5243353F8304003EBC0000C606B
:1057D0004068106010BD70B52C4D2C4C2435D5E9B7
:1057E0000001884202DAC4E9050101E0C4E90510BC
:1057F000D5E90201884202DAC4E9070101E0C4E9FF
:1058000007102078B0B10AF0E0F9E0600AF0DAF9A8
:10581000D4E903106269904208DBA269904205DC7A
:10582000E269914202DB226A91420BDD4FF0FF30C8
:1058300001461BE00AF0D0F920610AF0C4F9207893
:10584000401C16E02A68801A00EB4013C3EB40208E
:105850006B689A1A90FBF2F0AA68891AC1EB0113DF
:1058600003EB0121EB689A1A91FBF2F1FFF74CFF71
:105870000020207070BD10B5401A029CE41A444309
:10588000501A94FBF0F0184410BD0000AC0000204A
:10589000074A002806DB002904DB01231372C2E952
:1058A000000101E0002010720148FFF719BF00005D
:1058B000A848002030B40D4C2268831A01D5C3F1EA
:1058C000000362688A1A00D552421A44022A04DD93
:1058D000C4E9000130BCFFF7DBBF30BC7047034AAE
:1058E000136803605068086070470000E000002003
:1058F00010B5044601F0CAF93148C0694168204634
:105900008847044601F0BAF9204610BD10B5044698
:1059100001F0BCF92A48C06901682046884704465E
:1059200001F0ACF9204610BD70B504460D4601F0FB
:10593000ADF923482946C069C2682046904704460D
:1059400001F09CF9204670BD1D49C9698968084766
:105950002DE9F0411A4E04460568F06901682846B1
:1059600088470746F06941682846884728442060F0
:105970003846BDE8F0812DE9F04106460C46002589
:105980000F4F05E0F86941683046884706440544F2
:10599000641EF7D22846ECE72DE9F0410025804649
:1059A0000E462C46064F06E0F96908EB04004968EC
:1059B000884704446D1CA642F6DC2846D9E700005F
:1059C00080AA0020007870470120704701207047AE
:1059D00001700120704710B501F058F904490348DF
:1059E000C861BDE8104001F049B90000FC4D010854
:1059F00080AA0020AD4840F27221042241608160FB
:105A000044F62061C1810182002101608181A848A2
:105A1000428001808180A7490120087070472DE9EC
:105A2000F041044600F03CF9E41CDFF8808224F0E9
:105A3000030005B2B8F90E00A84268DB9C4C0120B7
:105A400040F2732104EBC00252881AB1401C884214
:105A5000F8DB5CE006B2EEB300200AE034F9303047
:105A6000B2F902201A4434F931309A1AAA4211DAF2
:105A7000084604EBC00291880029EFD104EBC00274
:105A800034F93010B2F90220114444F62062521A5F
:105A9000AA4202DB00B2411C04D1284600F0C6F83D
:105AA000411C34D004EBC00234F830105388CF18B6
:105AB00004EBC60391885D8024F83670998011B19B
:105AC00004EBC101CE80D8809680D8F80010404603
:105AD000491C00E01BE0C8F80010D8F80410491E6B
