:020000040800F2
:10000000581C0020F1010008DD0C0008DF0C00087E
:10001000E10C0008E30C0008E50C000800000000FB
:10002000000000000000000000000000E70C0008D5
:10003000E90C000800000000EB0C0008EF0C0008C1
:100040000B0200080B0200080B0200080B0200085C
:100050000B0200080B0200080B0200080B0200084C
:100060000B0200080B0200080B0200080B0200083C
:100070000B0200080B0200080B0200080B0200082C
:100080000B0200080B0200080B0200080B0200081C
:100090000B0200080B0200080B0200080B0200080C
:1000A0000B0200080B0200080B0200080B020008FC
:1000B0000B0200080B0200080B0200080B020008EC
:1000C0000B0200080B0200080B0200080B020008DC
:1000D0000B0200080B0200080B0200080B020008CC
:1000E0000B0200080B0200080B02000800000000D1
:1000F0000000000000000000000000000000000000
:1001000000000000000000000B0200080B020008C5
:100110000B0200080B0200080B0200080B0200088B
:100120000B0200080B0200080B0200080B0200087B
:100130000B0200080B0200080B0200080B0200086B
:100140000B0200080B0200080B0200080B0200085B
:1001500000F002F800F03CF80AA090E8000C82449D
:100160008344AAF10107DA4501D100F031F8AFF27A
:10017000090EBAE80F0013F0010F18BFFB1A43F085
:10018000010318470042000020420000103A24BF3B
:1001900078C878C1FAD8520724BF30C830C144BFEC
:1001A00004680C607047000000230024002500262E
:1001B000103A28BF78C1FBD8520728BF30C148BFCA
:1001C0000B6070471FB504F055F81FBD10B510BD8A
:1001D00004F01DF81146FFF7F5FF00F09BFE04F058
:1001E0003BF803B4FFF7F2FF03BC00F0A1FE0000F0
:1001F0000948804709480047FEE7FEE7FEE7FEE7BB
:10020000FEE7FEE7FEE7FEE7FEE7FEE704480549F6
:10021000054A064B70470000D9020008510100084A
:1002200058160020581C002058180020581800208C
:100230005E480021026842F4803202604FF4A063FD
:10024000026801F1010112F4003F01D19942F7D196
:10025000016889033FD556490A6842F010020A60D6
:100260000A6822F003020A600A6842F002020A6089
:100270004168416041684160416841F4806141608A
:10028000C16A4C4A1140C162C16A4B4A1143C16202
:10029000016841F08061016001680901FCD5416895
:1002A00021F47C114160416841F4E811416001682A
:1002B00041F08071016001688901FCD5416821F03D
:1002C00003014160416841F0020141604168C1F3AE
:1002D00081010229FAD17047344810B5016841F014
:1002E000010101604168354A114041600168344AAA
:1002F00011400160016821F480210160416821F40E
:10030000FE014160016821F0A05101604FF47F01BE
:1003100081600021C162FFF78BFF2A494FF0006026
:10032000086010BD70B521484168274B11F00C02E0
:10033000264904D0264C042A03D0082A03D00B6097
:1003400029E00C6027E04268436802F47012920CC6
:1003500003F480330D2A01D0921C00E00622BBB1C9
:10036000C36A13F4803FC36A03F00F0303F1010370
:100370000AD0C56AC66AC5F303156D1CB4FBF5F453
:10038000C6F30326B61C7443B4FBF3F35343D6E71A
:10039000104B5A430A6040680C4AC0F30310121D08
:1003A000105C0A68C2400A6070BD00000010024084
:1003B0000020024000F0FEFF440601000000FFF0B4
:1003C000FFFFF6FE08ED00E000127A0000000020BA
:1003D00040787D0100093D00904910B5884206D162
:1003E0000121042000F09BFA002104203BE08C490D
:1003F000884206D10121082000F091FA002108204E
:1004000031E08849884206D10121102000F087FAA6
:100410000021102027E08449884206D101212020B4
:1004200000F07DFA002120201DE08049884206D19D
:100430000121402000F073FA0021402013E07C49A4
:10044000884206D10121802000F069FA0021802035
:1004500009E0784988420AD184150121204600F03C
:100460005EFA00212046BDE8104000F058BA10BDE9
:1004700010B50121084600F052FA0021BDE81040F5
:10048000012000F04CBA2DE9F041CB78002503F0B3
:100490000F02DB0601D58B781A430B884FF00F084B
:1004A00013F0FF0F4FF0010C1BD004680E880CFAFC
:1004B00005F31E409E4210D1AF0008FA07F624EA69
:1004C000060602FA07F43443CE78282E02D0482ECE
:1004D00002D002E0436100E003616D1C082DE5D30A
:1004E00004600B88FF2B1DD94468002505F1080620
:1004F0000CFA06F30E881E409E420FD1AF0008FA98
:1005000007F624EA060602FA07F43443CE78282ECA
:1005100000D14361CE78482E00D103616D1C082DB7
:10052000E4D34460BDE8F0814FF6FF710180022101
:1005300081700421C17070470246002092680A420F
:1005400000D001207047806880B2704702460020CA
:10055000D2680A4200D001207047C06880B270475C
:1005600001617047416170470AB1016170474161A3
:100570007047C160704741F480328261816182615D
:100580008169806970472C4B10B51A684FF68074EA
:10059000224042EA00100843186010BD2749C86194
:1005A0007047F0B5244C002801DAE36900E0636885
:1005B000420D120185B2C0F301579540C0F30346C6
:1005C000032F05D0C2020AD50322B240934307E0AD
:1005D00023F07062636823F07063636002E0AB43F2
:1005E00043F0706201B12A43002801DAE261F0BDF4
:1005F0006260F0BD10B58A0721F003040E49130FA5
:1006000021440F228C689A4094438C608A689840F9
:1006100002438A6010BD0A49086070470008014023
:10062000000C01400010014000140140001801407E
:10063000001C014000200140000001400000204259
:10064000DC002042CC48016841F0010101604168B2
:10065000CA4A114041600168C94A114001600168FD
:1006600021F480210160416821F4FE0141600168AC
:1006700021F0A05101604FF47F0181600021C1622F
:100680007047BD490A6822F480320A600A6822F481
:1006900080220A60B0F5803F07D0B0F5802F03D1EB
:1006A000086840F4A02008607047086840F4803073
:1006B000F9E7024600205309AF49012B0AD0022B6B
:1006C0000AD0496A02F01F02012393400B4200D076
:1006D000012070470968F5E7096AF3E730B500249F
:1006E0004FF4A0653120FFF7E4FF641CAC4201D059
:1006F0000028F7D03120FFF7DCFF002800D00120D0
:1007000030BD9D490A6822F0F80242EAC000086044
:1007100070479C4908607047974A5368084323F420
:100720007413184350607047964908667047924B9F
:1007300010B5DA6A944C084322401043D86210BDC9
:100740008D4AD16A21F0F0010143D16270478A4A93
:10075000D16A21F470610143D1627047894988668A
:100760007047854AD16A21F470410143D1627047D4
:10077000844908677047804A516821F003010143AA
:10078000516070477C48406800F00C0070477A4A1E
:10079000516821F0F001014351607047764A516879
:1007A00021F4E06101435160704773494A6822F4C3
:1007B000605242EAC000486070476F4A0029517A8F
:1007C00001D0014300E08143517270476F490860D6
:1007D0007047694A516821F44041014351607047B4
:1007E0006B49086070476A49091D0860704769498C
:1007F00000220A7001F82029012802D0042802D121
:10080000052081F8200070476349086070475A4905
:100810000A6A02430A6270475F49443908607047B8
:1008200070B555494A685D4B12F00C0204D05C4D1E
:10083000042A03D0082A03D0036029E0056027E0DA
:100840004A684B6802F47012920C03F480330D2A4C
:1008500001D0921C00E00622BBB1CB6ACC6A13F433
:10086000803F04F00F0404F101040AD0CB6AC3F303
:100870000316CB6A761CB5FBF6F5C3F303239B1C6A
:100880005D43B5FBF4F35343D6E7464B5A4302604E
:100890004A68454B02F0F00212099C5C0268E24093
:1008A00042604C6804F4E064240A1C5D22FA04F4FB
:1008B00084604C6804F46054E40A1B5DDA40C26052
:1008C0004968394B01F44041890B1B1F595CB2FB4D
:1008D000F1F1016170BD284A0029516901D001433D
:1008E00000E0814351617047234A0029916901D09A
:1008F000014300E08143916170471F4A0029D1699B
:1009000001D0014300E08143D16170471A4A0029B8
:10091000916A01D0014300E0814391627047164A19
:100920000029D16801D0014300E08143D1607047C4
:10093000114A0029116901D0014300E0814311618E
:10094000704715494039086070470E49C8647047C0
:100950000949C87170470848416A41F08071416295
:100960007047054A0146002092680A4200D00120E3
:100970007047014988727047001002400000FFF084
:10098000FFFFF6FE00004242F0FFFEFFD8004242A9
:10099000C4054242201002408004424200127A0004
:1009A00040787D0100093D0018000020C64910B5BF
:1009B00088420AD101218C032046FFF7B0FF204670
:1009C000BDE810400021FFF7AABFC049884202D10C
:1009D00001214C0410E0BE49884202D101218C045F
:1009E0000AE0BC49884202D10121CC0404E0BA49A2
:1009F00088420AD101210C052046FFF799FF2046C5
:100A0000BDE810400021FFF793BF10BD30B504468C
:100A1000008A85B00D464CF6FF710840E988014315
:100A20002182A1894EF6F3100140A8882A8910433B
:100A30006A890A431043A081A08A4FF6FF4108400B
:100A4000A9890143A1826846FFF7EAFE9E488442D5
:100A500001D1039800E00298A1890904002900EB64
:100A6000C00101EB0010296802DA4FEA410101E000
:100A70004FEA8101B0FBF1F06422B0FBF2F14FEAE2
:100A800001114FEA11136FF018056B4300EB83005F
:100A9000A3891D044FF0320306D503EBC000B0FB61
:100AA000F2F000F0070005E003EB0010B0FBF2F0FD
:100AB00000F00F000843208105B030BD4FF41651FF
:100AC000016000218180C18001810C2242818181ED
:100AD000704710B5038A4FF2FF0213400A884C8812
:100AE00022438C88C9880C4322431A43028210BDDA
:100AF0000021018041808180C18070470029818967
:100B000002D041F4005101E021F40051818170478D
:100B100010B5C1F3421301F01F040121A140012BC4
:100B200007D0022B07D01430002A026805D00A43F0
:100B300004E00C30F8E71030F6E78A43026010BD9D
:100B4000002A828A01D00A4300E08A4382827047E9
:100B5000028A22F00F020282028A0A43028270474E
:100B6000828922F40062828182890A4382817047ED
:100B70000029818902D041F0020101E021F0020147
:100B800081817047028A22F020020282028A0A438F
:100B9000028270470029018A02D041F4804101E0BD
:100BA00021F4804101827047C1F3080181807047C0
:100BB0008088C0F308007047818941F0010181817C
:100BC0007047028BD2B20283028B42EA0121018379
:100BD0007047028B02F47F420283028B0A43028336
:100BE00070470029818A02D041F0200101E021F004
:100BF0002001818270470029818A02D041F01001D2
:100C000001E021F01001818270470029818A02D021
:100C100041F0080101E021F00801818270470029BC
:100C2000818902D041F4004101E0C1F30E018181CC
:100C300070470029818A02D041F4006101E021F46B
:100C4000006181827047828A22F004028282828A55
:100C50000A43828270470029818A02D041F0020152
:100C600001E021F0020181827047024600201288D3
:100C70000A4200D001207047C9430180704770B517
:100C800001F01F0601220025C1F3421302FA06F407
:100C9000012B0FD0022B0FD0838A4FEA112100883D
:100CA000234202FA01F200EA020001D000B101255C
:100CB000284670BD8389F0E7038AEEE70A0A01211E
:100CC0009140C94301807047003801400044004012
:100CD00000480040004C0040005000407047FEE7D4
:100CE000FEE7FEE7FEE77047704700F01CBA10B55C
:100CF00000F0F4F9064A1178491C117000F0F2F97D
:100D000001F00AF9BDE8104001F0B2B87047704731
:100D10003200002008B50121A020FFF7E5FD9C204E
:100D2000ADF8000010208DF8030003208DF80200BC
:100D300069460948FFF7A7FB69460848FFF7A3FB88
:100D400008BD704710B500F037F94FF4E13000F0FE
:100D50001BF9BDE81040DDE7001C01400014014014
:100D6000694E4FF4FA744FF4967504213046FFF73C
:100D7000F9FB08213046FFF7F5FB10213046FFF75D
:100D8000F1FB80213046FFF7EDFB204600F067FEC7
:100D900004213046FFF7E4FB08213046FFF7E2FB71
:100DA00010213046FFF7DEFB80213046FFF7DAFBEB
:100DB000204600F054FE04213046FFF7D1FB082105
:100DC0003046FFF7CDFB10213046FFF7CBFB8021EB
:100DD0003046FFF7C7FB204600F041FE04213046B5
:100DE000FFF7BEFB08213046FFF7BAFB1021304663
:100DF000FFF7B6FB80213046FFF7B4FB204600F03A
:100E00002EFE04213046FFF7ABFB08213046FFF7EA
:100E1000A7FB10213046FFF7A3FB80213046FFF7E8
:100E20009FFB284600F01BFE04213046FFF79AFB8B
:100E300008213046FFF796FB10213046FFF792FB62
:100E400080213046FFF78EFB642000F008FE04216D
:100E50003046FFF785FB08213046FFF781FB102164
:100E60003046FFF77DFB80213046FFF779FB2846AF
:100E700000F0F5FD04213046FFF774FB08213046F1
:100E8000FFF770FB10213046FFF76CFB80213046E6
:100E9000FFF768FB642000F0E2FD04213046FFF715
:100EA0005FFB08213046FFF75BFB10213046FFF760
:100EB00057FB80213046FFF753FB284600F0CFFD5B
:100EC00004213046FFF74EFB08213046FFF74AFB6E
:100ED00010213046FFF746FB80213046FFF742FBEA
:100EE000204600F0BCFD40E710B5012000F028FDD1
:100EF00006490A23064A08600021AFF29B10BDE8AC
:100F0000104002F0D4BC0000001401402800002072
:100F10008802002000F003F9FFF714FF00F009FF3A
:100F200000F0BCF8FFF7E0FF00F0CBFFFEE70000A9
:100F3000704770B5324D044680212846FFF795FE74
:100F40000028F9D0A1B22846FFF72EFE204670BD3A
:100F500070B52B4C054680212046FFF786FE002801
:100F6000F9D029462046BDE87040FFF71DBE10B5F8
:100F7000234C20212046FFF778FE0028F9D0204698
:100F8000FFF716FEC0B210BD1FB51D4C009000202B
:100F9000ADF80400ADF80600ADF80800ADF80C009F
:100FA0000C20ADF80A0069462046FFF72FFD01210D
:100FB0002046FFF7A3FD1FBD38B5012144F2040010
:100FC000FFF792FC4FF40070ADF8000018208DF888
:100FD000030003200B4C8DF8020069462046FFF702
:100FE00052FA2015ADF8000004208DF80300694680
:100FF0002046FFF748FA4FF4E130FFF7C5FF38BD50
:101000000038014000080140324900200880704744
:10101000704770477047704770474FF08073136098
:10102000131F18606FF0010042F8080CA2F138009D
:101030004FF012334FF00332C0E90A234FF002326F
:1010400042624FF00132C0E907124FF01131816165
:101050004FF0103141614FF0093101614FF008311B
:10106000C1604FF0073181604FF0063141604FF0B1
:10107000053140F804194FF00431016070477047A2
:10108000704714480188491C89B201808C2903D318
:101090000021018003F047B87047704700B585B064
:1010A0006846FFF7BDFB01984FF4AF61B0FBF1F06C
:1010B000B0F1807F0CD220F07F414FF0E020491E3C
:1010C0004161054AF0211170002181610721016110
:1010D00005B000BD2C00002023ED00E0EFF31080F0
:1010E00072B6704780F3108870471E484FF08051E9
:1010F000016070471B484FF08051016070471A48EB
:101100004FF000010170002080F309881748012189
:10111000017014484FF08051016062B6FEE772B66C
:10112000704762B67047EFF3098028B1203880E835
:10113000F00F0F490968086000B50E4880475DF858
:1011400004EB0D480D490A78027009480C490A68F9
:101150000260106890E8F00F203080F309884EF0AC
:10116000040E704704ED00E022ED00E0370000209F
:10117000580000207F1000083400002035000020B7
:10118000600000200146002002E0491C401CC0B263
:101190000A78002AF9D1704770B505000E4614464A
:1011A00005D036B1FB48807828B111200DE004202D
:1011B0000BE00C2009E02878012809D0022807D08C
:1011C000032805D0042803D001201070002070BD32
:1011D000FFF784FF034668693060FFF7D3FF0546D9
:1011E0001846FFF77FFF00202070284670BD70B5BD
:1011F00005000E46144605D036B1E648807828B181
:1012000012200DE004200BE00C2009E028780128D2
:1012100008D0022806D0032804D0042802D00120D8
:10122000107070BDFFF75AFF6E61FFF75BFF002083
:10123000207070BD70B510F8383F44788278E44370
:10124000D243E4B2D5B2086809E0C618F27A224067
:10125000F27202D1827A2A40827251F8040F002879
:10126000F3D170BD70B5FFF739FFCA4C0546A078C1
:1012700098B9E07888B902F05AFFC749607951F807
:10128000201021632279904207D0C86B401CC863AC
:101290002069401C2061FFF728FF2846BDE8704008
:1012A000FFF720BF70B5BB4900238A6AC2E9073047
:1012B0000FE08C6A02F10B0314F8385F6478EE5C7F
:1012C0002643EE548C6A937A94F83A4023439372FF
:1012D000001D0268002AECD1886AAE4C90F83820D4
:1012E000543490F83950A35CED43EDB22B40A35435
:1012F00005D190F83A008A7922EA0000887170BD21
:101300002DE9FF5F0C4682460E9F010016464FF006
:10131000040020D0DAF80010E9B1E4B1DEB14FF0FA
:1013200000095046C4F8009009E00978012905D069
:10133000022903D0032901D001200CE0001D01681F
:101340000029F2D19348817809B1022003E0914845
:10135000C07828B10D203870002004B0BDE8F09F9F
:10136000FFF7BCFE0022834690469446504638E084
:101370002978012911D0022918D0032901D0584613
:101380007FE0298931B1491E298120C4012246F814
:10139000049B1EE04CF0010C22E0696819B102C602
:1013A000C5F8049013E04CF0020C19E06968CB8A90
:1013B000A3B10A69131D0B61126804C68B680A6920
:1013C0009A4201D14A680A61CA8A521ECA8220C45E
:1013D000012208F101011FFA81F801E04CF0040C30
:1013E000001D0568002DC3D1012A20D069484CF0AA
:1013F0008002806A00F13000017941EA0201017146
:1014000080F80590039901605046FFF74BFF58465E
:10141000FFF768FEFFF726FFFFF760FE84465D4892
:10142000806A90F8351051B1022914D107E04D4679
:101430005846C4F80090FFF755FE3D7042E0C5697C
:1014400035B1E4E8015908F101001FFA80F805E020
:10145000012180F835105146FFF7ECFE4D49886AAE
:1014600090F835202AB1022AC6F8009018D00A2038
:1014700017E02A78012A0ED0022A0CD0032A07D0BE
:101480006046FFF72FFE0120C4F80090387019E085
:10149000C6F8009001E0406A306087F8009001E0F3
:1014A0000E203870896A604601F11C0181F818909D
:1014B00081F81990C1F80090C1F80490C1F8089023
:1014C000FFF710FE404648E72DE9F04105460E467D
:1014D00014463F2803D9FF2D01D02A2004E036B15D
:1014E0002C4FB87828B112201070BDE8F0810C2084
:1014F000FAE7FFF7F3FD0146FF2D02D1B86A90F835
:101500003650254850F82500432540B1012806D023
:1015100006650846FFF7E6FD00202070E5E708466F
:10152000FFF7E0FD2570E0E710B51A4CE0790128DF
:1015300013D1FFF7D3FDE17831B1491E11F0FF015E
:10154000E17001D1A17819B1BDE81040FFF7CABD23
:10155000FFF7C8FDBDE8104084E610BD032280F807
:1015600025200C4A0129526C1AD08169C1B111445D
:1015700041610A4A01F0070102EBC10100230A6838
:1015800008607AB1C26010618A88521C8A80036147
:101590007047000030000020CC070020B415002068
:1015A000C169E4E70122C360F0E710B5416901F0C9
:1015B0000701FF4A002302EBC102C168146884429C
:1015C00003D1116029B10B6103E00469E16001B14D
:1015D0000C61012180F82510C36003619088401ED2
:1015E000908010BD10B5F34CE07901280CD1FFF7C5
:1015F00075FDA17821B9E178FF2901D2491CE1707C
:10160000BDE81040FFF76EBD10BD10B590F8382052
:1016100090F839408B18E443DA7AE4B22240DA7267
:1016200004D18A7A90F83A0082438A7210BD30B5AC
:10163000E04900F10B028B6A43F81C0F1C7F5B7FB3
:10164000A55C1D43A5548A6A837A02F13802947816
:1016500043EA04038372137801F154045578E05C83
:101660006FEA0505EDB22840A2F13802E05405D139
:1016700092F83A008A7922EA0000887130BD2DE99B
:10168000F04706008A46144604D03078032803D079
:10169000012009E0042007E0C64DA87808B1022027
:1016A00002E0E87818B10D201070BDE8F087FFF770
:1016B00015FD074630894FF0000938B1401E3081D2
:1016C0003846FFF70FFD84F80090EEE7A86AA846B9
:1016D0004D4610F8341F41F00101017080F801906F
:1016E00040F804AC3046FFF7A2FF3846FFF7FAFC9B
:1016F000FFF7B8FDFFF7F2FC0746D8F8280090F88E
:10170000351031B1022906D03146FFF77EFF0A209D
:1017100002E0257001E00E202070D8F8280000F1CA
:101720001C0005764576056045603846BDE8F04703
:10173000FFF7D8BC08B5DFF878829E4D6A460021D5
:10174000E86CFFF79CFFFFF74DFF686C401C00F052
:101750000701686458F83140022713E06069696C3A
:10176000E66888420DD12046FFF71FFF94F8240059
:1017700002280CD084F82570626812B12046A16856
:1017800090473446002CE9D1FFF7CEFED6E7012181
:101790002046FFF7E3FEEFE72DE9F05F0746DDE9BE
:1017A0000ABA0D4690469946FFF798FC814EF46AB6
:1017B000002C61D061691C34F162FFF793FC44F89E
:1017C0001C5CA776002525766576656144F810BC1B
:1017D00044E906A80C9824F80C0CFB0824F80A9C91
:1017E000E57707F007020120237700FA03F1E2769C
:1017F000A1779040607725606560E560A56025620F
:10180000A56265626CA0E562C4E90C50A4F11C04F9
:101810004FEA050004EB8001401C4D6510F0FF000D
:10182000F8D02046FFF72CFC2046FFF7F2FBFFF72D
:1018300055FC0146614840F82740706BC4E9050536
:1018400000B18461746304F13804B279A07840EA8D
:101850000200B0715748227800F154006478835C2C
:1018600043EA04038354307A00F1010030720846E1
:10187000FFF738FC002071E5FFF734FC42206DE5EE
:10188000D30707D0920705D50022002902D004C053
:10189000491EFAE77CE62DE9FF4F83B08346DDE978
:1018A0001396DDE911A81C463F2B03D92A2007B067
:1018B000BDE8F08FFFF712FC3E4FB97819B1FFF782
:1018C00011FC3C20F3E73D4D55F8241019B1FFF70A
:1018D00009FC2820EBE7012145F82410FFF702FC62
:1018E000324641465046FFF7CBFFDDE9041233464E
:1018F0005846FFF792FBCDF80080CDE901960146EE
:1019000052462046109BFFF747FF060008D0FFF71E
:10191000E5FB002145F82410FFF7E4FB3046C6E75D
:10192000F8790128FAD1FFF79DFCF7E700228272CF
:1019300011464318491CC9B2DA720829F9D327E6BF
:1019400070B51C4D0646A87808B1002070BDFFF7A1
:10195000C5FB6C690CB161686961FFF7C3FB4CB1F1
:101960000320207026810020606013A06061204663
:10197000FFF7DCFF204670BD002203E0491E00F89F
:10198000012B89B20029F9D102E630B587B04FF4B6
:1019900020710B48FFF7F0FF40210548FFF7ECFFEF
:1019A0000020074905466422431C1C469BB209E0FF
:1019B000B4150020300000203F000000CC070020BC
:1019C0003411002000EB800001EBC00003EB830327
:1019D000027001EBC30380F82550C360AFF2280307
:1019E0000362A0B20F28DFD300EB800001EBC00040
:1019F000027080F82550AFF24002FB4CC5600262D5
:101A00006564A5811020608101202165FFF798FFA2
:101A1000A0640020FFF794FFE06405AAF3A1A06C86
:101A2000FFF7E5FB05AAF6A1E06CFFF7E0FB8021DC
:101A300002910320CDE90350F64A4FF6FD70CDE93F
:101A40000002322302F5FE720021F348FFF723FF64
:101A500006AAF2A13220FFF737FD07B030BD2DE90D
:101A6000F041E14C0546A078002822D1E07800281A
:101A70001FD1002D1DD0FFF731FBA16A034604F1F1
:101A8000540691F8380091F83970325CFF43FFB288
:101A90003A40325405D191F83A00A27922EA000086
:101AA000A07118460D63FFF71DFBBDE8F041FFF77D
:101AB000D9BB1AE52DE9F04105460C463F2803D96C
:101AC000FF2D01D02A2010E544B100202060606085
:101AD000FFF704FB0146FF2D02D005E0092004E5D5
:101AE000C148806A90F83650D04850F8250058B167
:101AF000012809D0028AD2070BD0D0E9027600254E
:101B00000846FFF7EFFA0AE00846FFF7EBFA432032
:101B1000EBE40846FFF7E6FA4520E6E46D1C01CF4A
:101B20000028FBD0A8002060701B800060600020AF
:101B3000DBE47CB5BD4D002469462046FFF7BAFFC3
:101B400058B955F8240040B1012806D0D0E9021256
:101B500001EB820181640199C164641CE4B23F2CF1
:101B6000EAD97CBD2DE9F0419F4D04463F2804D0C1
:101B700005D3FF280CD02A20B7E44720B5E4FFF7AF
:101B8000ADFA0346A86A90F83600A04206D007E0F6
:101B9000FFF7A4FA0346A86A90F83640012600E051
:101BA0000026A24850F8240070B1012811D08E4CB4
:101BB00090F83820543490F83970A15CFF43FFB29C
:101BC0003940A1540AD00FE01846FFF78BFA48209D
:101BD0008BE41846FFF786FA432086E490F83A1023
:101BE000AA7922EA0101A97110F8341F41F0080115
:101BF00001701846FFF776FA012E01D1FFF732FB8C
:101C0000002072E4784C4FF48C7502E02846FFF710
:101C100026FF60780028F9D06421E0690025B0FB38
:101C2000F1F0E06118B92570FF20FFF79BFFFFF787
:101C300055FA616AC4E90815FFF754FAD4E90710A8
:101C4000B0FBF1F0C0F164002070FFF7E5F9FFF799
:101C500070FF8C20FFF703FFE9E7634CFFF73EFAC4
:101C6000616A491C6162FFF73DFAFFF7D4F9F5E7B5
:101C700000B560216E48FFF77FFE6D4A0020411CD1
:101C80008BB200EB400003EB430302EBC30342F8CB
:101C9000303088B20328F2D300EB4000002142F834
:101CA00030105148C26300BD614800B578217838D2
:101CB000FFF762FE5E4A0020B2F1780200EB4001BD
:101CC00002EBC10101F118034B60AFF21433401C69
:101CD00080B24B610428F1D300EB400002EBC0005E
:101CE00000214160AFF2303141613F48826300BD65
:101CF00010B550214F48FFF73FFE00204D4A0146E6
:101D0000431C1C4602EB00109BB202EB0313017054
:101D10004360AFF25C33C360A0B20428F0D302EB9F
:101D2000001001704160AFF27031C1602E488261D5
:101D300010BD70B586B0FFF767F92B480024046426
:101D40008470C4700472C471046144620462C4612A
:101D500044708471214600F154025454491CC9B2A4
:101D60000829FAD3047144710463846202F010FA02
:101D700002F0E9F9FFF7BCFFFFF796FFFFF778FFE6
:101D800080262D48CDE90106284A03254FF6FF702D
:101D90003F23121F00210090AFF24110CDE903450F
:101DA000FFF779FD05AA25A13F20FFF78DFB21480C
:101DB000214A5030CDE901064FF6FE703E23121F36
:101DC00000210090AFF2C310CDE90345FFF763FD9A
:101DD00005AA1EA13E20FFF777FBFFF7D6FD06B050
:101DE000BDE87040FFF714B93000002075432F4F55
:101DF000532D494920546D724C6F636B00000000F5
:101E000075432F4F532D494920546D725369676EA6
:101E1000616C0000B41300203517000875432F4F84
:101E2000532D494920546D7200000000CC0700205A
:101E3000D41000207C030020CC05002075432F4FD8
:101E4000532D49492049646C6500000075432F4FAC
:101E5000532D49492053746174000000FF49C8792B
:101E6000012804D18878FF2801D2401C887011E530
:101E700070B5FA4CE079012822D1FFF72FF9054619
:101E8000A07820B1401E10F0FF00A07013D1E078C0
:101E900088B902F04CF9F248617950F821002063CA
:101EA0002279914207D0C16B491CC1632069401C53
:101EB0002061FFF71FF92846BDE87040FFF712B90F
:101EC00070BD10B5E54CE07900280CD102F02FF977
:101ED0006079E349207151F820002063A062BDE8D9
:101EE0001040FFF70CB910BD10B50220FFF7B7FD89
:101EF000FFF7F4F8D94C00216162FFF7F3F88C206A
:101F0000FFF7ADFDFFF7EAF8616AE1610121617059
:101F1000BDE81040FFF7E6B82DE9F041FFF7B1F852
:101F2000FFF7DCF8CD4D296C491C2964FFF7DAF87E
:101F3000E879012841D1687A0126002720B10128DB
:101F40003BD0022802D06F726C6B32E06E72FBE7FE
:101F5000FFF7C4F8216B49B3491E216326D194F8D9
:101F6000341011F0370F06D001F0C80184F8341096
:101F700084F8356001E084F8357094F8341009076E
:101F800014D404F13804AA79A178DFF8D0C241EA68
:101F90000201A97121780CF1540C63781CF801201E
:101FA000A4F1380442EA03020CF801206469FFF747
:101FB00099F894F836003F28CAD17AE540F2231008
:101FC00068E467E4F0B50546807AA64C4FF0000758
:101FD000205C05EB0006F67AA45D04EBC004E6B2D3
:101FE0009F4C54F8264004F12404E7602160217CD2
:101FF00021EA020121746374A4F1240409070BD4BB
:10200000964994F83A208B791A438A71543194F89E
:1020100039300A5C1A430A5429462046FFF7F5FA7C
:10202000216A19B12046FFF705F9E5613046F0BD98
:1020300006E000BF11F8013B521E00F8013B92B2CE
:10204000002AF7D126E42DE9F04105000F46144699
:102050001E4606D02878052805D0012018700020DB
:1020600027E56E20FAE714F0800002D022F0800409
:102070000120804600203070FFF730F802467021C2
:1020800004B3012C25D0022C08D0032C12D0FFF76A
:1020900029F800246F20307020460AE5288900EADC
:1020A0000704BC420AD01FE0A0431BE01046FFF724
:1020B00019F8F1E7288910EA070415D0B8F1010FE3
:1020C000F4D1F1E72889C3439CB23C40BC4205D01F
:1020D0000AE02889C3439CB23C4005D0B8F1010F07
:1020E000E4D120432881E1E73170DFE72DE9F041B9
:1020F0005A4D07460E46A87818B1102008700020E7
:10210000D7E4FEF7EBFFAC696CB16168A96105210A
:10211000217027810025AFF260716560E160FEF7F4
:10212000E1FF357003E0FEF7DDFF722030702046DE
:10213000BFE4D0E9001200232AB1116001B14A6066
:102140008068836220E4C26800295160F8D04B6047
:10215000F6E710B502468068002300F12C004360CA
:102160000180017A11F0DF0101724372A0F12C00AD
:1021700005D000241046FFF7DCFF204610BD37498C
:1021800000F1380083788C7943EA04038B7103787B
:1021900001F154014078CC5C44EA0004CC544FF087
:1021A0000104E7E72DE9F05F04008846154607D0F3
:1021B000DFF8A8A09AF8020020B10F2010701FE0ED
:1021C0006E20FBE72078052801D00120F6E7FEF716
:1021D00085FF666881460EB1012700E000274FF0B9
:1021E000000BB8F1000F06D0B8F1010F21D0FEF7B7
:1021F00079FF072003E037B1FEF774FF492028700C
:102200002046BDE8F09FAFF65000E06084F800B0D3
:10221000DAF818106160A4F808B05E464846CAF8BB
:102220001840FEF75FFF21E000213046FFF791FFE5
:102230003668002EF8D1AFF68000E06084F800B078
:10224000DAF818106160A4F808B05E464846CAF88B
:102250001840FEF747FF012F08D105E030000020AD
:10226000CC07002082420008FEF7FCFF2E70002001
:10227000C7E770B505000E46144605D036B1FD48D7
:10228000807830B1112002E06E2000E00C20107048
:102290000AE0FEF723FF03462878052806D01846F3
:1022A000FEF720FF01202070002070BDE86830603C
:1022B000FEF768FF05461846FEF714FF0020207061
:1022C000284670BD70B505000E46144606D03EB1D6
:1022D000E848807830B11220107070BD6E20FBE7A6
:1022E0000C20F9E7FEF7FAFE2978052903D0FEF75E
:1022F000F9FE012003E0EE60FEF7F4FE00202070FE
:1023000070BDF0B5DB4C059FA56A05F128052E7B55
:1023100046F020062E734FF000066E73AF6045F84E
:1023200028190A828B748D604268C860C1E9002652
:10233000426802B151604160A06ACE4B90F83810FB
:10234000543390F839505A5CED43EDB22A405A5458
:1023500005D190F83A00A17921EA0000A071F0BD02
:102360002DE9F04F89B00400129D0F4691469A4620
:1023700004D0C048817819B1022098E06E2096E020
:102380008346C07808B10D2091E02078052801D05F
:1023900001208CE012F0800F03D009F07F090126A4
:1023A00000E00026FEF79AFE02905FEA090022D0C4
:1023B000012839D0022808D0B9F1030F11D00298B2
:1023C000FEF790FE00206F215EE0208900EA0708FA
:1023D000B8450AD02FE000BFDBF82810A1F82C8008
:1023E00019E0208910EA070825D0012EF4D120EA4F
:1023F00008002081F0E72089C14389B2394088462E
:10240000B94218D1012E02D140EA080020810846C5
:10241000DBF8281088850298FEF764FE00202870FB
:10242000404609B0BDE8F08F2089C14389B23940E8
:102430005FEA0108E6D14B463A4603A92046CDF8AB
:1024400000A0FFF75EFF0298FEF74CFEFEF70AFFC2
:10245000FEF744FE8446DBF82800D84690F8357035
:10246000A7B1002480F8354003A8FFF762FED8F832
:10247000280080F834406046FEF734FE0020022F2A
:1024800001D00A2100E00E212970CAE7878D012EB4
:1024900016D15FEA090010D001280ED0022809D019
:1024A000B9F1030F06D06046FEF71CFE6F202870BE
:1024B0000020B6E72089B84301E020893843208115
:1024C0006046FEF70FFE002028703846A9E710B5D9
:1024D000FEF704FE6749896A8C8DFEF703FE2046ED
:1024E00010BD2DE9F04104000D4617461E4605D0EB
:1024F0002078052804D00120187021E06E20FBE729
:10250000FEF7ECFD80462FB1012F06D0FEF7EAFD65
:10251000712014E02089A84301E02089284320810C
:102520000027656827E0A87C80B1012816D0022822
:1025300008D0032808D04046FEF7D4FD6F20307045
:1025400000203AE5218904E021890AE02089C0437E
:1025500081B2288A0140884206D00BE02089C0431E
:1025600081B2288A014005D02846FFF7F2FD0128F4
:1025700000D101272D68002DD5D14046FEF7B2FDD0
:10258000012F01D1FEF76EFEFEF7A8FD2489FEF7AC
:10259000A9FD0021317020460FE570B505000C46FD
:1025A00006D02878052805D001200870002070BDCD
:1025B0006E20FAE7FEF792FD2D89FEF793FD0020CD
:1025C0002070284670BD70B5040002D02078012824
:1025D00001D0002070BDFEF781FD002165686160BB
:1025E000FEF780FD284670BD70B5224D0646A878DE
:1025F00008B1002070BDFEF771FD6C690CB1616817
:102600006961FEF76FFD54B1012020700020208128
:10261000AFF65C40666060612046FFF787F92046B0
:1026200070BD2DE9F04704008846154605D0207896
:10263000012804D00120107024E00420FBE7DFF81B
:10264000349099F8020008B10F20F4E7FEF746FD38
:102650000746A07A08B1012600E000265FEA0800DC
:102660004FF0000808D0012825D03846FEF73AFD83
:10267000072006E0300000203EB13846FEF732FD6C
:10268000492028702046BDE8F087AFF6D44060614D
:1026900084F80080D9F814106160A4F808803846E6
:1026A000C9F81440FEF71EFD1BE000230222194664
:1026B0002046FFF787FCA07A0028F6D1AFF6085035
:1026C000606184F80080D9F814206260A4F8088062
:1026D0003846C9F81440FEF705FD012E01D1FEF77A
:1026E000C1FD85F800800020CDE72DE9F047050009
:1026F0008A46144604D02878012803D001200AE035
:10270000042008E0F948817809B1022003E08046FE
:10271000C07818B10D2010700020B4E7FEF7DEFC81
:102720006E68074600213EB1884638466960FEF76C
:10273000D9FC84F8008039E0D8F82800C1468846E2
:1027400010F8342F42F002020270417040F804ACDD
:102750002846FEF76CFF3846FEF7C4FCFEF782FD04
:10276000FEF7BCFC0746D9F8280090F8351031B1C7
:10277000022908D02946FEF748FF0A2004E0466AED
:1027800084F8008001E00E202070D9F82810384627
:1027900001F11C0181F8188081F81980C1F80080CE
:1027A000C1F80480C1F80880FEF79CFC30466AE757
:1027B0002DE9F04105000F46164605D02978012085
:1027C000012903D010702AE00420FBE7FEF786FC05
:1027D0008446A87AF0B10024012F0FD002231A46B4
:1027E00000212846FFF7EEFB01246046FEF77AFC45
:1027F000FEF738FD0E203070204631E402231A46E1
:1028000000212846FFF7DEFB641CA87AE4B200280A
:10281000F4D1EAE76046FEF765FC00203070002046
:102820001EE470B504000D4605D035B120780128AE
:1028300005D0012070BD042070BD032070BDFEF7DF
:102840004DFC0646A07A58B10023022229462046B4
:10285000FFF7B8FB3046FEF745FCFEF703FD0AE044
:10286000606820B13046FEF73DFC142070BD304654
:102870006560FEF737FC002070BD2DE9F0410400D3
:102880000D46164605D035B12078012805D0012027
:1028900003E4042034E4032032E4FEF71FFC07467F
:1028A000A07AD0B1F00709D00023022229462046A1
:1028B000FFF788FBA07A0028F6D105E0002302226A
:1028C00029462046FFF77EFB3846FEF70BFC7007D3
:1028D00001D4FEF7C7FC002012E4606820B138463E
:1028E000FEF700FC14200BE438466560FEF7FAFBA7
:1028F000F1E770B505000C4605D034B12878012801
:1029000005D0012070BD042070BD092070BDFEF708
:10291000E5FB0346A87A2073211D05F10B00002278
:10292000521C10F8016BD2B201F8016B082AF7D3E0
:10293000686820601846FEF7D5FB002070BD2DE9C1
:10294000F04104000E4690461F464FF0620001D051
:10295000A10701D018701AE0022E01D25B20F9E71E
:10296000042A01D25C20F5E7FEF7B8FB01465F4878
:10297000856B0DB16A6882630846FEF7B3FB25B12B
:10298000731E20462146002207E05A20387000209E
:10299000D7E5414401600846521C9A42F9D3002110
:1029A00001602E61EE602C60C5E90148397028464F
:1029B000C7E570B504000D4610D0FEF78FFB014649
:1029C000206970B16668401E326862602061084606
:1029D000FEF788FB00202870304670BD602008702C
:1029E00004E00846FEF77EFB5D202870002070BDE5
:1029F00070B505000E46144607D046B13B488078B6
:102A000038B111201070002070BD6020FAE70C2052
:102A1000F8E7FEF763FB034668693060FEF7B2FB38
:102A200005461846FEF75EFB00202070284670BD64
:102A300070B505000E46144606D03EB12B4880788E
:102A400030B11220107070BD6020FBE70C20F9E758
:102A5000FEF744FB6E61FEF745FB0020207070BD61
:102A600070B504000D460AD05DB1FEF737FBD4E91E
:102A700003128A4207D3FEF735FB5E2070BD60204B
:102A800070BD5F2070BD6168296065602169491C67
:102A90002161FEF727FB002070BD70B505000C46D4
:102AA00014D0ACB1FEF71AFB296821606968616037
:102AB000A968A160E968E16029692161FEF712FB5C
:102AC000D4E90301401A6061002070BD602070BD30
:102AD000612070BD2DE9F04104000D4608D020783A
:102AE000042807D00120087018E000003000002002
:102AF0000420F8E7FB4EB07808B10220F3E7FEF7B8
:102B0000EDFA014620894FF00007020AC34313F093
:102B1000FF0F05D00846FEF7E5FA2F70002010E5FC
:102B200000F47F402081B36A93F8366030432081FF
:102B3000636093F836009042084604D8FEF7D2FA54
:102B40007820287002E0FEF7CDFA2F700120F8E41B
:102B50002DE9F04705460E463F2801D32A2005E01F
:102B6000DFF8808398F8020010B1102008700BE0A5
:102B7000FEF7B4FA0146DC4850F8252032B1084689
:102B8000FEF7B0FA2820307000207CE5012240F8E2
:102B90002520D8F8144000274FF00409A4B160683C
:102BA000C8F814000846FEF79DFAFF2084F800904C
:102BB00040EA05202081CDA0676060612046FEF7D5
:102BC000B5FE377020465EE540F825700846FEF7F2
:102BD00089FA86F80090384655E5F0B5C14D90F871
:102BE0003830543590F83940EA5CE443E4B222408E
:102BF000EA54BC4B05D190F83A209C7924EA0202B1
:102C00009A71CA08C2F3020600F8361F197101F062
:102C100007070122867002FA06F447700471BA4071
:102C2000C2709F79A0F1360044EA07049C71AB5D45
:102C300043EA0203AC4AAB5542F82100F0BD2DE94E
:102C4000F04704008946154605D02078042804D0B2
:102C50000120107024E00420FBE7DFF8888298F858
:102C6000020008B10F20F4E7FEF738FA0746A07A11
:102C700008B1012600E000265FEA0900DFF868A23B
:102C80004FF0000906D0012821D03846FEF72AFA75
:102C9000072004E036B13846FEF724FA49202870B0
:102CA0002046F0E491A0606120894E46000A4AF86F
:102CB000209084F80090D8F814106160A4F808906F
:102CC0003846C8F81440FEF70DFA2E702CE0208923
:102CD000020AC1B2606860B190F83630934208D100
:102CE000FFF77BFF05E00023102219462046FFF77F
:102CF00069F9A07A0028F6D17CA060612089010AD8
:102D000038464AF8219084F80090D8F81420626080
:102D1000A4F80890C8F81440FEF7E4F9012E01D198
:102D2000FEF7A0FA85F800900020ACE42DE9F74FFB
:102D30000500144606D028780126042804D0167011
:102D4000BDE8FE8F042008E06648817809B10220C2
:102D500003E08146C07810B10D201070F0E7FEF757
:102D6000BDF907462889010AC24312F0FF0F21D09E
:102D7000C2B2686890F836308B427DD9D9F82830D5
:102D800093F8363093427AD2DFF858A190F8383071
:102D90000AF1540A90F839C01AF8038018EA0C0FA7
:102DA0002BD06FEA0C02D2B218EA02080AF80380AC
:102DB00018D01FE000F47F402881D9F8282092F82D
:102DC0003630184328816A6092F8360088423846C7
:102DD00003D8FEF787F9782002E0FEF783F9002098
:102DE0002070ADE790F83A2099F806C02CEA02036B
:102DF00089F806304FF0010816E0C26992B102EB83
:102E000003086FEA0C0C98F80B300CF0FF0C13EA77
:102E10000C0388F80B3005D1937A90F83AC023EA76
:102E20000C0393724FF00008CA0800F8361F01F037
:102E3000070306FA02FC827043709E400CF0FF0C00
:102E4000F3B280F804C0C370A0F136009B46B8F11D
:102E5000010F39D0C2696AB1937A43EA0C039372C5
:102E600090F838C00B3290F839601CF802303343C8
:102E70000CF802301C4A00E001E042F82100D9F8C9
:102E800028004FF0000600F13000C846017941F0FB
:102E9000100101714671019901602846FEF7C7FBD8
:102EA0003846FEF71FF9FEF7DDF9FEF717F907467A
:102EB000D8F8280090F83510D1B102291AD0294647
:102EC000FEF7A3FB0A2016E099F806304CEA030C43
:102ED00089F806C01AF8023043EA0B030AF80230F8
:102EE000C8E7000030000020CC0700203F000000B1
:102EF000267001E00E202070D8F8280000F11C0098
:102F000006764676066046603846BDE8FE4FFEF718
:102F1000E9B82DE9F041FF4F0446B87808B1052023
:102F20006BE424B12078042803D0012065E4042058
:102F300063E4FEF7D3F8064620896268050AC1B249
:102F4000B86A824204D03046FEF7CCF8642054E4DC
:102F500090F83620AA4201D1FFF73FFEEE4F012044
:102F600047F82500A07AE0B1002310221946204638
:102F7000FFF728F8218901F47F410143218157F8A7
:102F80002010A8426160304605D8FEF7ABF8FEF786
:102F900069F9782031E4FEF7A5F8FEF763F900201F
:102FA0002BE4208940F0FF00208100206060304643
:102FB000FEF798F8F3E770B50546D6480C468078DA
:102FC00008B1062070BD2DB134B12878042805D091
:102FD000012070BD042070BD092070BDFEF77EF891
:102FE00001462889000AE0722889C0B2A072FF2831
:102FF00013D000206072A87A20720B355FF00000B9
:10300000401C15F8012BC0B204F8012B0828F7D397
:103010000846FEF767F8002070BD0120EAE770B5AA
:1030200005000C4606D02878022805D0012008703B
:10303000002070BD0420FAE7FEF750F86A680146E8
:10304000D08A70B11369181D10611D68D38A5B1E88
:10305000D3829368984201D150681061002020709B
:1030600002E01F20207000250846FEF73BF82846A6
:1030700070BD2DE9F041A74D06460F46A87808B16E
:10308000002005E4FEF72AF86C690CB161686961FB
:10309000FEF728F82CB3FEF721F801462846ED6B21
:1030A000C5B12A68C2630846FEF71CF806EB870024
:1030B000C5E90160EE602E610020AF82E882022146
:1030C00021702081AFF2DC10656060612046FEF760
:1030D0002DFC06E04269626044610846FEF702F892
:1030E0000024204654E42DE9F047040088461546A4
:1030F00005D02078022804D00120107022E004209E
:10310000FBE7DFF8109299F8020008B10F20F4E70E
:10311000FDF7E4FF0746A07A08B1012600E000268B
:103120005FEA08004FF0000806D0012828D0384692
:10313000FDF7D8FF072004E036B13846FDF7D2FF8F
:1031400049202870204620E5AFF260206061616868
:10315000D9F83C2038460A60C9F83C1084F8008051
:10316000D9F814106160A4F80880C9F81440FDF77C
:10317000B9FF21E00023042219462046FEF722FF72
:10318000A07A0028F6D1AFF29C2060616168D9F87E
:103190003C2038460A60C9F83C1084F80080D9F811
:1031A00014206260A4F80880C9F81440FDF79AFF63
:1031B000012E01D1FEF756F885F800800020E4E4E6
:1031C00010B5040004D02078022803D0012010BDDF
:1031D000042010BDFDF782FF014660684268C260AE
:1031E00002610022C2820846FDF77CFF002010BD6C
:1031F0002DE9F04706008A46144604D030780228AC
:1032000003D0012009E0042007E0424DA87808B16E
:10321000022002E0E87818B10D2010700020B4E41C
:10322000FDF75CFF074670684FF00009C18A91B155
:103230000269111D01611568C28A521EC28282682C
:10324000914201D1416801613846FDF74BFF84F896
:103250000090284699E4A86AA8464D4610F8341F05
:1032600041F00401017080F8019040F804AC304650
:10327000FEF7DDF93846FDF735FFFDF7F3FFFDF703
:103280002DFF0746D8F8280090F8351039B10229EB
:1032900008D03146FEF7B9F900260A2004E0466A54
:1032A000257002E000260E202070D8F8280000F1DA
:1032B0001C00057645760560456085603846FDF75B
:1032C00011FF304661E42DE9F04105000F46164636
:1032D00005D029780120022903D010702FE00420A6
:1032E000FBE7FDF7FBFE8446A87A18B30024012F04
:1032F00014D00223042200212846FEF763FE012495
:103300006046FDF7EFFEFDF7ADFF0E203070204662
:1033100005E4000030000020CC0700200223042236
:1033200000212846FEF74EFE641CA87AE4B200286D
:10333000F4D1E5E76046FDF7D5FE002030700020AF
:1033400005E470B504000D4604D02078022803D0AF
:10335000012070BD042070BDFDF7C0FE0646A07AB6
:1033600058B10023042229462046FEF72BFE3046A2
:10337000FDF7B8FEFDF776FF19E06068C18A828A22
:10338000914204D33046FDF7ADFE1E2070BDC168EA
:103390000A1DC2600D60C18A491CC182D0E90212B7
:1033A0008A4201D14168C1603046FDF79BFE002092
:1033B00070BD70B504000D4604D02078022803D0FB
:1033C000012070BD042070BDFDF788FE0646A07A7E
:1033D00058B10023042229462046FEF7F3FD30466B
:1033E000FDF780FEFDF73EFF18E06068C18A828A23
:1033F000914204D33046FDF775FE1E2070BD426831
:103400000169914201D181680161091F01610D606B
:10341000C18A491CC1823046FDF764FE002070BDA0
:103420002DE9F04107000D46144604D038780228F3
:1034300003D0012074E5042072E5FDF74FFE064637
:10344000B87AD0B1E00709D00023042229463846D3
:10345000FEF7B8FDB87A0028F6D105E00023042273
:1034600029463846FEF7AEFD3046FDF73BFE6007C5
:1034700001D4FDF7F7FE002052E57B68D88A998ACF
:10348000884204D33046FDF72DFE1E2048E5A007F4
:1034900009D559681869884201D198681861001FD8
:1034A0001861056009E0D868011DD9600560D3E99D
:1034B0000201814201D15868D860D88A401CD88264
:1034C0003046FDF70FFED6E770B504000D4605D077
:1034D00035B12078022805D0012070BD042070BDD0
:1034E000092070BDFDF7FAFD0346A07A287404F1A7
:1034F0000B0205F108000021491C12F8016BC9B24A
:1035000000F8016B0829F7D36068C18A09B1016925
:1035100009682960C18AA980808AE8801846FDF779
:10352000E1FD002070BD70B5050002D028780328A9
:1035300001D0002070BDFDF7D1FD2C890CB1611EBA
:103540002981FDF7CFFD204670BD2DE9F04704002D
:103550008846154605D02078032804D00120107035
:1035600022E00420FBE7DFF8F49599F8020008B1A7
:103570000F20F4E7FDF7B2FD0746A07A08B1012657
:1035800000E000265FEA08004FF0000806D001289E
:1035900022D03846FDF7A6FD072004E036B13846B4
:1035A000FDF7A0FD492028702046CCE5AFF2C460AD
:1035B000606184F80080D9F814106160A4F8088074
:1035C0003846C9F81440FDF78DFD1BE000230122A9
:1035D00019462046FEF7F6FCA07A0028F6D1AFF295
:1035E000F460606184F80080D9F814206260A4F867
:1035F00008803846C9F81440FDF774FD012E01D14A
:10360000FDF730FE85F8008000209CE52DE9F041B3
:1036100005000F46164605D029780120032903D05E
:1036200010702AE00420FBE7FDF758FD8446A87AD5
:10363000F0B10024012F0FD00223012200212846DF
:10364000FEF7C0FC01246046FDF74CFDFDF70AFEC5
:103650000E203070204663E4022301220021284618
:10366000FEF7B0FC641CA87AE4B20028F4D1EAE7C3
:103670006046FDF737FD00203070002050E470B543
:10368000040004D02078032803D0012070BD04205A
:1036900070BDFDF723FD0546A07A58B10023012235
:1036A00019462046FEF78EFC2846FDF71BFDFDF768
:1036B000D9FD09E020894FF6FF71884206D2401CEF
:1036C00020812846FDF70EFD002070BD2846FDF73D
:1036D00009FD332070BD70B505000C4605D034B12E
:1036E0002878032805D0012070BD042070BD092072
:1036F00070BDFDF7F3FC0346A87AA072A11C05F18A
:103700000B000022521C10F8016BD2B201F8016BC1
:10371000082AF7D3288920801846FDF7E3FC00200B
:1037200070BD70B504000E46154605D020780328FC
:1037300004D00120107070BD0420FBE7FDF7CEFC23
:1037400000212970218939B9A17A29B1492129702B
:10375000BDE87040FDF7C6BC2681F9E72DE9F84FBA
:1037600005460C463F2801D3FF2D01D13F2C02D343
:103770002A20BDE8F88FFDF7B1FC8646F84850F8DE
:10378000241021B17046FDF7ADFC2820F1E7FF2D94
:1037900003D1F249896A91F8365050F8252032B3A6
:1037A000012A29D004F00706E1080123009603FA54
:1037B00001F606F0FF0A009EE84FB34003F0FF0B4E
:1037C000002340F8253040F8242092F83850543730
:1037D00092F83990785D92F83A8010EA090F1ED07D
:1037E0006FEA0903DBB2184078550AD00EE0704644
:1037F000FDF778FC2920BCE77046FDF773FC4320F9
:10380000B7E7D648837923EA08038371D34EB079AA
:1038100040EA0A00B071785C40EA0B007854D06945
:10382000A0B147196FEA0906FB7AF6B23340FB7282
:1038300003D1837A23EA08038372837A43EA0A0373
:1038400083720844C37A43EA0B03C372136AD3B189
:103850001868C0B147196FEA090CFE7A0CF0FF0C2A
:1038600016EA0C06FE7203D1867A26EA08068672EC
:10387000867A471846EA0A068672F87A1B1D40EADD
:103880000B00F872E4E702F8364F91700098507020
:1038900082F804A082F803B07046FDF723FCAF481D
:1038A000C079012801D1FDF7DDFC002061E72DE999
:1038B000FE4305460F4691461C463F2B02D92A205F
:1038C000BDE8FE83FDF70AFCDFF8908298F802104D
:1038D00019B1FDF707FC3C20F2E7A14E56F8241081
:1038E00019B1FDF7FFFB2820EAE7012146F8241073
:1038F000FDF7F8FB00234A4639462846FDF78DFBC5
:1039000000250146009501952B462A462046029542
:10391000FDF742FF070007D0FDF7E0FB46F8245013
:10392000FDF7E0FB3846CBE798F807000128F9D10E
:10393000FDF798FCF6E72DE9F047884D0646A87894
:1039400008B140203BE43F2E04D005D3FF2E07D022
:103950002A2034E43E2032E4FDF7C0FB074605E0B0
:10396000FDF7BCFB0746A86A90F83660DFF8F091D7
:1039700059F8264074B1012C11D0784A94F83800D7
:10398000543294F83930115CDB43DBB219401154E6
:103990000AD00FE03846FDF7A5FB43200FE4384678
:1039A000FDF7A0FB3D200AE494F83A00A97921EA4A
:1039B0000000A871E16911B12046FDF726FE216AD9
:1039C00011B12046FDF736FCA06A08B1FEF7B1FB45
:1039D0004FF00008C4F8308084F8348084F83580D3
:1039E000E878FF2801D2401CE8703846FDF77AFBE2
:1039F000FDF774FB0746E87808B1401EE8702046E2
:103A0000FDF708FB287A401E287249F82680A16934
:103A1000404689B160694861D4E905018161E86A7D
:103A20006061AFF63830EC6220653846FDF75AFB2E
:103A3000E879012805D006E06169886160696863FA
:103A4000EDE7FDF70FFC002004E410B504463F2825
:103A500004D00FD3FF2803D02A2010BD3E2010BD74
:103A6000FDF73CFB3D49896A91F83B40FDF73AFB85
:103A7000204610BDFDF732FB0146394850F82400BE
:103A800048B101280CD03F2280F83B200846FDF7C2
:103A900029FB002010BD0846FDF724FB432010BD84
:103AA0000846FDF71FFB3D2010BD2DE9F0410546FE
:103AB0000E4614463F2803D9FF2D01D02A2006E0E8
:103AC00026B1264FB87820B1112000E00C201070EC
:103AD0001EE0FDF703FB0346FF2D02D1B86A90F804
:103AE00036501F4850F82500432568B101280BD0F7
:103AF000006D3060FDF746FB05461846FDF7F2FA0B
:103B000000202070284603E41846FDF7EBFA2570E4
:103B1000002015E470B504463F2801D32A2070BD6B
:103B2000FDF7DCFA01460E4850F8240058B1012890
:103B30000ED090F83420130734D512F0F70280F835
:103B400034200FD010E00846FDF7CCFA462070BDB7
:103B50000846FDF7C7FA432070BD00003000002082
:103B6000CC070020026B22B10846FDF7BBFA00200B
:103B7000F2E7FE4C00F138008278A37942EA0302B2
:103B8000A271037804F154024078D55C45EA00053F
:103B9000D5540846FDF7A6FAE0790128E7D1FDF7EC
:103BA00061FBE4E70846FDF79DFA4420D4E770B5D1
:103BB00004460D463F2803D9FF2C01D02A20CBE72D
:103BC0002DB1FDF78BFA0646FF2C02D005E0092047
:103BD000C2E7E648806A90F83640E54850F824107D
:103BE00051B101290DD058222846FEF721FA30465E
:103BF000FDF778FA0020AFE73046FDF773FA292089
:103C0000AAE73046FDF76EFA4320A5E770B50446F3
:103C100015463F2803D3FF2C01D02A2001E019B11B
:103C200008201070002097E7FDF758FA0146FF2C96
:103C30000AD0CF4850F82400446D0846FDF752FAE8
:103C400000202870204687E7C848806AF4E770B5EE
:103C5000044616461D463F2803D3FF2C01D02A20D8
:103C600001E011B10820187076E7FDF737FA014638
:103C7000FF2C09D0BE4850F8240046650846FDF7E1
:103C800031FA0020287067E7B848806AF5E7B7483E
:103C900010B5806AFDF701FABDE81040FF204AE642
:103CA00070B5B24CA5780DB1552055E7E4780CB14C
:103CB000322051E700B919B13B2902D951204BE715
:103CC0001AB13B2A02D9522046E72BB14FF47A743D
:103CD000A34203D353203FE754203DE74FF4AF65A1
:103CE0006B43B3FBF4F34FF461646043C1EB011128
:103CF00000EB81001044AF21484303EBC000FDF707
:103D0000AEFE002028E710B504463F2801D32A2044
:103D100010BDFDF7E3F90146954850F8240090B135
:103D2000012810D0026B9AB10023036390F834206D
:103D300012F0370F11D022F0370280F83420012220
:103D400080F835200BE00846FDF7CCF9432010BD84
:103D50000846FDF7C7F9502010BD80F8353090F8BF
:103D60003420120715D4814A00F138008378947901
:103D700043EA04039371037802F154024078D45C5F
:103D800044EA0004D4540846FDF7ACF9FDF76AFA9A
:103D900002E00846FDF7A6F9002010BD10B5FDF7BA
:103DA0009DF972490C6CFDF79DF9204610BD10B5C8
:103DB0000446FDF793F96D490C64BDE81040FDF72A
:103DC00091B92DE9F05F06460C9D0F4691469B4642
:103DD000012A06D0022A01D0842039E017B98320B5
:103DE00036E036B1DFF8848198F8020018B18B20F4
:103DF0002EE082202CE0FDF7F5FBD8F850400020A3
:103E00001CB3E168C8F85010E06082462061B8F841
:103E10000C00401CA8F80C00B8F80A00401EA8F8D6
:103E20000A00012084F82500C4E9066784F824907C
:103E3000C4F804B00A98A0600B982062FDF774FBE8
:103E400085F800A02046BDE8F09FFDF76DFB8620B9
:103E500028700020F7E7002180F8251080F8241052
:103E6000C16141614160AFF67C72816002620161B3
:103E70003E490A6DC26008658889401E888148896C
:103E8000401C4881704770B505000C4605D0287865
:103E9000642804D08920087025E08A20FBE7334895
:103EA000807808B18B20F6E7FDF79CFB95F825009C
:103EB000A8B1002601280AD0022808D0032803D080
:103EC000FDF732FB8D200DE02846FDF76EFB2846FE
:103ED000FFF7C1FFFDF728FB267001203CE6FDF748
:103EE00023FB87202070002036E670B505460E00C3
:103EF000144605D035B12878642806D0892002E020
:103F0000882000E08A20107022E01848807808B1EC
:103F10001120F8E7FDF766FB95F82500A0B1012810
:103F200007D0022805D0032803D0FDF7FDFA8D2025
:103F30000DE0286A3060FDF725F90546FDF7F4FA33
:103F400000202070284607E6FDF7EEFA8720207053
:103F5000002001E62DE9F04105000C460AD0287842
:103F6000642809D08920087037E000003000002064
:103F7000CC0700208A20F6E79C4EB07808B18B2051
:103F8000F1E7FDF72FFB95F8250010B30027012876
:103F90000FD0022819D0032803D0FDF7C5FA8D20D1
:103FA0001AE06869716C451AFDF7BEFA2770284659
:103FB000A9E595F82400AE69022801D106B9EE6999
:103FC000FDF7B2FA277030469DE5FDF7ADFA277090
:103FD00003E0FDF7A9FA87202070002093E570B573
:103FE00005000C4604D02878642803D0892005E019
:103FF0008A2003E07D48807818B18B20087000206B
:10400000AAE5FDF7EFFA95F825503DB1012D05D051
:10401000022D03D0032D01D08D2000E00020207060
:10402000FDF782FA284697E570B505000C4605D0E5
:104030002878642804D08920087026E08A20FBE7CD
:104040006A48807808B18B20F6E7FDF7CBFA95F83F
:104050002500B0B1002601280AD0022808D0032884
:1040600003D0FDF761FA8D200EE02846FDF79DFA9A
:1040700000212846FDF772FAFDF756FA2670012056
:104080006AE5FDF751FA87202070002064E52DE9EC
:10409000F04105000F4616461C4605D028786428D6
:1040A00004D0892018703CE08A20FBE74F488078D4
:1040B00008B18B20F6E7FDF795FA95F8250060B377
:1040C000012825D0022823D0032803D0FDF72CFA9D
:1040D0008D2025E02846FDF768FA002020709FB16A
:1040E0008F20032F03D0042F07D084200BE06A68B1
:1040F0004AB12846A968904706E06B681BB1314673
:104100002846984700E02070FDF70EFA0120FAE4F7
:10411000FDF70AFA8E202070F8E7FDF705FA8720F0
:1041200020700020EFE43148C06CFFF7A8BA2F4997
:104130002F4A01F154038879105C1B5CD25C02EBBE
:10414000C0004871704710B5F0212A48FDF714FCF3
:104150000020284A0146431C1C4600EB40009BB24D
:1041600002EBC00003EB430302EBC30301704360A7
:10417000214B4361A0B20928EDD300EB400002EBD4
:10418000C00001704160194641611848426110BD8C
:1041900010B54FF4F2611948FDF7EEFB4FF4807152
:1041A0001748FDF7E9FB15490020421C00EB4004CD
:1041B00004EBC000D3B203EB430401EBC00004EBFB
:1041C000C30301EBC30343610B4B0365D0B2152856
:1041D000EBD300EB400202EBC00001EBC000002279
:1041E0000365426101484263C16210BD3000002096
:1041F000824200088C020020EC2E0008CC0800202F
:10420000CC0700207047704770477047704775466D
:1042100000F028F8AE4605006946534620F0070036
:10422000854618B020B5FBF7F1FFBDE820404FF000
:1042300000064FF000074FF000084FF0000B21F090
:104240000701AC46ACE8C009ACE8C009ACE8C0095D
:10425000ACE8C0098D4670470446AFF300802046A5
:10426000FBF7BFFF00487047F41500200048704777
:10427000F815002010B5FFF7F9FF4FF000010160BD
:1042800010BD000001000200010003000100020057
:10429000010004000100020001000300010002000F
:1042A00001000500010002000100030001000200FE
:1042B00001000400010002000100030001000200EF
:1042C00001000600010002000100030001000200DD
:1042D00001000400010002000100030001000200CF
:1042E00001000500010002000100030001000200BE
:1042F00001000400010002000100030001000200AF
:10430000010007000100020001000300010002009B
:10431000010004000100020001000300010002008E
:10432000010005000100020001000300010002007D
:10433000010004000100020001000300010002006E
:10434000010006000100020001000300010002005C
:10435000010004000100020001000300010002004E
:10436000010005000100020001000300010002003D
:10437000010004000100020001000300010002002E
:1043800001000000A4430008000000208C00000091
:104390008C010008304400088C000020CC1B000079
:1043A000A801000800A24A0400000000000000006C
:1043B00001020304060708090204060800000000C1
:1043C00001020304010203040607080900000000BB
:1043D00000000000000000000000000000000000DD
:1043E00000000000000000000000000000000000CD
:1043F00000000000000000000000000000000000BD
:1044000000000000000000000000000000000000AC
:10441000000000000000000000000000000000009C
:10442000000000000000000000000000000000008C
:04000005080001519D
:00000001FF
